{
  "_format": "hh-sol-artifact-1",
  "contractName": "PropertyMarketplace",
  "sourceName": "contracts/PropertyMarketplace.sol",
  "abi": [
    {
      "inputs": [
        {
          "internalType": "address",
          "name": "_propertyRegistry",
          "type": "address"
        }
      ],
      "stateMutability": "nonpayable",
      "type": "constructor"
    },
    {
      "anonymous": false,
      "inputs": [
        {
          "indexed": true,
          "internalType": "uint256",
          "name": "listingId",
          "type": "uint256"
        }
      ],
      "name": "ListingCancelled",
      "type": "event"
    },
    {
      "anonymous": false,
      "inputs": [
        {
          "indexed": true,
          "internalType": "uint256",
          "name": "listingId",
          "type": "uint256"
        },
        {
          "indexed": true,
          "internalType": "uint256",
          "name": "offerId",
          "type": "uint256"
        },
        {
          "indexed": true,
          "internalType": "address",
          "name": "seller",
          "type": "address"
        },
        {
          "indexed": false,
          "internalType": "address",
          "name": "buyer",
          "type": "address"
        }
      ],
      "name": "OfferAccepted",
      "type": "event"
    },
    {
      "anonymous": false,
      "inputs": [
        {
          "indexed": true,
          "internalType": "uint256",
          "name": "offerId",
          "type": "uint256"
        }
      ],
      "name": "OfferCancelled",
      "type": "event"
    },
    {
      "anonymous": false,
      "inputs": [
        {
          "indexed": true,
          "internalType": "uint256",
          "name": "listingId",
          "type": "uint256"
        },
        {
          "indexed": true,
          "internalType": "uint256",
          "name": "offerId",
          "type": "uint256"
        },
        {
          "indexed": true,
          "internalType": "address",
          "name": "buyer",
          "type": "address"
        },
        {
          "indexed": false,
          "internalType": "uint256",
          "name": "offerAmount",
          "type": "uint256"
        },
        {
          "indexed": false,
          "internalType": "uint256",
          "name": "pricePerToken",
          "type": "uint256"
        }
      ],
      "name": "OfferMade",
      "type": "event"
    },
    {
      "anonymous": false,
      "inputs": [
        {
          "indexed": true,
          "internalType": "address",
          "name": "previousOwner",
          "type": "address"
        },
        {
          "indexed": true,
          "internalType": "address",
          "name": "newOwner",
          "type": "address"
        }
      ],
      "name": "OwnershipTransferred",
      "type": "event"
    },
    {
      "anonymous": false,
      "inputs": [
        {
          "indexed": false,
          "internalType": "address",
          "name": "account",
          "type": "address"
        }
      ],
      "name": "Paused",
      "type": "event"
    },
    {
      "anonymous": false,
      "inputs": [
        {
          "indexed": true,
          "internalType": "uint256",
          "name": "listingId",
          "type": "uint256"
        },
        {
          "indexed": true,
          "internalType": "address",
          "name": "seller",
          "type": "address"
        },
        {
          "indexed": true,
          "internalType": "address",
          "name": "tokenContract",
          "type": "address"
        },
        {
          "indexed": false,
          "internalType": "uint256",
          "name": "tokenAmount",
          "type": "uint256"
        },
        {
          "indexed": false,
          "internalType": "uint256",
          "name": "pricePerToken",
          "type": "uint256"
        }
      ],
      "name": "TokensListed",
      "type": "event"
    },
    {
      "anonymous": false,
      "inputs": [
        {
          "indexed": true,
          "internalType": "uint256",
          "name": "listingId",
          "type": "uint256"
        },
        {
          "indexed": true,
          "internalType": "address",
          "name": "seller",
          "type": "address"
        },
        {
          "indexed": true,
          "internalType": "address",
          "name": "buyer",
          "type": "address"
        },
        {
          "indexed": false,
          "internalType": "uint256",
          "name": "tokenAmount",
          "type": "uint256"
        },
        {
          "indexed": false,
          "internalType": "uint256",
          "name": "totalPrice",
          "type": "uint256"
        }
      ],
      "name": "TokensSold",
      "type": "event"
    },
    {
      "anonymous": false,
      "inputs": [
        {
          "indexed": false,
          "internalType": "address",
          "name": "account",
          "type": "address"
        }
      ],
      "name": "Unpaused",
      "type": "event"
    },
    {
      "inputs": [],
      "name": "FEE_DENOMINATOR",
      "outputs": [
        {
          "internalType": "uint256",
          "name": "",
          "type": "uint256"
        }
      ],
      "stateMutability": "view",
      "type": "function"
    },
    {
      "inputs": [
        {
          "internalType": "uint256",
          "name": "_listingId",
          "type": "uint256"
        },
        {
          "internalType": "uint256",
          "name": "_offerIndex",
          "type": "uint256"
        }
      ],
      "name": "acceptOffer",
      "outputs": [],
      "stateMutability": "nonpayable",
      "type": "function"
    },
    {
      "inputs": [
        {
          "internalType": "uint256",
          "name": "_listingId",
          "type": "uint256"
        }
      ],
      "name": "buyTokens",
      "outputs": [],
      "stateMutability": "payable",
      "type": "function"
    },
    {
      "inputs": [
        {
          "internalType": "uint256",
          "name": "_listingId",
          "type": "uint256"
        }
      ],
      "name": "cancelListing",
      "outputs": [],
      "stateMutability": "nonpayable",
      "type": "function"
    },
    {
      "inputs": [
        {
          "internalType": "uint256",
          "name": "_listingId",
          "type": "uint256"
        }
      ],
      "name": "getListingOffers",
      "outputs": [
        {
          "components": [
            {
              "internalType": "address",
              "name": "buyer",
              "type": "address"
            },
            {
              "internalType": "uint256",
              "name": "listingId",
              "type": "uint256"
            },
            {
              "internalType": "uint256",
              "name": "offerAmount",
              "type": "uint256"
            },
            {
              "internalType": "uint256",
              "name": "pricePerToken",
              "type": "uint256"
            },
            {
              "internalType": "uint256",
              "name": "expiresAt",
              "type": "uint256"
            },
            {
              "internalType": "bool",
              "name": "isActive",
              "type": "bool"
            }
          ],
          "internalType": "struct PropertyMarketplace.Offer[]",
          "name": "",
          "type": "tuple[]"
        }
      ],
      "stateMutability": "view",
      "type": "function"
    },
    {
      "inputs": [
        {
          "internalType": "address",
          "name": "_user",
          "type": "address"
        }
      ],
      "name": "getUserListings",
      "outputs": [
        {
          "internalType": "uint256[]",
          "name": "",
          "type": "uint256[]"
        }
      ],
      "stateMutability": "view",
      "type": "function"
    },
    {
      "inputs": [
        {
          "internalType": "address",
          "name": "_user",
          "type": "address"
        }
      ],
      "name": "getUserOffers",
      "outputs": [
        {
          "internalType": "uint256[]",
          "name": "",
          "type": "uint256[]"
        }
      ],
      "stateMutability": "view",
      "type": "function"
    },
    {
      "inputs": [
        {
          "internalType": "address",
          "name": "_tokenContract",
          "type": "address"
        },
        {
          "internalType": "uint256",
          "name": "_tokenAmount",
          "type": "uint256"
        },
        {
          "internalType": "uint256",
          "name": "_pricePerToken",
          "type": "uint256"
        }
      ],
      "name": "listTokens",
      "outputs": [
        {
          "internalType": "uint256",
          "name": "",
          "type": "uint256"
        }
      ],
      "stateMutability": "nonpayable",
      "type": "function"
    },
    {
      "inputs": [
        {
          "internalType": "uint256",
          "name": "",
          "type": "uint256"
        },
        {
          "internalType": "uint256",
          "name": "",
          "type": "uint256"
        }
      ],
      "name": "listingOffers",
      "outputs": [
        {
          "internalType": "address",
          "name": "buyer",
          "type": "address"
        },
        {
          "internalType": "uint256",
          "name": "listingId",
          "type": "uint256"
        },
        {
          "internalType": "uint256",
          "name": "offerAmount",
          "type": "uint256"
        },
        {
          "internalType": "uint256",
          "name": "pricePerToken",
          "type": "uint256"
        },
        {
          "internalType": "uint256",
          "name": "expiresAt",
          "type": "uint256"
        },
        {
          "internalType": "bool",
          "name": "isActive",
          "type": "bool"
        }
      ],
      "stateMutability": "view",
      "type": "function"
    },
    {
      "inputs": [
        {
          "internalType": "uint256",
          "name": "",
          "type": "uint256"
        }
      ],
      "name": "listings",
      "outputs": [
        {
          "internalType": "address",
          "name": "seller",
          "type": "address"
        },
        {
          "internalType": "address",
          "name": "tokenContract",
          "type": "address"
        },
        {
          "internalType": "uint256",
          "name": "tokenAmount",
          "type": "uint256"
        },
        {
          "internalType": "uint256",
          "name": "pricePerToken",
          "type": "uint256"
        },
        {
          "internalType": "uint256",
          "name": "totalPrice",
          "type": "uint256"
        },
        {
          "internalType": "uint256",
          "name": "listedAt",
          "type": "uint256"
        },
        {
          "internalType": "bool",
          "name": "isActive",
          "type": "bool"
        }
      ],
      "stateMutability": "view",
      "type": "function"
    },
    {
      "inputs": [
        {
          "internalType": "uint256",
          "name": "_listingId",
          "type": "uint256"
        },
        {
          "internalType": "uint256",
          "name": "_pricePerToken",
          "type": "uint256"
        },
        {
          "internalType": "uint256",
          "name": "_expiresIn",
          "type": "uint256"
        }
      ],
      "name": "makeOffer",
      "outputs": [
        {
          "internalType": "uint256",
          "name": "",
          "type": "uint256"
        }
      ],
      "stateMutability": "payable",
      "type": "function"
    },
    {
      "inputs": [],
      "name": "marketplaceFee",
      "outputs": [
        {
          "internalType": "uint256",
          "name": "",
          "type": "uint256"
        }
      ],
      "stateMutability": "view",
      "type": "function"
    },
    {
      "inputs": [],
      "name": "nextListingId",
      "outputs": [
        {
          "internalType": "uint256",
          "name": "",
          "type": "uint256"
        }
      ],
      "stateMutability": "view",
      "type": "function"
    },
    {
      "inputs": [],
      "name": "nextOfferId",
      "outputs": [
        {
          "internalType": "uint256",
          "name": "",
          "type": "uint256"
        }
      ],
      "stateMutability": "view",
      "type": "function"
    },
    {
      "inputs": [],
      "name": "owner",
      "outputs": [
        {
          "internalType": "address",
          "name": "",
          "type": "address"
        }
      ],
      "stateMutability": "view",
      "type": "function"
    },
    {
      "inputs": [],
      "name": "pause",
      "outputs": [],
      "stateMutability": "nonpayable",
      "type": "function"
    },
    {
      "inputs": [],
      "name": "paused",
      "outputs": [
        {
          "internalType": "bool",
          "name": "",
          "type": "bool"
        }
      ],
      "stateMutability": "view",
      "type": "function"
    },
    {
      "inputs": [],
      "name": "propertyRegistry",
      "outputs": [
        {
          "internalType": "contract PropertyRegistry",
          "name": "",
          "type": "address"
        }
      ],
      "stateMutability": "view",
      "type": "function"
    },
    {
      "inputs": [],
      "name": "renounceOwnership",
      "outputs": [],
      "stateMutability": "nonpayable",
      "type": "function"
    },
    {
      "inputs": [
        {
          "internalType": "address",
          "name": "newOwner",
          "type": "address"
        }
      ],
      "name": "transferOwnership",
      "outputs": [],
      "stateMutability": "nonpayable",
      "type": "function"
    },
    {
      "inputs": [],
      "name": "unpause",
      "outputs": [],
      "stateMutability": "nonpayable",
      "type": "function"
    },
    {
      "inputs": [
        {
          "internalType": "uint256",
          "name": "_newFee",
          "type": "uint256"
        }
      ],
      "name": "updateMarketplaceFee",
      "outputs": [],
      "stateMutability": "nonpayable",
      "type": "function"
    },
    {
      "inputs": [
        {
          "internalType": "address",
          "name": "",
          "type": "address"
        },
        {
          "internalType": "uint256",
          "name": "",
          "type": "uint256"
        }
      ],
      "name": "userListings",
      "outputs": [
        {
          "internalType": "uint256",
          "name": "",
          "type": "uint256"
        }
      ],
      "stateMutability": "view",
      "type": "function"
    },
    {
      "inputs": [
        {
          "internalType": "address",
          "name": "",
          "type": "address"
        },
        {
          "internalType": "uint256",
          "name": "",
          "type": "uint256"
        }
      ],
      "name": "userOffers",
      "outputs": [
        {
          "internalType": "uint256",
          "name": "",
          "type": "uint256"
        }
      ],
      "stateMutability": "view",
      "type": "function"
    },
    {
      "inputs": [],
      "name": "withdrawFees",
      "outputs": [],
      "stateMutability": "nonpayable",
      "type": "function"
    }
  ],
  "bytecode": "0x60a06040526001600755600160085560fa60095534801561001f57600080fd5b5060405162001b7738038062001b77833981016040819052610040916100b8565b61004933610068565b600180556002805460ff191690556001600160a01b03166080526100e8565b600080546001600160a01b038381166001600160a01b0319831681178455604051919092169283917f8be0079c531659141344cd1fd0a4f28419497f9722a3daafe3b4186f6b6457e09190a35050565b6000602082840312156100ca57600080fd5b81516001600160a01b03811681146100e157600080fd5b9392505050565b608051611a736200010460003960006101db0152611a736000f3fe6080604052600436106101665760003560e01c806381257bd5116100d1578063d73792a91161008a578063eb18a9d811610064578063eb18a9d8146104af578063f2fde38b146104cf578063fa982ad1146104ef578063fbb1e4971461050f57600080fd5b8063d73792a9146103dc578063de74e57b146103f2578063e210a72d1461049c57600080fd5b806381257bd5146103335780638456cb591461035357806386cfa7d3146103685780638da5cb5b14610388578063aaccf1ec146103a6578063bd5fec65146103bc57600080fd5b8063476343ee11610123578063476343ee1461027f5780635c975abb146102945780635f5d0655146102b7578063661d2c2c146102db5780636a16696414610308578063715018a61461031e57600080fd5b806320e33db81461016b57806326b703a7146101c9578063305a67a81461021557806330eb80cd146102375780633610724e146102575780633f4ba83a1461026a575b600080fd5b34801561017757600080fd5b5061018b61018636600461176a565b61053c565b604080516001600160a01b03909716875260208701959095529385019290925260608401526080830152151560a082015260c0015b60405180910390f35b3480156101d557600080fd5b506101fd7f000000000000000000000000000000000000000000000000000000000000000081565b6040516001600160a01b0390911681526020016101c0565b34801561022157600080fd5b5061023561023036600461178c565b61059d565b005b34801561024357600080fd5b5061023561025236600461178c565b6106da565b61023561026536600461178c565b610731565b34801561027657600080fd5b506102356109bd565b34801561028b57600080fd5b506102356109cf565b3480156102a057600080fd5b5060025460ff1660405190151581526020016101c0565b3480156102c357600080fd5b506102cd60085481565b6040519081526020016101c0565b3480156102e757600080fd5b506102fb6102f63660046117c1565b610a11565b6040516101c091906117dc565b34801561031457600080fd5b506102cd60095481565b34801561032a57600080fd5b50610235610a7d565b34801561033f57600080fd5b5061023561034e36600461176a565b610a8f565b34801561035f57600080fd5b50610235610d32565b34801561037457600080fd5b506102cd610383366004611820565b610d42565b34801561039457600080fd5b506000546001600160a01b03166101fd565b3480156103b257600080fd5b506102cd60075481565b3480156103c857600080fd5b506102cd6103d7366004611820565b610d73565b3480156103e857600080fd5b506102cd61271081565b3480156103fe57600080fd5b5061045a61040d36600461178c565b600360208190526000918252604090912080546001820154600283015493830154600484015460058501546006909501546001600160a01b03948516969490931694919290919060ff1687565b604080516001600160a01b039889168152979096166020880152948601939093526060850191909152608084015260a0830152151560c082015260e0016101c0565b6102cd6104aa36600461184a565b610d8f565b3480156104bb57600080fd5b506102fb6104ca3660046117c1565b610fdf565b3480156104db57600080fd5b506102356104ea3660046117c1565b611049565b3480156104fb57600080fd5b506102cd61050a366004611876565b6110bf565b34801561051b57600080fd5b5061052f61052a36600461178c565b611493565b6040516101c091906118a9565b6004602052816000526040600020818154811061055857600080fd5b60009182526020909120600690910201805460018201546002830154600384015460048501546005909501546001600160a01b03909416965091945092909160ff1686565b600081815260036020526040902080546001600160a01b031633146105fa5760405162461bcd60e51b815260206004820152600e60248201526d2737ba103a34329039b2b63632b960911b60448201526064015b60405180910390fd5b600681015460ff1661061e5760405162461bcd60e51b81526004016105f19061192c565b6001810154600282015460405163a9059cbb60e01b815233600482015260248101919091526001600160a01b0390911690819063a9059cbb906044016020604051808303816000875af1158015610679573d6000803e3d6000fd5b505050506040513d601f19601f8201168201806040525081019061069d9190611958565b5060068201805460ff1916905560405183907f411aee90354c51b1b04cd563fcab2617142a9d50da19232d888547c8a1b7fd8a90600090a2505050565b6106e2611549565b6103e881111561072c5760405162461bcd60e51b81526020600482015260156024820152744665652063616e6e6f74206578636565642031302560581b60448201526064016105f1565b600955565b6107396115a3565b6107416115e9565b6000818152600360205260409020600681015460ff166107735760405162461bcd60e51b81526004016105f19061192c565b8054336001600160a01b03909116036107c75760405162461bcd60e51b815260206004820152601660248201527543616e6e6f7420627579206f776e206c697374696e6760501b60448201526064016105f1565b80600401543410156108125760405162461bcd60e51b8152602060048201526014602482015273125b9cdd59999a58da595b9d081c185e5b595b9d60621b60448201526064016105f1565b600061271060095483600401546108299190611990565b61083391906119ad565b9050600081836004015461084791906119cf565b6001840154600285015460405163a9059cbb60e01b815233600482015260248101919091529192506001600160a01b031690819063a9059cbb906044016020604051808303816000875af11580156108a3573d6000803e3d6000fd5b505050506040513d601f19601f820116820180604052508101906108c79190611958565b5083546040516001600160a01b039091169083156108fc029084906000818181858888f19350505050158015610901573d6000803e3d6000fd5b5060068401805460ff19169055600484015434111561095957600484015433906108fc9061092f90346119cf565b6040518115909202916000818181858888f19350505050158015610957573d6000803e3d6000fd5b505b83546002850154600486015460408051928352602083019190915233926001600160a01b03169188917fb6989099cbbc433c69995a8281c4571e8d74646d013af2f6f6c9244dba57ef18910160405180910390a4505050506109ba60018055565b50565b6109c5611549565b6109cd611642565b565b6109d7611549565b600080546040516001600160a01b03909116914780156108fc02929091818181858888f193505050501580156109ba573d6000803e3d6000fd5b6001600160a01b038116600090815260066020908152604091829020805483518184028101840190945280845260609392830182828015610a7157602002820191906000526020600020905b815481526020019060010190808311610a5d575b50505050509050919050565b610a85611549565b6109cd6000611694565b610a976115a3565b610a9f6115e9565b600082815260036020526040902080546001600160a01b03163314610af75760405162461bcd60e51b815260206004820152600e60248201526d2737ba103a34329039b2b63632b960911b60448201526064016105f1565b600681015460ff16610b1b5760405162461bcd60e51b81526004016105f19061192c565b6000838152600460205260408120805484908110610b3b57610b3b6119e2565b60009182526020909120600690910201600581015490915060ff16610b955760405162461bcd60e51b815260206004820152601060248201526f4f66666572206e6f742061637469766560801b60448201526064016105f1565b8060040154421115610bd95760405162461bcd60e51b815260206004820152600d60248201526c13d999995c88195e1c1a5c9959609a1b60448201526064016105f1565b60006127106009548360020154610bf09190611990565b610bfa91906119ad565b90506000818360020154610c0e91906119cf565b60018501548454600287015460405163a9059cbb60e01b81526001600160a01b03928316600482015260248101919091529293501690819063a9059cbb906044016020604051808303816000875af1158015610c6e573d6000803e3d6000fd5b505050506040513d601f19601f82011682018060405250810190610c929190611958565b50604051339083156108fc029084906000818181858888f19350505050158015610cc0573d6000803e3d6000fd5b5060068501805460ff19908116909155600585018054909116905583546040516001600160a01b0390911681523390879089907fffa8e4adef20403a71fedeb00a7d0c21f7c714855d9ac581923d2c44cc6f10809060200160405180910390a45050505050610d2e60018055565b5050565b610d3a611549565b6109cd6116e4565b60056020528160005260406000208181548110610d5e57600080fd5b90600052602060002001600091509150505481565b60066020528160005260406000208181548110610d5e57600080fd5b6000610d996115a3565b6000848152600360205260409020600681015460ff16610dcb5760405162461bcd60e51b81526004016105f19061192c565b8054336001600160a01b0390911603610e265760405162461bcd60e51b815260206004820152601b60248201527f43616e6e6f74206f66666572206f6e206f776e206c697374696e67000000000060448201526064016105f1565b60006305f5e100858360020154610e3d9190611990565b610e4791906119ad565b905080341015610e995760405162461bcd60e51b815260206004820152601e60248201527f496e73756666696369656e74207061796d656e7420666f72206f66666572000060448201526064016105f1565b6008805460009182610eaa836119f8565b919050559050600460008881526020019081526020016000206040518060c00160405280336001600160a01b031681526020018981526020018481526020018881526020018742610efb9190611a11565b8152600160209182018190528354808201855560009485528285208451600692830290910180546001600160a01b0319166001600160a01b0390921691909117815584840151818401556040808601516002830155606086015160038301556080860151600483015560a0909501516005909101805460ff1916911515919091179055338086529083528385208054928301815585529382902001849055815185815290810189905283918a917f23b0047c5c1f392c454f858542ddfb8143e48945b1a00e247308d5eb97164bc4910160405180910390a4925050505b9392505050565b6001600160a01b038116600090815260056020908152604091829020805483518184028101840190945280845260609392830182828015610a715760200282019190600052602060002090815481526020019060010190808311610a5d5750505050509050919050565b611051611549565b6001600160a01b0381166110b65760405162461bcd60e51b815260206004820152602660248201527f4f776e61626c653a206e6577206f776e657220697320746865207a65726f206160448201526564647265737360d01b60648201526084016105f1565b6109ba81611694565b60006110c96115a3565b6110d16115e9565b6000831161112d5760405162461bcd60e51b815260206004820152602360248201527f546f6b656e20616d6f756e74206d75737420626520677265617465722074686160448201526206e20360ec1b60648201526084016105f1565b6000821161117d5760405162461bcd60e51b815260206004820152601c60248201527f5072696365206d7573742062652067726561746572207468616e20300000000060448201526064016105f1565b6040516370a0823160e01b8152336004820152849084906001600160a01b038316906370a0823190602401602060405180830381865afa1580156111c5573d6000803e3d6000fd5b505050506040513d601f19601f820116820180604052508101906111e99190611a24565b10156112375760405162461bcd60e51b815260206004820152601a60248201527f496e73756666696369656e7420746f6b656e2062616c616e636500000000000060448201526064016105f1565b6040516323b872dd60e01b8152336004820152306024820152604481018590526001600160a01b038216906323b872dd906064016020604051808303816000875af115801561128a573d6000803e3d6000fd5b505050506040513d601f19601f820116820180604052508101906112ae9190611958565b5060078054600091826112c0836119f8565b90915550905060006305f5e1006112d78688611990565b6112e191906119ad565b90506040518060e00160405280336001600160a01b03168152602001886001600160a01b03168152602001878152602001868152602001828152602001428152602001600115158152506003600084815260200190815260200160002060008201518160000160006101000a8154816001600160a01b0302191690836001600160a01b0316021790555060208201518160010160006101000a8154816001600160a01b0302191690836001600160a01b0316021790555060408201518160020155606082015181600301556080820151816004015560a0820151816005015560c08201518160060160006101000a81548160ff02191690831515021790555090505060056000336001600160a01b03166001600160a01b03168152602001908152602001600020829080600181540180825580915050600190039060005260206000200160009091909190915055866001600160a01b0316336001600160a01b0316837f1d62f5f147e2745b349cd82f2cf5b08b999a42b13f5cb2fe0bd0b13a488ee25b898960405161147e929190918252602082015260400190565b60405180910390a450915050610fd860018055565b606060046000838152602001908152602001600020805480602002602001604051908101604052809291908181526020016000905b8282101561153e5760008481526020908190206040805160c0810182526006860290920180546001600160a01b031683526001808201548486015260028201549284019290925260038101546060840152600481015460808401526005015460ff16151560a083015290835290920191016114c8565b505050509050919050565b6000546001600160a01b031633146109cd5760405162461bcd60e51b815260206004820181905260248201527f4f776e61626c653a2063616c6c6572206973206e6f7420746865206f776e657260448201526064016105f1565b60025460ff16156109cd5760405162461bcd60e51b815260206004820152601060248201526f14185d5cd8589b194e881c185d5cd95960821b60448201526064016105f1565b60026001540361163b5760405162461bcd60e51b815260206004820152601f60248201527f5265656e7472616e637947756172643a207265656e7472616e742063616c6c0060448201526064016105f1565b6002600155565b61164a611721565b6002805460ff191690557f5db9ee0a495bf2e6ff9c91a7834c1ba4fdd244a5e8aa4e537bd38aeae4b073aa335b6040516001600160a01b03909116815260200160405180910390a1565b600080546001600160a01b038381166001600160a01b0319831681178455604051919092169283917f8be0079c531659141344cd1fd0a4f28419497f9722a3daafe3b4186f6b6457e09190a35050565b6116ec6115a3565b6002805460ff191660011790557f62e78cea01bee320cd4e420270b5ea74000d11b0c9f74754ebdbfc544b05a2586116773390565b60025460ff166109cd5760405162461bcd60e51b815260206004820152601460248201527314185d5cd8589b194e881b9bdd081c185d5cd95960621b60448201526064016105f1565b6000806040838503121561177d57600080fd5b50508035926020909101359150565b60006020828403121561179e57600080fd5b5035919050565b80356001600160a01b03811681146117bc57600080fd5b919050565b6000602082840312156117d357600080fd5b610fd8826117a5565b6020808252825182820181905260009190848201906040850190845b81811015611814578351835292840192918401916001016117f8565b50909695505050505050565b6000806040838503121561183357600080fd5b61183c836117a5565b946020939093013593505050565b60008060006060848603121561185f57600080fd5b505081359360208301359350604090920135919050565b60008060006060848603121561188b57600080fd5b611894846117a5565b95602085013595506040909401359392505050565b602080825282518282018190526000919060409081850190868401855b8281101561191f57815180516001600160a01b0316855286810151878601528581015186860152606080820151908601526080808201519086015260a09081015115159085015260c090930192908501906001016118c6565b5091979650505050505050565b6020808252601290820152714c697374696e67206e6f742061637469766560701b604082015260600190565b60006020828403121561196a57600080fd5b81518015158114610fd857600080fd5b634e487b7160e01b600052601160045260246000fd5b80820281158282048414176119a7576119a761197a565b92915050565b6000826119ca57634e487b7160e01b600052601260045260246000fd5b500490565b818103818111156119a7576119a761197a565b634e487b7160e01b600052603260045260246000fd5b600060018201611a0a57611a0a61197a565b5060010190565b808201808211156119a7576119a761197a565b600060208284031215611a3657600080fd5b505191905056fea2646970667358221220410a90891b796925226e643c2c5e67edd687e42b322797799ae6d6f13b75209b64736f6c63430008130033",
  "linkReferences": {},
  "deployedLinkReferences": {}
}