{
  "_format": "hh-sol-artifact-1",
  "contractName": "RevenueDistributor",
  "sourceName": "contracts/RevenueDistributor.sol",
  "abi": [
    {
      "anonymous": false,
      "inputs": [
        {
          "indexed": true,
          "internalType": "address",
          "name": "distributor",
          "type": "address"
        },
        {
          "indexed": false,
          "internalType": "bool",
          "name": "authorized",
          "type": "bool"
        }
      ],
      "name": "DistributorAuthorized",
      "type": "event"
    },
    {
      "anonymous": false,
      "inputs": [
        {
          "indexed": true,
          "internalType": "address",
          "name": "previousOwner",
          "type": "address"
        },
        {
          "indexed": true,
          "internalType": "address",
          "name": "newOwner",
          "type": "address"
        }
      ],
      "name": "OwnershipTransferred",
      "type": "event"
    },
    {
      "anonymous": false,
      "inputs": [
        {
          "indexed": false,
          "internalType": "address",
          "name": "account",
          "type": "address"
        }
      ],
      "name": "Paused",
      "type": "event"
    },
    {
      "anonymous": false,
      "inputs": [
        {
          "indexed": true,
          "internalType": "uint256",
          "name": "distributionId",
          "type": "uint256"
        },
        {
          "indexed": true,
          "internalType": "address",
          "name": "holder",
          "type": "address"
        },
        {
          "indexed": false,
          "internalType": "uint256",
          "name": "amount",
          "type": "uint256"
        }
      ],
      "name": "RevenueClaimed",
      "type": "event"
    },
    {
      "anonymous": false,
      "inputs": [
        {
          "indexed": true,
          "internalType": "uint256",
          "name": "distributionId",
          "type": "uint256"
        },
        {
          "indexed": true,
          "internalType": "address",
          "name": "tokenContract",
          "type": "address"
        },
        {
          "indexed": false,
          "internalType": "uint256",
          "name": "totalAmount",
          "type": "uint256"
        },
        {
          "indexed": false,
          "internalType": "string",
          "name": "revenueSource",
          "type": "string"
        }
      ],
      "name": "RevenueDistributionCreated",
      "type": "event"
    },
    {
      "anonymous": false,
      "inputs": [
        {
          "indexed": false,
          "internalType": "address",
          "name": "account",
          "type": "address"
        }
      ],
      "name": "Unpaused",
      "type": "event"
    },
    {
      "inputs": [
        {
          "internalType": "address",
          "name": "_distributor",
          "type": "address"
        },
        {
          "internalType": "bool",
          "name": "_authorized",
          "type": "bool"
        }
      ],
      "name": "authorizeDistributor",
      "outputs": [],
      "stateMutability": "nonpayable",
      "type": "function"
    },
    {
      "inputs": [
        {
          "internalType": "address",
          "name": "",
          "type": "address"
        }
      ],
      "name": "authorizedDistributors",
      "outputs": [
        {
          "internalType": "bool",
          "name": "",
          "type": "bool"
        }
      ],
      "stateMutability": "view",
      "type": "function"
    },
    {
      "inputs": [
        {
          "internalType": "uint256",
          "name": "_distributionId",
          "type": "uint256"
        },
        {
          "internalType": "address",
          "name": "_holder",
          "type": "address"
        }
      ],
      "name": "calculateClaimAmount",
      "outputs": [
        {
          "internalType": "uint256",
          "name": "",
          "type": "uint256"
        }
      ],
      "stateMutability": "view",
      "type": "function"
    },
    {
      "inputs": [
        {
          "internalType": "uint256[]",
          "name": "_distributionIds",
          "type": "uint256[]"
        }
      ],
      "name": "claimMultipleDistributions",
      "outputs": [],
      "stateMutability": "nonpayable",
      "type": "function"
    },
    {
      "inputs": [
        {
          "internalType": "uint256",
          "name": "_distributionId",
          "type": "uint256"
        }
      ],
      "name": "claimRevenue",
      "outputs": [],
      "stateMutability": "nonpayable",
      "type": "function"
    },
    {
      "inputs": [
        {
          "internalType": "uint256",
          "name": "",
          "type": "uint256"
        },
        {
          "internalType": "address",
          "name": "",
          "type": "address"
        }
      ],
      "name": "claims",
      "outputs": [
        {
          "internalType": "uint256",
          "name": "distributionId",
          "type": "uint256"
        },
        {
          "internalType": "address",
          "name": "holder",
          "type": "address"
        },
        {
          "internalType": "uint256",
          "name": "amount",
          "type": "uint256"
        },
        {
          "internalType": "bool",
          "name": "isClaimed",
          "type": "bool"
        }
      ],
      "stateMutability": "view",
      "type": "function"
    },
    {
      "inputs": [
        {
          "internalType": "address",
          "name": "_tokenContract",
          "type": "address"
        },
        {
          "internalType": "string",
          "name": "_revenueSource",
          "type": "string"
        }
      ],
      "name": "createDistribution",
      "outputs": [
        {
          "internalType": "uint256",
          "name": "",
          "type": "uint256"
        }
      ],
      "stateMutability": "payable",
      "type": "function"
    },
    {
      "inputs": [
        {
          "internalType": "uint256",
          "name": "",
          "type": "uint256"
        }
      ],
      "name": "distributions",
      "outputs": [
        {
          "internalType": "address",
          "name": "tokenContract",
          "type": "address"
        },
        {
          "internalType": "uint256",
          "name": "totalAmount",
          "type": "uint256"
        },
        {
          "internalType": "uint256",
          "name": "distributionDate",
          "type": "uint256"
        },
        {
          "internalType": "uint256",
          "name": "totalSupplyAtDistribution",
          "type": "uint256"
        },
        {
          "internalType": "string",
          "name": "revenueSource",
          "type": "string"
        },
        {
          "internalType": "bool",
          "name": "isDistributed",
          "type": "bool"
        }
      ],
      "stateMutability": "view",
      "type": "function"
    },
    {
      "inputs": [],
      "name": "emergencyWithdraw",
      "outputs": [],
      "stateMutability": "nonpayable",
      "type": "function"
    },
    {
      "inputs": [
        {
          "internalType": "address",
          "name": "_holder",
          "type": "address"
        }
      ],
      "name": "getHolderDistributions",
      "outputs": [
        {
          "internalType": "uint256[]",
          "name": "",
          "type": "uint256[]"
        }
      ],
      "stateMutability": "view",
      "type": "function"
    },
    {
      "inputs": [
        {
          "internalType": "address",
          "name": "_holder",
          "type": "address"
        }
      ],
      "name": "getTotalUnclaimedAmount",
      "outputs": [
        {
          "internalType": "uint256",
          "name": "",
          "type": "uint256"
        }
      ],
      "stateMutability": "view",
      "type": "function"
    },
    {
      "inputs": [
        {
          "internalType": "address",
          "name": "_holder",
          "type": "address"
        }
      ],
      "name": "getUnclaimedDistributions",
      "outputs": [
        {
          "internalType": "uint256[]",
          "name": "",
          "type": "uint256[]"
        }
      ],
      "stateMutability": "view",
      "type": "function"
    },
    {
      "inputs": [
        {
          "internalType": "address",
          "name": "",
          "type": "address"
        },
        {
          "internalType": "uint256",
          "name": "",
          "type": "uint256"
        }
      ],
      "name": "holderDistributions",
      "outputs": [
        {
          "internalType": "uint256",
          "name": "",
          "type": "uint256"
        }
      ],
      "stateMutability": "view",
      "type": "function"
    },
    {
      "inputs": [],
      "name": "nextDistributionId",
      "outputs": [
        {
          "internalType": "uint256",
          "name": "",
          "type": "uint256"
        }
      ],
      "stateMutability": "view",
      "type": "function"
    },
    {
      "inputs": [],
      "name": "owner",
      "outputs": [
        {
          "internalType": "address",
          "name": "",
          "type": "address"
        }
      ],
      "stateMutability": "view",
      "type": "function"
    },
    {
      "inputs": [],
      "name": "pause",
      "outputs": [],
      "stateMutability": "nonpayable",
      "type": "function"
    },
    {
      "inputs": [],
      "name": "paused",
      "outputs": [
        {
          "internalType": "bool",
          "name": "",
          "type": "bool"
        }
      ],
      "stateMutability": "view",
      "type": "function"
    },
    {
      "inputs": [],
      "name": "renounceOwnership",
      "outputs": [],
      "stateMutability": "nonpayable",
      "type": "function"
    },
    {
      "inputs": [],
      "name": "totalDistributions",
      "outputs": [
        {
          "internalType": "uint256",
          "name": "",
          "type": "uint256"
        }
      ],
      "stateMutability": "view",
      "type": "function"
    },
    {
      "inputs": [
        {
          "internalType": "address",
          "name": "newOwner",
          "type": "address"
        }
      ],
      "name": "transferOwnership",
      "outputs": [],
      "stateMutability": "nonpayable",
      "type": "function"
    },
    {
      "inputs": [],
      "name": "unpause",
      "outputs": [],
      "stateMutability": "nonpayable",
      "type": "function"
    }
  ],
  "bytecode": "0x6080604052600160075534801561001557600080fd5b5061001f33610032565b600180556002805460ff19169055610082565b600080546001600160a01b038381166001600160a01b0319831681178455604051919092169283917f8be0079c531659141344cd1fd0a4f28419497f9722a3daafe3b4186f6b6457e09190a35050565b61158e806100916000396000f3fe60806040526004361061012a5760003560e01c8063795be4b9116100ab578063b4b266cb1161006f578063b4b266cb1461038e578063b6680d51146103ae578063d815d935146103ce578063db2e21bc146103e1578063f0a8d34d146103f6578063f2fde38b1461041657600080fd5b8063795be4b9146102eb5780638456cb59146103015780638d1696c9146103165780638da5cb5b14610346578063a6b398151461036e57600080fd5b806340bf88e8116100f257806340bf88e8146102335780634487d3df146102535780634e381eac146102855780635c975abb146102b2578063715018a6146102d657600080fd5b806305a9e0e61461012f578063163db71b146101515780631cb536ed1461017a5780631da4c66b1461019a5780633f4ba83a1461021e575b600080fd5b34801561013b57600080fd5b5061014f61014a36600461103d565b610436565b005b34801561015d57600080fd5b5061016760085481565b6040519081526020015b60405180910390f35b34801561018657600080fd5b5061014f6101953660046110e3565b6104c2565b3480156101a657600080fd5b506101f46101b5366004611118565b6004602090815260009283526040808420909152908252902080546001820154600283015460039093015491926001600160a01b039091169160ff1684565b604080519485526001600160a01b0390931660208501529183015215156060820152608001610171565b34801561022a57600080fd5b5061014f6106a7565b34801561023f57600080fd5b5061016761024e366004611118565b6106b9565b34801561025f57600080fd5b5061027361026e3660046110e3565b61077c565b6040516101719695949392919061118a565b34801561029157600080fd5b506102a56102a03660046111d2565b61084b565b60405161017191906111f4565b3480156102be57600080fd5b5060025460ff165b6040519015158152602001610171565b3480156102e257600080fd5b5061014f61094b565b3480156102f757600080fd5b5061016760075481565b34801561030d57600080fd5b5061014f61095d565b34801561032257600080fd5b506102c66103313660046111d2565b60066020526000908152604090205460ff1681565b34801561035257600080fd5b506000546040516001600160a01b039091168152602001610171565b34801561037a57600080fd5b50610167610389366004611238565b61096d565b34801561039a57600080fd5b5061014f6103a9366004611262565b61099e565b3480156103ba57600080fd5b506101676103c93660046111d2565b610a05565b6101676103dc36600461129e565b610a71565b3480156103ed57600080fd5b5061014f610cb1565b34801561040257600080fd5b506102a56104113660046111d2565b610cf3565b34801561042257600080fd5b5061014f6104313660046111d2565b610d5f565b60005b81518110156104be576004600083838151811061045857610458611344565b6020908102919091018101518252818101929092526040908101600090812033825290925290206003015460ff166104ac576104ac82828151811061049f5761049f611344565b60200260200101516104c2565b806104b681611370565b915050610439565b5050565b6104ca610dd5565b6104d2610e2e565b6000818152600360205260409020600181015461052f5760405162461bcd60e51b8152602060048201526016602482015275111a5cdd1c9a589d5d1a5bdb881b9bdd08199bdd5b9960521b60448201526064015b60405180910390fd5b60008281526004602090815260408083203384529091529020600381015460ff161561058f5760405162461bcd60e51b815260206004820152600f60248201526e105b1c9958591e4818db185a5b5959608a1b6044820152606401610526565b600061059b84336106b9565b9050600081116105e35760405162461bcd60e51b81526020600482015260136024820152724e6f20726576656e756520746f20636c61696d60681b6044820152606401610526565b838255600180830180546001600160a01b031916339081179091556002840183905560038401805460ff19168317905560008181526005602090815260408083208054958601815583529082209093018790559151909183156108fc02918491818181858888f19350505050158015610660573d6000803e3d6000fd5b50604051818152339085907fb9e8470097faa00e83252475f2ee4b69007b0bb2405268ebec248676998a21b39060200160405180910390a35050506106a460018055565b50565b6106af610e74565b6106b7610ece565b565b600082815260036020526040808220805491516370a0823160e01b81526001600160a01b03858116600483015291929190911690839082906370a0823190602401602060405180830381865afa158015610717573d6000803e3d6000fd5b505050506040513d601f19601f8201168201806040525081019061073b9190611389565b9050806000036107515760009350505050610776565b826003015481846001015461076691906113a2565b61077091906113b9565b93505050505b92915050565b6003602081905260009182526040909120805460018201546002830154938301546004840180546001600160a01b0390941695929492939192916107bf906113db565b80601f01602080910402602001604051908101604052809291908181526020018280546107eb906113db565b80156108385780601f1061080d57610100808354040283529160200191610838565b820191906000526020600020905b81548152906001019060200180831161081b57829003601f168201915b5050506005909301549192505060ff1686565b6060600060085467ffffffffffffffff81111561086a5761086a610ff6565b604051908082528060200260200182016040528015610893578160200160208202803683370190505b509050600060015b600754811161094257600081815260036020526040902060010154158015906108ea575060008181526004602090815260408083206001600160a01b038916845290915290206003015460ff16155b80156108ff575060006108fd82876106b9565b115b15610930578083838151811061091757610917611344565b60209081029190910101528161092c81611370565b9250505b8061093a81611370565b91505061089b565b50815292915050565b610953610e74565b6106b76000610f20565b610965610e74565b6106b7610f70565b6005602052816000526040600020818154811061098957600080fd5b90600052602060002001600091509150505481565b6109a6610e74565b6001600160a01b038216600081815260066020908152604091829020805460ff191685151590811790915591519182527f3bfd3629c8447b9a1f24b8192c2691dd632d637b6376b59829ede197d3bfadcb910160405180910390a25050565b60008060015b6007548111610a6a5760008181526004602090815260408083206001600160a01b038816845290915290206003015460ff16610a5857610a4b81856106b9565b610a559083611415565b91505b80610a6281611370565b915050610a0b565b5092915050565b3360009081526006602052604081205460ff16610ad05760405162461bcd60e51b815260206004820152601a60248201527f4e6f7420617574686f72697a6564206469737472696275746f720000000000006044820152606401610526565b610ad8610e2e565b60003411610b285760405162461bcd60e51b815260206004820152601860248201527f4e6f20726576656e756520746f206469737472696275746500000000000000006044820152606401610526565b60008390506000816001600160a01b03166318160ddd6040518163ffffffff1660e01b8152600401602060405180830381865afa158015610b6d573d6000803e3d6000fd5b505050506040513d601f19601f82011682018060405250810190610b919190611389565b600780549192506000919082610ba683611370565b909155506040805160c0810182526001600160a01b0389811682523460208084019182524284860190815260608501898152608086018d8152600060a0880181905289815260039485905297909720865181546001600160a01b0319169616959095178555925160018501555160028401559051908201559151929350916004820190610c339082611477565b5060a091909101516005909101805460ff191691151591909117905560088054906000610c5f83611370565b9190505550856001600160a01b0316817f92dbe12c9441e0c9d0380d18eba31abe016738e614f4675a0b0b298173cc19093488604051610ca0929190611537565b60405180910390a395945050505050565b610cb9610e74565b600080546040516001600160a01b03909116914780156108fc02929091818181858888f193505050501580156106a4573d6000803e3d6000fd5b6001600160a01b038116600090815260056020908152604091829020805483518184028101840190945280845260609392830182828015610d5357602002820191906000526020600020905b815481526020019060010190808311610d3f575b50505050509050919050565b610d67610e74565b6001600160a01b038116610dcc5760405162461bcd60e51b815260206004820152602660248201527f4f776e61626c653a206e6577206f776e657220697320746865207a65726f206160448201526564647265737360d01b6064820152608401610526565b6106a481610f20565b600260015403610e275760405162461bcd60e51b815260206004820152601f60248201527f5265656e7472616e637947756172643a207265656e7472616e742063616c6c006044820152606401610526565b6002600155565b60025460ff16156106b75760405162461bcd60e51b815260206004820152601060248201526f14185d5cd8589b194e881c185d5cd95960821b6044820152606401610526565b6000546001600160a01b031633146106b75760405162461bcd60e51b815260206004820181905260248201527f4f776e61626c653a2063616c6c6572206973206e6f7420746865206f776e65726044820152606401610526565b610ed6610fad565b6002805460ff191690557f5db9ee0a495bf2e6ff9c91a7834c1ba4fdd244a5e8aa4e537bd38aeae4b073aa335b6040516001600160a01b03909116815260200160405180910390a1565b600080546001600160a01b038381166001600160a01b0319831681178455604051919092169283917f8be0079c531659141344cd1fd0a4f28419497f9722a3daafe3b4186f6b6457e09190a35050565b610f78610e2e565b6002805460ff191660011790557f62e78cea01bee320cd4e420270b5ea74000d11b0c9f74754ebdbfc544b05a258610f033390565b60025460ff166106b75760405162461bcd60e51b815260206004820152601460248201527314185d5cd8589b194e881b9bdd081c185d5cd95960621b6044820152606401610526565b634e487b7160e01b600052604160045260246000fd5b604051601f8201601f1916810167ffffffffffffffff8111828210171561103557611035610ff6565b604052919050565b6000602080838503121561105057600080fd5b823567ffffffffffffffff8082111561106857600080fd5b818501915085601f83011261107c57600080fd5b81358181111561108e5761108e610ff6565b8060051b915061109f84830161100c565b81815291830184019184810190888411156110b957600080fd5b938501935b838510156110d7578435825293850193908501906110be565b98975050505050505050565b6000602082840312156110f557600080fd5b5035919050565b80356001600160a01b038116811461111357600080fd5b919050565b6000806040838503121561112b57600080fd5b8235915061113b602084016110fc565b90509250929050565b6000815180845260005b8181101561116a5760208185018101518683018201520161114e565b506000602082860101526020601f19601f83011685010191505092915050565b60018060a01b038716815285602082015284604082015283606082015260c0608082015260006111bd60c0830185611144565b905082151560a0830152979650505050505050565b6000602082840312156111e457600080fd5b6111ed826110fc565b9392505050565b6020808252825182820181905260009190848201906040850190845b8181101561122c57835183529284019291840191600101611210565b50909695505050505050565b6000806040838503121561124b57600080fd5b611254836110fc565b946020939093013593505050565b6000806040838503121561127557600080fd5b61127e836110fc565b91506020830135801515811461129357600080fd5b809150509250929050565b600080604083850312156112b157600080fd5b6112ba836110fc565b915060208084013567ffffffffffffffff808211156112d857600080fd5b818601915086601f8301126112ec57600080fd5b8135818111156112fe576112fe610ff6565b611310601f8201601f1916850161100c565b9150808252878482850101111561132657600080fd5b80848401858401376000848284010152508093505050509250929050565b634e487b7160e01b600052603260045260246000fd5b634e487b7160e01b600052601160045260246000fd5b6000600182016113825761138261135a565b5060010190565b60006020828403121561139b57600080fd5b5051919050565b80820281158282048414176107765761077661135a565b6000826113d657634e487b7160e01b600052601260045260246000fd5b500490565b600181811c908216806113ef57607f821691505b60208210810361140f57634e487b7160e01b600052602260045260246000fd5b50919050565b808201808211156107765761077661135a565b601f82111561147257600081815260208120601f850160051c8101602086101561144f5750805b601f850160051c820191505b8181101561146e5782815560010161145b565b5050505b505050565b815167ffffffffffffffff81111561149157611491610ff6565b6114a58161149f84546113db565b84611428565b602080601f8311600181146114da57600084156114c25750858301515b600019600386901b1c1916600185901b17855561146e565b600085815260208120601f198616915b82811015611509578886015182559484019460019091019084016114ea565b50858210156115275787850151600019600388901b60f8161c191681555b5050505050600190811b01905550565b8281526040602082015260006115506040830184611144565b94935050505056fea2646970667358221220ccaed5a8fdc5f2f30b52ba758814c0e016f23bd8bbfa14ba91a1127e4ca29d4f64736f6c63430008130033",
  "linkReferences": {},
  "deployedLinkReferences": {}
}