{"contracts/PropertyToken.sol":{"PropertyToken":{"abi":[{"inputs":[{"internalType":"string","name":"_name","type":"string"},{"internalType":"string","name":"_symbol","type":"string"},{"internalType":"uint256","name":"_totalSupply","type":"uint256"},{"internalType":"uint256","name":"_totalValue","type":"uint256"},{"components":[{"internalType":"string","name":"propertyId","type":"string"},{"internalType":"string","name":"landTitleId","type":"string"},{"internalType":"string","name":"propertyAddress","type":"string"},{"internalType":"uint256","name":"totalValue","type":"uint256"},{"internalType":"uint256","name":"minimumInvestment","type":"uint256"},{"internalType":"uint256","name":"expectedROI","type":"uint256"},{"internalType":"uint256","name":"lockupPeriod","type":"uint256"},{"internalType":"bool","name":"isActive","type":"bool"}],"internalType":"struct PropertyToken.PropertyDetails","name":"_propertyDetails","type":"tuple"}],"stateMutability":"nonpayable","type":"constructor"},{"anonymous":false,"inputs":[{"indexed":true,"internalType":"address","name":"owner","type":"address"},{"indexed":true,"internalType":"address","name":"spender","type":"address"},{"indexed":false,"internalType":"uint256","name":"value","type":"uint256"}],"name":"Approval","type":"event"},{"anonymous":false,"inputs":[{"indexed":true,"internalType":"address","name":"investor","type":"address"},{"indexed":false,"internalType":"bool","name":"verified","type":"bool"}],"name":"InvestorKYCUpdated","type":"event"},{"anonymous":false,"inputs":[{"indexed":true,"internalType":"address","name":"previousOwner","type":"address"},{"indexed":true,"internalType":"address","name":"newOwner","type":"address"}],"name":"OwnershipTransferred","type":"event"},{"anonymous":false,"inputs":[{"indexed":false,"internalType":"address","name":"account","type":"address"}],"name":"Paused","type":"event"},{"anonymous":false,"inputs":[{"indexed":false,"internalType":"string","name":"propertyId","type":"string"},{"indexed":false,"internalType":"uint256","name":"newValue","type":"uint256"}],"name":"PropertyUpdated","type":"event"},{"anonymous":false,"inputs":[{"indexed":false,"internalType":"uint256","name":"totalAmount","type":"uint256"},{"indexed":false,"internalType":"uint256","name":"timestamp","type":"uint256"}],"name":"RevenueDistributed","type":"event"},{"anonymous":false,"inputs":[{"indexed":true,"internalType":"address","name":"investor","type":"address"},{"indexed":false,"internalType":"uint256","name":"amount","type":"uint256"},{"indexed":false,"internalType":"uint256","name":"tokens","type":"uint256"}],"name":"TokensPurchased","type":"event"},{"anonymous":false,"inputs":[{"indexed":true,"internalType":"address","name":"from","type":"address"},{"indexed":true,"internalType":"address","name":"to","type":"address"},{"indexed":false,"internalType":"uint256","name":"value","type":"uint256"}],"name":"Transfer","type":"event"},{"anonymous":false,"inputs":[{"indexed":false,"internalType":"address","name":"account","type":"address"}],"name":"Unpaused","type":"event"},{"inputs":[],"name":"DECIMALS","outputs":[{"internalType":"uint256","name":"","type":"uint256"}],"stateMutability":"view","type":"function"},{"inputs":[{"internalType":"address","name":"owner","type":"address"},{"internalType":"address","name":"spender","type":"address"}],"name":"allowance","outputs":[{"internalType":"uint256","name":"","type":"uint256"}],"stateMutability":"view","type":"function"},{"inputs":[{"internalType":"address","name":"spender","type":"address"},{"internalType":"uint256","name":"amount","type":"uint256"}],"name":"approve","outputs":[{"internalType":"bool","name":"","type":"bool"}],"stateMutability":"nonpayable","type":"function"},{"inputs":[{"internalType":"address","name":"account","type":"address"}],"name":"balanceOf","outputs":[{"internalType":"uint256","name":"","type":"uint256"}],"stateMutability":"view","type":"function"},{"inputs":[],"name":"decimals","outputs":[{"internalType":"uint8","name":"","type":"uint8"}],"stateMutability":"view","type":"function"},{"inputs":[{"internalType":"address","name":"spender","type":"address"},{"internalType":"uint256","name":"subtractedValue","type":"uint256"}],"name":"decreaseAllowance","outputs":[{"internalType":"bool","name":"","type":"bool"}],"stateMutability":"nonpayable","type":"function"},{"inputs":[],"name":"distributeRevenue","outputs":[],"stateMutability":"payable","type":"function"},{"inputs":[{"internalType":"address","name":"_investor","type":"address"}],"name":"getInvestorInfo","outputs":[{"internalType":"uint256","name":"tokenBalance","type":"uint256"},{"internalType":"uint256","name":"investmentAmount","type":"uint256"},{"internalType":"uint256","name":"lockupEnd","type":"uint256"},{"internalType":"bool","name":"isKYCVerified","type":"bool"}],"stateMutability":"view","type":"function"},{"inputs":[],"name":"getPropertyInfo","outputs":[{"components":[{"internalType":"string","name":"propertyId","type":"string"},{"internalType":"string","name":"landTitleId","type":"string"},{"internalType":"string","name":"propertyAddress","type":"string"},{"internalType":"uint256","name":"totalValue","type":"uint256"},{"internalType":"uint256","name":"minimumInvestment","type":"uint256"},{"internalType":"uint256","name":"expectedROI","type":"uint256"},{"internalType":"uint256","name":"lockupPeriod","type":"uint256"},{"internalType":"bool","name":"isActive","type":"bool"}],"internalType":"struct PropertyToken.PropertyDetails","name":"","type":"tuple"}],"stateMutability":"view","type":"function"},{"inputs":[{"internalType":"address","name":"spender","type":"address"},{"internalType":"uint256","name":"addedValue","type":"uint256"}],"name":"increaseAllowance","outputs":[{"internalType":"bool","name":"","type":"bool"}],"stateMutability":"nonpayable","type":"function"},{"inputs":[{"internalType":"address","name":"","type":"address"}],"name":"investmentAmounts","outputs":[{"internalType":"uint256","name":"","type":"uint256"}],"stateMutability":"view","type":"function"},{"inputs":[{"internalType":"uint256","name":"","type":"uint256"}],"name":"investors","outputs":[{"internalType":"address","name":"","type":"address"}],"stateMutability":"view","type":"function"},{"inputs":[{"internalType":"address","name":"","type":"address"}],"name":"kycVerified","outputs":[{"internalType":"bool","name":"","type":"bool"}],"stateMutability":"view","type":"function"},{"inputs":[{"internalType":"address","name":"","type":"address"}],"name":"lockupEndTime","outputs":[{"internalType":"uint256","name":"","type":"uint256"}],"stateMutability":"view","type":"function"},{"inputs":[],"name":"name","outputs":[{"internalType":"string","name":"","type":"string"}],"stateMutability":"view","type":"function"},{"inputs":[],"name":"owner","outputs":[{"internalType":"address","name":"","type":"address"}],"stateMutability":"view","type":"function"},{"inputs":[],"name":"pause","outputs":[],"stateMutability":"nonpayable","type":"function"},{"inputs":[],"name":"paused","outputs":[{"internalType":"bool","name":"","type":"bool"}],"stateMutability":"view","type":"function"},{"inputs":[],"name":"pricePerToken","outputs":[{"internalType":"uint256","name":"","type":"uint256"}],"stateMutability":"view","type":"function"},{"inputs":[],"name":"propertyDetails","outputs":[{"internalType":"string","name":"propertyId","type":"string"},{"internalType":"string","name":"landTitleId","type":"string"},{"internalType":"string","name":"propertyAddress","type":"string"},{"internalType":"uint256","name":"totalValue","type":"uint256"},{"internalType":"uint256","name":"minimumInvestment","type":"uint256"},{"internalType":"uint256","name":"expectedROI","type":"uint256"},{"internalType":"uint256","name":"lockupPeriod","type":"uint256"},{"internalType":"bool","name":"isActive","type":"bool"}],"stateMutability":"view","type":"function"},{"inputs":[{"internalType":"uint256","name":"_tokenAmount","type":"uint256"}],"name":"purchaseTokens","outputs":[],"stateMutability":"payable","type":"function"},{"inputs":[],"name":"renounceOwnership","outputs":[],"stateMutability":"nonpayable","type":"function"},{"inputs":[],"name":"symbol","outputs":[{"internalType":"string","name":"","type":"string"}],"stateMutability":"view","type":"function"},{"inputs":[],"name":"totalInvestors","outputs":[{"internalType":"uint256","name":"","type":"uint256"}],"stateMutability":"view","type":"function"},{"inputs":[],"name":"totalPropertyValue","outputs":[{"internalType":"uint256","name":"","type":"uint256"}],"stateMutability":"view","type":"function"},{"inputs":[],"name":"totalSupply","outputs":[{"internalType":"uint256","name":"","type":"uint256"}],"stateMutability":"view","type":"function"},{"inputs":[{"internalType":"address","name":"to","type":"address"},{"internalType":"uint256","name":"amount","type":"uint256"}],"name":"transfer","outputs":[{"internalType":"bool","name":"","type":"bool"}],"stateMutability":"nonpayable","type":"function"},{"inputs":[{"internalType":"address","name":"from","type":"address"},{"internalType":"address","name":"to","type":"address"},{"internalType":"uint256","name":"amount","type":"uint256"}],"name":"transferFrom","outputs":[{"internalType":"bool","name":"","type":"bool"}],"stateMutability":"nonpayable","type":"function"},{"inputs":[{"internalType":"address","name":"newOwner","type":"address"}],"name":"transferOwnership","outputs":[],"stateMutability":"nonpayable","type":"function"},{"inputs":[{"internalType":"address","name":"_to","type":"address"},{"internalType":"uint256","name":"_amount","type":"uint256"}],"name":"transferTokens","outputs":[],"stateMutability":"nonpayable","type":"function"},{"inputs":[],"name":"unpause","outputs":[],"stateMutability":"nonpayable","type":"function"},{"inputs":[{"internalType":"address","name":"_investor","type":"address"},{"internalType":"bool","name":"_verified","type":"bool"}],"name":"updateKYCStatus","outputs":[],"stateMutability":"nonpayable","type":"function"},{"inputs":[{"internalType":"uint256","name":"_newValue","type":"uint256"}],"name":"updatePropertyValue","outputs":[],"stateMutability":"nonpayable","type":"function"}],"evm":{"bytecode":{"linkReferences":{},"object":"60806040523480156200001157600080fd5b50604051620025f6380380620025f6833981016040819052620000349162000386565b8484600362000044838262000577565b50600462000053828262000577565b505050620000706200006a6200014d60201b60201c565b62000151565b6005805460ff60a01b191690556001600655620000a730620000956008600a62000758565b620000a190866200076d565b620001a3565b600f829055620000b8838362000787565b601055805181906007908190620000d0908262000577565b5060208201516001820190620000e7908262000577565b5060408201516002820190620000fe908262000577565b50606082015160038201556080820151600482015560a0820151600582015560c0820151600682015560e0909101516007909101805460ff191691151591909117905550620007c09350505050565b3390565b600580546001600160a01b038381166001600160a01b0319831681179093556040519116919082907f8be0079c531659141344cd1fd0a4f28419497f9722a3daafe3b4186f6b6457e090600090a35050565b6001600160a01b038216620001fe5760405162461bcd60e51b815260206004820152601f60248201527f45524332303a206d696e7420746f20746865207a65726f206164647265737300604482015260640160405180910390fd5b8060026000828254620002129190620007aa565b90915550506001600160a01b038216600081815260208181526040808320805486019055518481527fddf252ad1be2c89b69c2b068fc378daa952ba7f163c4a11628f55a4df523b3ef910160405180910390a35050565b505050565b634e487b7160e01b600052604160045260246000fd5b60405161010081016001600160401b0381118282101715620002aa57620002aa6200026e565b60405290565b604051601f8201601f191681016001600160401b0381118282101715620002db57620002db6200026e565b604052919050565b600082601f830112620002f557600080fd5b81516001600160401b038111156200031157620003116200026e565b602062000327601f8301601f19168201620002b0565b82815285828487010111156200033c57600080fd5b60005b838110156200035c5785810183015182820184015282016200033f565b506000928101909101919091529392505050565b805180151581146200038157600080fd5b919050565b600080600080600060a086880312156200039f57600080fd5b85516001600160401b0380821115620003b757600080fd5b620003c589838a01620002e3565b96506020880151915080821115620003dc57600080fd5b620003ea89838a01620002e3565b9550604088015194506060880151935060808801519150808211156200040f57600080fd5b90870190610100828a0312156200042557600080fd5b6200042f62000284565b8251828111156200043f57600080fd5b6200044d8b828601620002e3565b8252506020830151828111156200046357600080fd5b620004718b828601620002e3565b6020830152506040830151828111156200048a57600080fd5b620004988b828601620002e3565b604083015250606083015160608201526080830151608082015260a083015160a082015260c083015160c0820152620004d460e0840162000370565b60e08201528093505050509295509295909350565b600181811c90821680620004fe57607f821691505b6020821081036200051f57634e487b7160e01b600052602260045260246000fd5b50919050565b601f8211156200026957600081815260208120601f850160051c810160208610156200054e5750805b601f850160051c820191505b818110156200056f578281556001016200055a565b505050505050565b81516001600160401b038111156200059357620005936200026e565b620005ab81620005a48454620004e9565b8462000525565b602080601f831160018114620005e35760008415620005ca5750858301515b600019600386901b1c1916600185901b1785556200056f565b600085815260208120601f198616915b828110156200061457888601518255948401946001909101908401620005f3565b5085821015620006335787850151600019600388901b60f8161c191681555b5050505050600190811b01905550565b634e487b7160e01b600052601160045260246000fd5b600181815b808511156200069a5781600019048211156200067e576200067e62000643565b808516156200068c57918102915b93841c93908002906200065e565b509250929050565b600082620006b35750600162000752565b81620006c25750600062000752565b8160018114620006db5760028114620006e65762000706565b600191505062000752565b60ff841115620006fa57620006fa62000643565b50506001821b62000752565b5060208310610133831016604e8410600b84101617156200072b575081810a62000752565b62000737838362000659565b80600019048211156200074e576200074e62000643565b0290505b92915050565b6000620007668383620006a2565b9392505050565b808202811582820484141762000752576200075262000643565b600082620007a557634e487b7160e01b600052601260045260246000fd5b500490565b8082018082111562000752576200075262000643565b611e2680620007d06000396000f3fe6080604052600436106101ed5760003560e01c80635de5f3be1161010d578063a457c2d7116100a0578063bec3fa171161006f578063bec3fa171461059c578063d7fac34b146105bc578063dd62ed3e146105d2578063e20993bc146105f2578063f2fde38b1461061257600080fd5b8063a457c2d7146104ff578063a5410a661461051f578063a9059cbb1461054f578063ad4222c71461056f57600080fd5b80637b97008d116100dc5780637b97008d146104a45780638456cb59146104b75780638da5cb5b146104cc57806395d89b41146104ea57600080fd5b80635de5f3be1461042157806370a0823114610443578063715018a6146104795780637b1b1de61461048e57600080fd5b80632e0f2625116101855780633feb5f2b116101545780633feb5f2b1461037d57806341a03968146103b557806353df9d76146103e25780635c975abb1461040257600080fd5b80632e0f262514610317578063313ce5671461032c57806339509351146103485780633f4ba83a1461036857600080fd5b806318160ddd116101c157806318160ddd146102b857806323b872dd146102d757806329b8caff146102f75780632d07953a1461030d57600080fd5b80627dc372146101f257806306fdde03146102245780630707873c14610246578063095ea7b314610288575b600080fd5b3480156101fe57600080fd5b50610207610632565b60405161021b989796959493929190611923565b60405180910390f35b34801561023057600080fd5b50610239610802565b60405161021b919061198d565b34801561025257600080fd5b506102666102613660046119c3565b610894565b604080519485526020850193909352918301521515606082015260800161021b565b34801561029457600080fd5b506102a86102a33660046119de565b6108f8565b604051901515815260200161021b565b3480156102c457600080fd5b506002545b60405190815260200161021b565b3480156102e357600080fd5b506102a86102f2366004611a08565b610912565b34801561030357600080fd5b506102c960155481565b610315610936565b005b34801561032357600080fd5b506102c9600881565b34801561033857600080fd5b506040516012815260200161021b565b34801561035457600080fd5b506102a86103633660046119de565b610ab6565b34801561037457600080fd5b50610315610ad8565b34801561038957600080fd5b5061039d610398366004611a44565b610aea565b6040516001600160a01b03909116815260200161021b565b3480156103c157600080fd5b506102c96103d03660046119c3565b60126020526000908152604090205481565b3480156103ee57600080fd5b506103156103fd366004611a5d565b610b14565b34801561040e57600080fd5b50600554600160a01b900460ff166102a8565b34801561042d57600080fd5b50610436610b7b565b60405161021b9190611a99565b34801561044f57600080fd5b506102c961045e3660046119c3565b6001600160a01b031660009081526020819052604090205490565b34801561048557600080fd5b50610315610dc6565b34801561049a57600080fd5b506102c960105481565b6103156104b2366004611a44565b610dd8565b3480156104c357600080fd5b506103156110d4565b3480156104d857600080fd5b506005546001600160a01b031661039d565b3480156104f657600080fd5b506102396110e4565b34801561050b57600080fd5b506102a861051a3660046119de565b6110f3565b34801561052b57600080fd5b506102a861053a3660046119c3565b60136020526000908152604090205460ff1681565b34801561055b57600080fd5b506102a861056a3660046119de565b61116e565b34801561057b57600080fd5b506102c961058a3660046119c3565b60116020526000908152604090205481565b3480156105a857600080fd5b506103156105b73660046119de565b61117c565b3480156105c857600080fd5b506102c9600f5481565b3480156105de57600080fd5b506102c96105ed366004611b3b565b61125a565b3480156105fe57600080fd5b5061031561060d366004611a44565b611285565b34801561061e57600080fd5b5061031561062d3660046119c3565b6112eb565b60078054819061064190611b6e565b80601f016020809104026020016040519081016040528092919081815260200182805461066d90611b6e565b80156106ba5780601f1061068f576101008083540402835291602001916106ba565b820191906000526020600020905b81548152906001019060200180831161069d57829003601f168201915b5050505050908060010180546106cf90611b6e565b80601f01602080910402602001604051908101604052809291908181526020018280546106fb90611b6e565b80156107485780601f1061071d57610100808354040283529160200191610748565b820191906000526020600020905b81548152906001019060200180831161072b57829003601f168201915b50505050509080600201805461075d90611b6e565b80601f016020809104026020016040519081016040528092919081815260200182805461078990611b6e565b80156107d65780601f106107ab576101008083540402835291602001916107d6565b820191906000526020600020905b8154815290600101906020018083116107b957829003601f168201915b505050600384015460048501546005860154600687015460079097015495969295919450925060ff1688565b60606003805461081190611b6e565b80601f016020809104026020016040519081016040528092919081815260200182805461083d90611b6e565b801561088a5780601f1061085f5761010080835404028352916020019161088a565b820191906000526020600020905b81548152906001019060200180831161086d57829003601f168201915b5050505050905090565b6000806000806108b9856001600160a01b031660009081526020819052604090205490565b6001600160a01b0395909516600090815260116020908152604080832054601283528184205460139093529220549697919690955060ff169350915050565b600033610906818585611361565b60019150505b92915050565b600033610920858285611485565b61092b8585856114ff565b506001949350505050565b61093e6116a3565b600034116109935760405162461bcd60e51b815260206004820152601860248201527f4e6f20726576656e756520746f2064697374726962757465000000000000000060448201526064015b60405180910390fd5b306000908152602081905260408120546002546109b09190611bbe565b905060005b601454811015610a79576000601482815481106109d4576109d4611bd1565b60009182526020822001546001600160a01b03169150610a09826001600160a01b031660009081526020819052604090205490565b90508015610a6457600084610a1e8334611be7565b610a289190611bfe565b6040519091506001600160a01b0384169082156108fc029083906000818181858888f19350505050158015610a61573d6000803e3d6000fd5b50505b50508080610a7190611c20565b9150506109b5565b50604080513481524260208201527ff2838e4b541f90d41a1076a560d75e948f7d1008e72118a655568626a30b451f91015b60405180910390a150565b600033610906818585610ac9838361125a565b610ad39190611c39565b611361565b610ae06116a3565b610ae86116fd565b565b60148181548110610afa57600080fd5b6000918252602090912001546001600160a01b0316905081565b610b1c6116a3565b6001600160a01b038216600081815260136020908152604091829020805460ff191685151590811790915591519182527f3654d8650100fa53b8e5dcc6eeeea45a6069b9832c094245abbdcd2e7a0de347910160405180910390a25050565b610bc5604051806101000160405280606081526020016060815260200160608152602001600081526020016000815260200160008152602001600081526020016000151581525090565b600760405180610100016040529081600082018054610be390611b6e565b80601f0160208091040260200160405190810160405280929190818152602001828054610c0f90611b6e565b8015610c5c5780601f10610c3157610100808354040283529160200191610c5c565b820191906000526020600020905b815481529060010190602001808311610c3f57829003601f168201915b50505050508152602001600182018054610c7590611b6e565b80601f0160208091040260200160405190810160405280929190818152602001828054610ca190611b6e565b8015610cee5780601f10610cc357610100808354040283529160200191610cee565b820191906000526020600020905b815481529060010190602001808311610cd157829003601f168201915b50505050508152602001600282018054610d0790611b6e565b80601f0160208091040260200160405190810160405280929190818152602001828054610d3390611b6e565b8015610d805780601f10610d5557610100808354040283529160200191610d80565b820191906000526020600020905b815481529060010190602001808311610d6357829003601f168201915b50505091835250506003820154602082015260048201546040820152600582015460608201526006820154608082015260079091015460ff16151560a090910152919050565b610dce6116a3565b610ae86000611752565b3360009081526013602052604090205460ff16610e375760405162461bcd60e51b815260206004820152601960248201527f4b594320766572696669636174696f6e20726571756972656400000000000000604482015260640161098a565b610e3f6117a4565b610e476117f1565b60008111610ea35760405162461bcd60e51b815260206004820152602360248201527f546f6b656e20616d6f756e74206d75737420626520677265617465722074686160448201526206e20360ec1b606482015260840161098a565b601054610eb09082611be7565b341015610ef65760405162461bcd60e51b8152602060048201526014602482015273125b9cdd59999a58da595b9d081c185e5b595b9d60621b604482015260640161098a565b610f026008600a611d30565b610f0c9082611be7565b306000908152602081905260409020541015610f6a5760405162461bcd60e51b815260206004820152601b60248201527f4e6f7420656e6f75676820746f6b656e7320617661696c61626c650000000000604482015260640161098a565b600b54341015610fbc5760405162461bcd60e51b815260206004820152601860248201527f42656c6f77206d696e696d756d20696e766573746d656e740000000000000000604482015260640161098a565b610fdc3033610fcd6008600a611d30565b610fd79085611be7565b6114ff565b336000908152601160205260408120549003611047576014805460018101825560009182527fce6d7b5282bd9a3661ae061feed1dbda4e52ab073b1f9285be6e155d9c38d4ec0180546001600160a01b03191633179055601580549161104183611c20565b91905055505b3360009081526011602052604081208054349290611066908490611c39565b9091555050600d546110789042611c39565b3360008181526012602090815260409182902093909355805134815292830184905290917f8fafebcaf9d154343dad25669bfa277f4fbacd7ac6b0c4fed522580e040a0f33910160405180910390a26110d16001600655565b50565b6110dc6116a3565b610ae861184a565b60606004805461081190611b6e565b60003381611101828661125a565b9050838110156111615760405162461bcd60e51b815260206004820152602560248201527f45524332303a2064656372656173656420616c6c6f77616e63652062656c6f77604482015264207a65726f60d81b606482015260840161098a565b61092b8286868403611361565b6000336109068185856114ff565b336000908152601260205260409020544210156111db5760405162461bcd60e51b815260206004820152601760248201527f4c6f636b757020706572696f64206e6f7420656e646564000000000000000000604482015260640161098a565b6111e36117a4565b6001600160a01b03821660009081526013602052604090205460ff1661124b5760405162461bcd60e51b815260206004820152601a60248201527f526563697069656e74206e6f74204b5943207665726966696564000000000000604482015260640161098a565b6112563383836114ff565b5050565b6001600160a01b03918216600090815260016020908152604080832093909416825291909152205490565b61128d6116a3565b600f81905561129e6008600a611d30565b6002546112ab9190611bfe565b6112b59082611bfe565b6010556040517fdc0d1a545b7923b69edb6d85d57ba8431d43559646628478bc3d0b817d2c55e490610aab906007908490611d3c565b6112f36116a3565b6001600160a01b0381166113585760405162461bcd60e51b815260206004820152602660248201527f4f776e61626c653a206e6577206f776e657220697320746865207a65726f206160448201526564647265737360d01b606482015260840161098a565b6110d181611752565b6001600160a01b0383166113c35760405162461bcd60e51b8152602060048201526024808201527f45524332303a20617070726f76652066726f6d20746865207a65726f206164646044820152637265737360e01b606482015260840161098a565b6001600160a01b0382166114245760405162461bcd60e51b815260206004820152602260248201527f45524332303a20617070726f766520746f20746865207a65726f206164647265604482015261737360f01b606482015260840161098a565b6001600160a01b0383811660008181526001602090815260408083209487168084529482529182902085905590518481527f8c5be1e5ebec7d5bd14f71427d1e84f3dd0314c0f7b2291e5b200ac8c7c3b925910160405180910390a3505050565b6000611491848461125a565b905060001981146114f957818110156114ec5760405162461bcd60e51b815260206004820152601d60248201527f45524332303a20696e73756666696369656e7420616c6c6f77616e6365000000604482015260640161098a565b6114f98484848403611361565b50505050565b6001600160a01b0383166115635760405162461bcd60e51b815260206004820152602560248201527f45524332303a207472616e736665722066726f6d20746865207a65726f206164604482015264647265737360d81b606482015260840161098a565b6001600160a01b0382166115c55760405162461bcd60e51b815260206004820152602360248201527f45524332303a207472616e7366657220746f20746865207a65726f206164647260448201526265737360e81b606482015260840161098a565b6001600160a01b0383166000908152602081905260409020548181101561163d5760405162461bcd60e51b815260206004820152602660248201527f45524332303a207472616e7366657220616d6f756e7420657863656564732062604482015265616c616e636560d01b606482015260840161098a565b6001600160a01b03848116600081815260208181526040808320878703905593871680835291849020805487019055925185815290927fddf252ad1be2c89b69c2b068fc378daa952ba7f163c4a11628f55a4df523b3ef910160405180910390a36114f9565b6005546001600160a01b03163314610ae85760405162461bcd60e51b815260206004820181905260248201527f4f776e61626c653a2063616c6c6572206973206e6f7420746865206f776e6572604482015260640161098a565b61170561188d565b6005805460ff60a01b191690557f5db9ee0a495bf2e6ff9c91a7834c1ba4fdd244a5e8aa4e537bd38aeae4b073aa335b6040516001600160a01b03909116815260200160405180910390a1565b600580546001600160a01b038381166001600160a01b0319831681179093556040519116919082907f8be0079c531659141344cd1fd0a4f28419497f9722a3daafe3b4186f6b6457e090600090a35050565b600554600160a01b900460ff1615610ae85760405162461bcd60e51b815260206004820152601060248201526f14185d5cd8589b194e881c185d5cd95960821b604482015260640161098a565b6002600654036118435760405162461bcd60e51b815260206004820152601f60248201527f5265656e7472616e637947756172643a207265656e7472616e742063616c6c00604482015260640161098a565b6002600655565b6118526117a4565b6005805460ff60a01b1916600160a01b1790557f62e78cea01bee320cd4e420270b5ea74000d11b0c9f74754ebdbfc544b05a2586117353390565b600554600160a01b900460ff16610ae85760405162461bcd60e51b815260206004820152601460248201527314185d5cd8589b194e881b9bdd081c185d5cd95960621b604482015260640161098a565b6000815180845260005b81811015611903576020818501810151868301820152016118e7565b506000602082860101526020601f19601f83011685010191505092915050565b60006101008083526119378184018c6118dd565b9050828103602084015261194b818b6118dd565b9050828103604084015261195f818a6118dd565b60608401989098525050608081019490945260a084019290925260c0830152151560e0909101529392505050565b6020815260006119a060208301846118dd565b9392505050565b80356001600160a01b03811681146119be57600080fd5b919050565b6000602082840312156119d557600080fd5b6119a0826119a7565b600080604083850312156119f157600080fd5b6119fa836119a7565b946020939093013593505050565b600080600060608486031215611a1d57600080fd5b611a26846119a7565b9250611a34602085016119a7565b9150604084013590509250925092565b600060208284031215611a5657600080fd5b5035919050565b60008060408385031215611a7057600080fd5b611a79836119a7565b915060208301358015158114611a8e57600080fd5b809150509250929050565b6020815260008251610100806020850152611ab86101208501836118dd565b91506020850151601f1980868503016040870152611ad684836118dd565b9350604087015191508086850301606087015250611af483826118dd565b92505060608501516080850152608085015160a085015260a085015160c085015260c085015160e085015260e0850151611b318286018215159052565b5090949350505050565b60008060408385031215611b4e57600080fd5b611b57836119a7565b9150611b65602084016119a7565b90509250929050565b600181811c90821680611b8257607f821691505b602082108103611ba257634e487b7160e01b600052602260045260246000fd5b50919050565b634e487b7160e01b600052601160045260246000fd5b8181038181111561090c5761090c611ba8565b634e487b7160e01b600052603260045260246000fd5b808202811582820484141761090c5761090c611ba8565b600082611c1b57634e487b7160e01b600052601260045260246000fd5b500490565b600060018201611c3257611c32611ba8565b5060010190565b8082018082111561090c5761090c611ba8565b600181815b80851115611c87578160001904821115611c6d57611c6d611ba8565b80851615611c7a57918102915b93841c9390800290611c51565b509250929050565b600082611c9e5750600161090c565b81611cab5750600061090c565b8160018114611cc15760028114611ccb57611ce7565b600191505061090c565b60ff841115611cdc57611cdc611ba8565b50506001821b61090c565b5060208310610133831016604e8410600b8410161715611d0a575081810a61090c565b611d148383611c4c565b8060001904821115611d2857611d28611ba8565b029392505050565b60006119a08383611c8f565b60408152600080845481600182811c915080831680611d5c57607f831692505b60208084108203611d7b57634e487b7160e01b86526022600452602486fd5b6040880184905260608801828015611d9a5760018114611db057611ddb565b60ff198716825285151560051b82019750611ddb565b60008c81526020902060005b87811015611dd557815484820152908601908401611dbc565b83019850505b5050969096019690965250909594505050505056fea26469706673582212207753dc96dfb95363a73d9eef581dd6deabd41640b327a89045d756f8c1f122ce64736f6c63430008130033","opcodes":"PUSH1 0x80 PUSH1 0x40 MSTORE CALLVALUE DUP1 ISZERO PUSH3 0x11 JUMPI PUSH1 0x0 DUP1 REVERT JUMPDEST POP PUSH1 0x40 MLOAD PUSH3 0x25F6 CODESIZE SUB DUP1 PUSH3 0x25F6 DUP4 CODECOPY DUP2 ADD PUSH1 0x40 DUP2 SWAP1 MSTORE PUSH3 0x34 SWAP2 PUSH3 0x386 JUMP JUMPDEST DUP5 DUP5 PUSH1 0x3 PUSH3 0x44 DUP4 DUP3 PUSH3 0x577 JUMP JUMPDEST POP PUSH1 0x4 PUSH3 0x53 DUP3 DUP3 PUSH3 0x577 JUMP JUMPDEST POP POP POP PUSH3 0x70 PUSH3 0x6A PUSH3 0x14D PUSH1 0x20 SHL PUSH1 0x20 SHR JUMP JUMPDEST PUSH3 0x151 JUMP JUMPDEST PUSH1 0x5 DUP1 SLOAD PUSH1 0xFF PUSH1 0xA0 SHL NOT AND SWAP1 SSTORE PUSH1 0x1 PUSH1 0x6 SSTORE PUSH3 0xA7 ADDRESS PUSH3 0x95 PUSH1 0x8 PUSH1 0xA PUSH3 0x758 JUMP JUMPDEST PUSH3 0xA1 SWAP1 DUP7 PUSH3 0x76D JUMP JUMPDEST PUSH3 0x1A3 JUMP JUMPDEST PUSH1 0xF DUP3 SWAP1 SSTORE PUSH3 0xB8 DUP4 DUP4 PUSH3 0x787 JUMP JUMPDEST PUSH1 0x10 SSTORE DUP1 MLOAD DUP2 SWAP1 PUSH1 0x7 SWAP1 DUP2 SWAP1 PUSH3 0xD0 SWAP1 DUP3 PUSH3 0x577 JUMP JUMPDEST POP PUSH1 0x20 DUP3 ADD MLOAD PUSH1 0x1 DUP3 ADD SWAP1 PUSH3 0xE7 SWAP1 DUP3 PUSH3 0x577 JUMP JUMPDEST POP PUSH1 0x40 DUP3 ADD MLOAD PUSH1 0x2 DUP3 ADD SWAP1 PUSH3 0xFE SWAP1 DUP3 PUSH3 0x577 JUMP JUMPDEST POP PUSH1 0x60 DUP3 ADD MLOAD PUSH1 0x3 DUP3 ADD SSTORE PUSH1 0x80 DUP3 ADD MLOAD PUSH1 0x4 DUP3 ADD SSTORE PUSH1 0xA0 DUP3 ADD MLOAD PUSH1 0x5 DUP3 ADD SSTORE PUSH1 0xC0 DUP3 ADD MLOAD PUSH1 0x6 DUP3 ADD SSTORE PUSH1 0xE0 SWAP1 SWAP2 ADD MLOAD PUSH1 0x7 SWAP1 SWAP2 ADD DUP1 SLOAD PUSH1 0xFF NOT AND SWAP2 ISZERO ISZERO SWAP2 SWAP1 SWAP2 OR SWAP1 SSTORE POP PUSH3 0x7C0 SWAP4 POP POP POP POP JUMP JUMPDEST CALLER SWAP1 JUMP JUMPDEST PUSH1 0x5 DUP1 SLOAD PUSH1 0x1 PUSH1 0x1 PUSH1 0xA0 SHL SUB DUP4 DUP2 AND PUSH1 0x1 PUSH1 0x1 PUSH1 0xA0 SHL SUB NOT DUP4 AND DUP2 OR SWAP1 SWAP4 SSTORE PUSH1 0x40 MLOAD SWAP2 AND SWAP2 SWAP1 DUP3 SWAP1 PUSH32 0x8BE0079C531659141344CD1FD0A4F28419497F9722A3DAAFE3B4186F6B6457E0 SWAP1 PUSH1 0x0 SWAP1 LOG3 POP POP JUMP JUMPDEST PUSH1 0x1 PUSH1 0x1 PUSH1 0xA0 SHL SUB DUP3 AND PUSH3 0x1FE JUMPI PUSH1 0x40 MLOAD PUSH3 0x461BCD PUSH1 0xE5 SHL DUP2 MSTORE PUSH1 0x20 PUSH1 0x4 DUP3 ADD MSTORE PUSH1 0x1F PUSH1 0x24 DUP3 ADD MSTORE PUSH32 0x45524332303A206D696E7420746F20746865207A65726F206164647265737300 PUSH1 0x44 DUP3 ADD MSTORE PUSH1 0x64 ADD PUSH1 0x40 MLOAD DUP1 SWAP2 SUB SWAP1 REVERT JUMPDEST DUP1 PUSH1 0x2 PUSH1 0x0 DUP3 DUP3 SLOAD PUSH3 0x212 SWAP2 SWAP1 PUSH3 0x7AA JUMP JUMPDEST SWAP1 SWAP2 SSTORE POP POP PUSH1 0x1 PUSH1 0x1 PUSH1 0xA0 SHL SUB DUP3 AND PUSH1 0x0 DUP2 DUP2 MSTORE PUSH1 0x20 DUP2 DUP2 MSTORE PUSH1 0x40 DUP1 DUP4 KECCAK256 DUP1 SLOAD DUP7 ADD SWAP1 SSTORE MLOAD DUP5 DUP2 MSTORE PUSH32 0xDDF252AD1BE2C89B69C2B068FC378DAA952BA7F163C4A11628F55A4DF523B3EF SWAP2 ADD PUSH1 0x40 MLOAD DUP1 SWAP2 SUB SWAP1 LOG3 POP POP JUMP JUMPDEST POP POP POP JUMP JUMPDEST PUSH4 0x4E487B71 PUSH1 0xE0 SHL PUSH1 0x0 MSTORE PUSH1 0x41 PUSH1 0x4 MSTORE PUSH1 0x24 PUSH1 0x0 REVERT JUMPDEST PUSH1 0x40 MLOAD PUSH2 0x100 DUP2 ADD PUSH1 0x1 PUSH1 0x1 PUSH1 0x40 SHL SUB DUP2 GT DUP3 DUP3 LT OR ISZERO PUSH3 0x2AA JUMPI PUSH3 0x2AA PUSH3 0x26E JUMP JUMPDEST PUSH1 0x40 MSTORE SWAP1 JUMP JUMPDEST PUSH1 0x40 MLOAD PUSH1 0x1F DUP3 ADD PUSH1 0x1F NOT AND DUP2 ADD PUSH1 0x1 PUSH1 0x1 PUSH1 0x40 SHL SUB DUP2 GT DUP3 DUP3 LT OR ISZERO PUSH3 0x2DB JUMPI PUSH3 0x2DB PUSH3 0x26E JUMP JUMPDEST PUSH1 0x40 MSTORE SWAP2 SWAP1 POP JUMP JUMPDEST PUSH1 0x0 DUP3 PUSH1 0x1F DUP4 ADD SLT PUSH3 0x2F5 JUMPI PUSH1 0x0 DUP1 REVERT JUMPDEST DUP2 MLOAD PUSH1 0x1 PUSH1 0x1 PUSH1 0x40 SHL SUB DUP2 GT ISZERO PUSH3 0x311 JUMPI PUSH3 0x311 PUSH3 0x26E JUMP JUMPDEST PUSH1 0x20 PUSH3 0x327 PUSH1 0x1F DUP4 ADD PUSH1 0x1F NOT AND DUP3 ADD PUSH3 0x2B0 JUMP JUMPDEST DUP3 DUP2 MSTORE DUP6 DUP3 DUP5 DUP8 ADD ADD GT ISZERO PUSH3 0x33C JUMPI PUSH1 0x0 DUP1 REVERT JUMPDEST PUSH1 0x0 JUMPDEST DUP4 DUP2 LT ISZERO PUSH3 0x35C JUMPI DUP6 DUP2 ADD DUP4 ADD MLOAD DUP3 DUP3 ADD DUP5 ADD MSTORE DUP3 ADD PUSH3 0x33F JUMP JUMPDEST POP PUSH1 0x0 SWAP3 DUP2 ADD SWAP1 SWAP2 ADD SWAP2 SWAP1 SWAP2 MSTORE SWAP4 SWAP3 POP POP POP JUMP JUMPDEST DUP1 MLOAD DUP1 ISZERO ISZERO DUP2 EQ PUSH3 0x381 JUMPI PUSH1 0x0 DUP1 REVERT JUMPDEST SWAP2 SWAP1 POP JUMP JUMPDEST PUSH1 0x0 DUP1 PUSH1 0x0 DUP1 PUSH1 0x0 PUSH1 0xA0 DUP7 DUP9 SUB SLT ISZERO PUSH3 0x39F JUMPI PUSH1 0x0 DUP1 REVERT JUMPDEST DUP6 MLOAD PUSH1 0x1 PUSH1 0x1 PUSH1 0x40 SHL SUB DUP1 DUP3 GT ISZERO PUSH3 0x3B7 JUMPI PUSH1 0x0 DUP1 REVERT JUMPDEST PUSH3 0x3C5 DUP10 DUP4 DUP11 ADD PUSH3 0x2E3 JUMP JUMPDEST SWAP7 POP PUSH1 0x20 DUP9 ADD MLOAD SWAP2 POP DUP1 DUP3 GT ISZERO PUSH3 0x3DC JUMPI PUSH1 0x0 DUP1 REVERT JUMPDEST PUSH3 0x3EA DUP10 DUP4 DUP11 ADD PUSH3 0x2E3 JUMP JUMPDEST SWAP6 POP PUSH1 0x40 DUP9 ADD MLOAD SWAP5 POP PUSH1 0x60 DUP9 ADD MLOAD SWAP4 POP PUSH1 0x80 DUP9 ADD MLOAD SWAP2 POP DUP1 DUP3 GT ISZERO PUSH3 0x40F JUMPI PUSH1 0x0 DUP1 REVERT JUMPDEST SWAP1 DUP8 ADD SWAP1 PUSH2 0x100 DUP3 DUP11 SUB SLT ISZERO PUSH3 0x425 JUMPI PUSH1 0x0 DUP1 REVERT JUMPDEST PUSH3 0x42F PUSH3 0x284 JUMP JUMPDEST DUP3 MLOAD DUP3 DUP2 GT ISZERO PUSH3 0x43F JUMPI PUSH1 0x0 DUP1 REVERT JUMPDEST PUSH3 0x44D DUP12 DUP3 DUP7 ADD PUSH3 0x2E3 JUMP JUMPDEST DUP3 MSTORE POP PUSH1 0x20 DUP4 ADD MLOAD DUP3 DUP2 GT ISZERO PUSH3 0x463 JUMPI PUSH1 0x0 DUP1 REVERT JUMPDEST PUSH3 0x471 DUP12 DUP3 DUP7 ADD PUSH3 0x2E3 JUMP JUMPDEST PUSH1 0x20 DUP4 ADD MSTORE POP PUSH1 0x40 DUP4 ADD MLOAD DUP3 DUP2 GT ISZERO PUSH3 0x48A JUMPI PUSH1 0x0 DUP1 REVERT JUMPDEST PUSH3 0x498 DUP12 DUP3 DUP7 ADD PUSH3 0x2E3 JUMP JUMPDEST PUSH1 0x40 DUP4 ADD MSTORE POP PUSH1 0x60 DUP4 ADD MLOAD PUSH1 0x60 DUP3 ADD MSTORE PUSH1 0x80 DUP4 ADD MLOAD PUSH1 0x80 DUP3 ADD MSTORE PUSH1 0xA0 DUP4 ADD MLOAD PUSH1 0xA0 DUP3 ADD MSTORE PUSH1 0xC0 DUP4 ADD MLOAD PUSH1 0xC0 DUP3 ADD MSTORE PUSH3 0x4D4 PUSH1 0xE0 DUP5 ADD PUSH3 0x370 JUMP JUMPDEST PUSH1 0xE0 DUP3 ADD MSTORE DUP1 SWAP4 POP POP POP POP SWAP3 SWAP6 POP SWAP3 SWAP6 SWAP1 SWAP4 POP JUMP JUMPDEST PUSH1 0x1 DUP2 DUP2 SHR SWAP1 DUP3 AND DUP1 PUSH3 0x4FE JUMPI PUSH1 0x7F DUP3 AND SWAP2 POP JUMPDEST PUSH1 0x20 DUP3 LT DUP2 SUB PUSH3 0x51F JUMPI PUSH4 0x4E487B71 PUSH1 0xE0 SHL PUSH1 0x0 MSTORE PUSH1 0x22 PUSH1 0x4 MSTORE PUSH1 0x24 PUSH1 0x0 REVERT JUMPDEST POP SWAP2 SWAP1 POP JUMP JUMPDEST PUSH1 0x1F DUP3 GT ISZERO PUSH3 0x269 JUMPI PUSH1 0x0 DUP2 DUP2 MSTORE PUSH1 0x20 DUP2 KECCAK256 PUSH1 0x1F DUP6 ADD PUSH1 0x5 SHR DUP2 ADD PUSH1 0x20 DUP7 LT ISZERO PUSH3 0x54E JUMPI POP DUP1 JUMPDEST PUSH1 0x1F DUP6 ADD PUSH1 0x5 SHR DUP3 ADD SWAP2 POP JUMPDEST DUP2 DUP2 LT ISZERO PUSH3 0x56F JUMPI DUP3 DUP2 SSTORE PUSH1 0x1 ADD PUSH3 0x55A JUMP JUMPDEST POP POP POP POP POP POP JUMP JUMPDEST DUP2 MLOAD PUSH1 0x1 PUSH1 0x1 PUSH1 0x40 SHL SUB DUP2 GT ISZERO PUSH3 0x593 JUMPI PUSH3 0x593 PUSH3 0x26E JUMP JUMPDEST PUSH3 0x5AB DUP2 PUSH3 0x5A4 DUP5 SLOAD PUSH3 0x4E9 JUMP JUMPDEST DUP5 PUSH3 0x525 JUMP JUMPDEST PUSH1 0x20 DUP1 PUSH1 0x1F DUP4 GT PUSH1 0x1 DUP2 EQ PUSH3 0x5E3 JUMPI PUSH1 0x0 DUP5 ISZERO PUSH3 0x5CA JUMPI POP DUP6 DUP4 ADD MLOAD JUMPDEST PUSH1 0x0 NOT PUSH1 0x3 DUP7 SWAP1 SHL SHR NOT AND PUSH1 0x1 DUP6 SWAP1 SHL OR DUP6 SSTORE PUSH3 0x56F JUMP JUMPDEST PUSH1 0x0 DUP6 DUP2 MSTORE PUSH1 0x20 DUP2 KECCAK256 PUSH1 0x1F NOT DUP7 AND SWAP2 JUMPDEST DUP3 DUP2 LT ISZERO PUSH3 0x614 JUMPI DUP9 DUP7 ADD MLOAD DUP3 SSTORE SWAP5 DUP5 ADD SWAP5 PUSH1 0x1 SWAP1 SWAP2 ADD SWAP1 DUP5 ADD PUSH3 0x5F3 JUMP JUMPDEST POP DUP6 DUP3 LT ISZERO PUSH3 0x633 JUMPI DUP8 DUP6 ADD MLOAD PUSH1 0x0 NOT PUSH1 0x3 DUP9 SWAP1 SHL PUSH1 0xF8 AND SHR NOT AND DUP2 SSTORE JUMPDEST POP POP POP POP POP PUSH1 0x1 SWAP1 DUP2 SHL ADD SWAP1 SSTORE POP JUMP JUMPDEST PUSH4 0x4E487B71 PUSH1 0xE0 SHL PUSH1 0x0 MSTORE PUSH1 0x11 PUSH1 0x4 MSTORE PUSH1 0x24 PUSH1 0x0 REVERT JUMPDEST PUSH1 0x1 DUP2 DUP2 JUMPDEST DUP1 DUP6 GT ISZERO PUSH3 0x69A JUMPI DUP2 PUSH1 0x0 NOT DIV DUP3 GT ISZERO PUSH3 0x67E JUMPI PUSH3 0x67E PUSH3 0x643 JUMP JUMPDEST DUP1 DUP6 AND ISZERO PUSH3 0x68C JUMPI SWAP2 DUP2 MUL SWAP2 JUMPDEST SWAP4 DUP5 SHR SWAP4 SWAP1 DUP1 MUL SWAP1 PUSH3 0x65E JUMP JUMPDEST POP SWAP3 POP SWAP3 SWAP1 POP JUMP JUMPDEST PUSH1 0x0 DUP3 PUSH3 0x6B3 JUMPI POP PUSH1 0x1 PUSH3 0x752 JUMP JUMPDEST DUP2 PUSH3 0x6C2 JUMPI POP PUSH1 0x0 PUSH3 0x752 JUMP JUMPDEST DUP2 PUSH1 0x1 DUP2 EQ PUSH3 0x6DB JUMPI PUSH1 0x2 DUP2 EQ PUSH3 0x6E6 JUMPI PUSH3 0x706 JUMP JUMPDEST PUSH1 0x1 SWAP2 POP POP PUSH3 0x752 JUMP JUMPDEST PUSH1 0xFF DUP5 GT ISZERO PUSH3 0x6FA JUMPI PUSH3 0x6FA PUSH3 0x643 JUMP JUMPDEST POP POP PUSH1 0x1 DUP3 SHL PUSH3 0x752 JUMP JUMPDEST POP PUSH1 0x20 DUP4 LT PUSH2 0x133 DUP4 LT AND PUSH1 0x4E DUP5 LT PUSH1 0xB DUP5 LT AND OR ISZERO PUSH3 0x72B JUMPI POP DUP2 DUP2 EXP PUSH3 0x752 JUMP JUMPDEST PUSH3 0x737 DUP4 DUP4 PUSH3 0x659 JUMP JUMPDEST DUP1 PUSH1 0x0 NOT DIV DUP3 GT ISZERO PUSH3 0x74E JUMPI PUSH3 0x74E PUSH3 0x643 JUMP JUMPDEST MUL SWAP1 POP JUMPDEST SWAP3 SWAP2 POP POP JUMP JUMPDEST PUSH1 0x0 PUSH3 0x766 DUP4 DUP4 PUSH3 0x6A2 JUMP JUMPDEST SWAP4 SWAP3 POP POP POP JUMP JUMPDEST DUP1 DUP3 MUL DUP2 ISZERO DUP3 DUP3 DIV DUP5 EQ OR PUSH3 0x752 JUMPI PUSH3 0x752 PUSH3 0x643 JUMP JUMPDEST PUSH1 0x0 DUP3 PUSH3 0x7A5 JUMPI PUSH4 0x4E487B71 PUSH1 0xE0 SHL PUSH1 0x0 MSTORE PUSH1 0x12 PUSH1 0x4 MSTORE PUSH1 0x24 PUSH1 0x0 REVERT JUMPDEST POP DIV SWAP1 JUMP JUMPDEST DUP1 DUP3 ADD DUP1 DUP3 GT ISZERO PUSH3 0x752 JUMPI PUSH3 0x752 PUSH3 0x643 JUMP JUMPDEST PUSH2 0x1E26 DUP1 PUSH3 0x7D0 PUSH1 0x0 CODECOPY PUSH1 0x0 RETURN INVALID PUSH1 0x80 PUSH1 0x40 MSTORE PUSH1 0x4 CALLDATASIZE LT PUSH2 0x1ED JUMPI PUSH1 0x0 CALLDATALOAD PUSH1 0xE0 SHR DUP1 PUSH4 0x5DE5F3BE GT PUSH2 0x10D JUMPI DUP1 PUSH4 0xA457C2D7 GT PUSH2 0xA0 JUMPI DUP1 PUSH4 0xBEC3FA17 GT PUSH2 0x6F JUMPI DUP1 PUSH4 0xBEC3FA17 EQ PUSH2 0x59C JUMPI DUP1 PUSH4 0xD7FAC34B EQ PUSH2 0x5BC JUMPI DUP1 PUSH4 0xDD62ED3E EQ PUSH2 0x5D2 JUMPI DUP1 PUSH4 0xE20993BC EQ PUSH2 0x5F2 JUMPI DUP1 PUSH4 0xF2FDE38B EQ PUSH2 0x612 JUMPI PUSH1 0x0 DUP1 REVERT JUMPDEST DUP1 PUSH4 0xA457C2D7 EQ PUSH2 0x4FF JUMPI DUP1 PUSH4 0xA5410A66 EQ PUSH2 0x51F JUMPI DUP1 PUSH4 0xA9059CBB EQ PUSH2 0x54F JUMPI DUP1 PUSH4 0xAD4222C7 EQ PUSH2 0x56F JUMPI PUSH1 0x0 DUP1 REVERT JUMPDEST DUP1 PUSH4 0x7B97008D GT PUSH2 0xDC JUMPI DUP1 PUSH4 0x7B97008D EQ PUSH2 0x4A4 JUMPI DUP1 PUSH4 0x8456CB59 EQ PUSH2 0x4B7 JUMPI DUP1 PUSH4 0x8DA5CB5B EQ PUSH2 0x4CC JUMPI DUP1 PUSH4 0x95D89B41 EQ PUSH2 0x4EA JUMPI PUSH1 0x0 DUP1 REVERT JUMPDEST DUP1 PUSH4 0x5DE5F3BE EQ PUSH2 0x421 JUMPI DUP1 PUSH4 0x70A08231 EQ PUSH2 0x443 JUMPI DUP1 PUSH4 0x715018A6 EQ PUSH2 0x479 JUMPI DUP1 PUSH4 0x7B1B1DE6 EQ PUSH2 0x48E JUMPI PUSH1 0x0 DUP1 REVERT JUMPDEST DUP1 PUSH4 0x2E0F2625 GT PUSH2 0x185 JUMPI DUP1 PUSH4 0x3FEB5F2B GT PUSH2 0x154 JUMPI DUP1 PUSH4 0x3FEB5F2B EQ PUSH2 0x37D JUMPI DUP1 PUSH4 0x41A03968 EQ PUSH2 0x3B5 JUMPI DUP1 PUSH4 0x53DF9D76 EQ PUSH2 0x3E2 JUMPI DUP1 PUSH4 0x5C975ABB EQ PUSH2 0x402 JUMPI PUSH1 0x0 DUP1 REVERT JUMPDEST DUP1 PUSH4 0x2E0F2625 EQ PUSH2 0x317 JUMPI DUP1 PUSH4 0x313CE567 EQ PUSH2 0x32C JUMPI DUP1 PUSH4 0x39509351 EQ PUSH2 0x348 JUMPI DUP1 PUSH4 0x3F4BA83A EQ PUSH2 0x368 JUMPI PUSH1 0x0 DUP1 REVERT JUMPDEST DUP1 PUSH4 0x18160DDD GT PUSH2 0x1C1 JUMPI DUP1 PUSH4 0x18160DDD EQ PUSH2 0x2B8 JUMPI DUP1 PUSH4 0x23B872DD EQ PUSH2 0x2D7 JUMPI DUP1 PUSH4 0x29B8CAFF EQ PUSH2 0x2F7 JUMPI DUP1 PUSH4 0x2D07953A EQ PUSH2 0x30D JUMPI PUSH1 0x0 DUP1 REVERT JUMPDEST DUP1 PUSH3 0x7DC372 EQ PUSH2 0x1F2 JUMPI DUP1 PUSH4 0x6FDDE03 EQ PUSH2 0x224 JUMPI DUP1 PUSH4 0x707873C EQ PUSH2 0x246 JUMPI DUP1 PUSH4 0x95EA7B3 EQ PUSH2 0x288 JUMPI JUMPDEST PUSH1 0x0 DUP1 REVERT JUMPDEST CALLVALUE DUP1 ISZERO PUSH2 0x1FE JUMPI PUSH1 0x0 DUP1 REVERT JUMPDEST POP PUSH2 0x207 PUSH2 0x632 JUMP JUMPDEST PUSH1 0x40 MLOAD PUSH2 0x21B SWAP9 SWAP8 SWAP7 SWAP6 SWAP5 SWAP4 SWAP3 SWAP2 SWAP1 PUSH2 0x1923 JUMP JUMPDEST PUSH1 0x40 MLOAD DUP1 SWAP2 SUB SWAP1 RETURN JUMPDEST CALLVALUE DUP1 ISZERO PUSH2 0x230 JUMPI PUSH1 0x0 DUP1 REVERT JUMPDEST POP PUSH2 0x239 PUSH2 0x802 JUMP JUMPDEST PUSH1 0x40 MLOAD PUSH2 0x21B SWAP2 SWAP1 PUSH2 0x198D JUMP JUMPDEST CALLVALUE DUP1 ISZERO PUSH2 0x252 JUMPI PUSH1 0x0 DUP1 REVERT JUMPDEST POP PUSH2 0x266 PUSH2 0x261 CALLDATASIZE PUSH1 0x4 PUSH2 0x19C3 JUMP JUMPDEST PUSH2 0x894 JUMP JUMPDEST PUSH1 0x40 DUP1 MLOAD SWAP5 DUP6 MSTORE PUSH1 0x20 DUP6 ADD SWAP4 SWAP1 SWAP4 MSTORE SWAP2 DUP4 ADD MSTORE ISZERO ISZERO PUSH1 0x60 DUP3 ADD MSTORE PUSH1 0x80 ADD PUSH2 0x21B JUMP JUMPDEST CALLVALUE DUP1 ISZERO PUSH2 0x294 JUMPI PUSH1 0x0 DUP1 REVERT JUMPDEST POP PUSH2 0x2A8 PUSH2 0x2A3 CALLDATASIZE PUSH1 0x4 PUSH2 0x19DE JUMP JUMPDEST PUSH2 0x8F8 JUMP JUMPDEST PUSH1 0x40 MLOAD SWAP1 ISZERO ISZERO DUP2 MSTORE PUSH1 0x20 ADD PUSH2 0x21B JUMP JUMPDEST CALLVALUE DUP1 ISZERO PUSH2 0x2C4 JUMPI PUSH1 0x0 DUP1 REVERT JUMPDEST POP PUSH1 0x2 SLOAD JUMPDEST PUSH1 0x40 MLOAD SWAP1 DUP2 MSTORE PUSH1 0x20 ADD PUSH2 0x21B JUMP JUMPDEST CALLVALUE DUP1 ISZERO PUSH2 0x2E3 JUMPI PUSH1 0x0 DUP1 REVERT JUMPDEST POP PUSH2 0x2A8 PUSH2 0x2F2 CALLDATASIZE PUSH1 0x4 PUSH2 0x1A08 JUMP JUMPDEST PUSH2 0x912 JUMP JUMPDEST CALLVALUE DUP1 ISZERO PUSH2 0x303 JUMPI PUSH1 0x0 DUP1 REVERT JUMPDEST POP PUSH2 0x2C9 PUSH1 0x15 SLOAD DUP2 JUMP JUMPDEST PUSH2 0x315 PUSH2 0x936 JUMP JUMPDEST STOP JUMPDEST CALLVALUE DUP1 ISZERO PUSH2 0x323 JUMPI PUSH1 0x0 DUP1 REVERT JUMPDEST POP PUSH2 0x2C9 PUSH1 0x8 DUP2 JUMP JUMPDEST CALLVALUE DUP1 ISZERO PUSH2 0x338 JUMPI PUSH1 0x0 DUP1 REVERT JUMPDEST POP PUSH1 0x40 MLOAD PUSH1 0x12 DUP2 MSTORE PUSH1 0x20 ADD PUSH2 0x21B JUMP JUMPDEST CALLVALUE DUP1 ISZERO PUSH2 0x354 JUMPI PUSH1 0x0 DUP1 REVERT JUMPDEST POP PUSH2 0x2A8 PUSH2 0x363 CALLDATASIZE PUSH1 0x4 PUSH2 0x19DE JUMP JUMPDEST PUSH2 0xAB6 JUMP JUMPDEST CALLVALUE DUP1 ISZERO PUSH2 0x374 JUMPI PUSH1 0x0 DUP1 REVERT JUMPDEST POP PUSH2 0x315 PUSH2 0xAD8 JUMP JUMPDEST CALLVALUE DUP1 ISZERO PUSH2 0x389 JUMPI PUSH1 0x0 DUP1 REVERT JUMPDEST POP PUSH2 0x39D PUSH2 0x398 CALLDATASIZE PUSH1 0x4 PUSH2 0x1A44 JUMP JUMPDEST PUSH2 0xAEA JUMP JUMPDEST PUSH1 0x40 MLOAD PUSH1 0x1 PUSH1 0x1 PUSH1 0xA0 SHL SUB SWAP1 SWAP2 AND DUP2 MSTORE PUSH1 0x20 ADD PUSH2 0x21B JUMP JUMPDEST CALLVALUE DUP1 ISZERO PUSH2 0x3C1 JUMPI PUSH1 0x0 DUP1 REVERT JUMPDEST POP PUSH2 0x2C9 PUSH2 0x3D0 CALLDATASIZE PUSH1 0x4 PUSH2 0x19C3 JUMP JUMPDEST PUSH1 0x12 PUSH1 0x20 MSTORE PUSH1 0x0 SWAP1 DUP2 MSTORE PUSH1 0x40 SWAP1 KECCAK256 SLOAD DUP2 JUMP JUMPDEST CALLVALUE DUP1 ISZERO PUSH2 0x3EE JUMPI PUSH1 0x0 DUP1 REVERT JUMPDEST POP PUSH2 0x315 PUSH2 0x3FD CALLDATASIZE PUSH1 0x4 PUSH2 0x1A5D JUMP JUMPDEST PUSH2 0xB14 JUMP JUMPDEST CALLVALUE DUP1 ISZERO PUSH2 0x40E JUMPI PUSH1 0x0 DUP1 REVERT JUMPDEST POP PUSH1 0x5 SLOAD PUSH1 0x1 PUSH1 0xA0 SHL SWAP1 DIV PUSH1 0xFF AND PUSH2 0x2A8 JUMP JUMPDEST CALLVALUE DUP1 ISZERO PUSH2 0x42D JUMPI PUSH1 0x0 DUP1 REVERT JUMPDEST POP PUSH2 0x436 PUSH2 0xB7B JUMP JUMPDEST PUSH1 0x40 MLOAD PUSH2 0x21B SWAP2 SWAP1 PUSH2 0x1A99 JUMP JUMPDEST CALLVALUE DUP1 ISZERO PUSH2 0x44F JUMPI PUSH1 0x0 DUP1 REVERT JUMPDEST POP PUSH2 0x2C9 PUSH2 0x45E CALLDATASIZE PUSH1 0x4 PUSH2 0x19C3 JUMP JUMPDEST PUSH1 0x1 PUSH1 0x1 PUSH1 0xA0 SHL SUB AND PUSH1 0x0 SWAP1 DUP2 MSTORE PUSH1 0x20 DUP2 SWAP1 MSTORE PUSH1 0x40 SWAP1 KECCAK256 SLOAD SWAP1 JUMP JUMPDEST CALLVALUE DUP1 ISZERO PUSH2 0x485 JUMPI PUSH1 0x0 DUP1 REVERT JUMPDEST POP PUSH2 0x315 PUSH2 0xDC6 JUMP JUMPDEST CALLVALUE DUP1 ISZERO PUSH2 0x49A JUMPI PUSH1 0x0 DUP1 REVERT JUMPDEST POP PUSH2 0x2C9 PUSH1 0x10 SLOAD DUP2 JUMP JUMPDEST PUSH2 0x315 PUSH2 0x4B2 CALLDATASIZE PUSH1 0x4 PUSH2 0x1A44 JUMP JUMPDEST PUSH2 0xDD8 JUMP JUMPDEST CALLVALUE DUP1 ISZERO PUSH2 0x4C3 JUMPI PUSH1 0x0 DUP1 REVERT JUMPDEST POP PUSH2 0x315 PUSH2 0x10D4 JUMP JUMPDEST CALLVALUE DUP1 ISZERO PUSH2 0x4D8 JUMPI PUSH1 0x0 DUP1 REVERT JUMPDEST POP PUSH1 0x5 SLOAD PUSH1 0x1 PUSH1 0x1 PUSH1 0xA0 SHL SUB AND PUSH2 0x39D JUMP JUMPDEST CALLVALUE DUP1 ISZERO PUSH2 0x4F6 JUMPI PUSH1 0x0 DUP1 REVERT JUMPDEST POP PUSH2 0x239 PUSH2 0x10E4 JUMP JUMPDEST CALLVALUE DUP1 ISZERO PUSH2 0x50B JUMPI PUSH1 0x0 DUP1 REVERT JUMPDEST POP PUSH2 0x2A8 PUSH2 0x51A CALLDATASIZE PUSH1 0x4 PUSH2 0x19DE JUMP JUMPDEST PUSH2 0x10F3 JUMP JUMPDEST CALLVALUE DUP1 ISZERO PUSH2 0x52B JUMPI PUSH1 0x0 DUP1 REVERT JUMPDEST POP PUSH2 0x2A8 PUSH2 0x53A CALLDATASIZE PUSH1 0x4 PUSH2 0x19C3 JUMP JUMPDEST PUSH1 0x13 PUSH1 0x20 MSTORE PUSH1 0x0 SWAP1 DUP2 MSTORE PUSH1 0x40 SWAP1 KECCAK256 SLOAD PUSH1 0xFF AND DUP2 JUMP JUMPDEST CALLVALUE DUP1 ISZERO PUSH2 0x55B JUMPI PUSH1 0x0 DUP1 REVERT JUMPDEST POP PUSH2 0x2A8 PUSH2 0x56A CALLDATASIZE PUSH1 0x4 PUSH2 0x19DE JUMP JUMPDEST PUSH2 0x116E JUMP JUMPDEST CALLVALUE DUP1 ISZERO PUSH2 0x57B JUMPI PUSH1 0x0 DUP1 REVERT JUMPDEST POP PUSH2 0x2C9 PUSH2 0x58A CALLDATASIZE PUSH1 0x4 PUSH2 0x19C3 JUMP JUMPDEST PUSH1 0x11 PUSH1 0x20 MSTORE PUSH1 0x0 SWAP1 DUP2 MSTORE PUSH1 0x40 SWAP1 KECCAK256 SLOAD DUP2 JUMP JUMPDEST CALLVALUE DUP1 ISZERO PUSH2 0x5A8 JUMPI PUSH1 0x0 DUP1 REVERT JUMPDEST POP PUSH2 0x315 PUSH2 0x5B7 CALLDATASIZE PUSH1 0x4 PUSH2 0x19DE JUMP JUMPDEST PUSH2 0x117C JUMP JUMPDEST CALLVALUE DUP1 ISZERO PUSH2 0x5C8 JUMPI PUSH1 0x0 DUP1 REVERT JUMPDEST POP PUSH2 0x2C9 PUSH1 0xF SLOAD DUP2 JUMP JUMPDEST CALLVALUE DUP1 ISZERO PUSH2 0x5DE JUMPI PUSH1 0x0 DUP1 REVERT JUMPDEST POP PUSH2 0x2C9 PUSH2 0x5ED CALLDATASIZE PUSH1 0x4 PUSH2 0x1B3B JUMP JUMPDEST PUSH2 0x125A JUMP JUMPDEST CALLVALUE DUP1 ISZERO PUSH2 0x5FE JUMPI PUSH1 0x0 DUP1 REVERT JUMPDEST POP PUSH2 0x315 PUSH2 0x60D CALLDATASIZE PUSH1 0x4 PUSH2 0x1A44 JUMP JUMPDEST PUSH2 0x1285 JUMP JUMPDEST CALLVALUE DUP1 ISZERO PUSH2 0x61E JUMPI PUSH1 0x0 DUP1 REVERT JUMPDEST POP PUSH2 0x315 PUSH2 0x62D CALLDATASIZE PUSH1 0x4 PUSH2 0x19C3 JUMP JUMPDEST PUSH2 0x12EB JUMP JUMPDEST PUSH1 0x7 DUP1 SLOAD DUP2 SWAP1 PUSH2 0x641 SWAP1 PUSH2 0x1B6E JUMP JUMPDEST DUP1 PUSH1 0x1F ADD PUSH1 0x20 DUP1 SWAP2 DIV MUL PUSH1 0x20 ADD PUSH1 0x40 MLOAD SWAP1 DUP2 ADD PUSH1 0x40 MSTORE DUP1 SWAP3 SWAP2 SWAP1 DUP2 DUP2 MSTORE PUSH1 0x20 ADD DUP3 DUP1 SLOAD PUSH2 0x66D SWAP1 PUSH2 0x1B6E JUMP JUMPDEST DUP1 ISZERO PUSH2 0x6BA JUMPI DUP1 PUSH1 0x1F LT PUSH2 0x68F JUMPI PUSH2 0x100 DUP1 DUP4 SLOAD DIV MUL DUP4 MSTORE SWAP2 PUSH1 0x20 ADD SWAP2 PUSH2 0x6BA JUMP JUMPDEST DUP3 ADD SWAP2 SWAP1 PUSH1 0x0 MSTORE PUSH1 0x20 PUSH1 0x0 KECCAK256 SWAP1 JUMPDEST DUP2 SLOAD DUP2 MSTORE SWAP1 PUSH1 0x1 ADD SWAP1 PUSH1 0x20 ADD DUP1 DUP4 GT PUSH2 0x69D JUMPI DUP3 SWAP1 SUB PUSH1 0x1F AND DUP3 ADD SWAP2 JUMPDEST POP POP POP POP POP SWAP1 DUP1 PUSH1 0x1 ADD DUP1 SLOAD PUSH2 0x6CF SWAP1 PUSH2 0x1B6E JUMP JUMPDEST DUP1 PUSH1 0x1F ADD PUSH1 0x20 DUP1 SWAP2 DIV MUL PUSH1 0x20 ADD PUSH1 0x40 MLOAD SWAP1 DUP2 ADD PUSH1 0x40 MSTORE DUP1 SWAP3 SWAP2 SWAP1 DUP2 DUP2 MSTORE PUSH1 0x20 ADD DUP3 DUP1 SLOAD PUSH2 0x6FB SWAP1 PUSH2 0x1B6E JUMP JUMPDEST DUP1 ISZERO PUSH2 0x748 JUMPI DUP1 PUSH1 0x1F LT PUSH2 0x71D JUMPI PUSH2 0x100 DUP1 DUP4 SLOAD DIV MUL DUP4 MSTORE SWAP2 PUSH1 0x20 ADD SWAP2 PUSH2 0x748 JUMP JUMPDEST DUP3 ADD SWAP2 SWAP1 PUSH1 0x0 MSTORE PUSH1 0x20 PUSH1 0x0 KECCAK256 SWAP1 JUMPDEST DUP2 SLOAD DUP2 MSTORE SWAP1 PUSH1 0x1 ADD SWAP1 PUSH1 0x20 ADD DUP1 DUP4 GT PUSH2 0x72B JUMPI DUP3 SWAP1 SUB PUSH1 0x1F AND DUP3 ADD SWAP2 JUMPDEST POP POP POP POP POP SWAP1 DUP1 PUSH1 0x2 ADD DUP1 SLOAD PUSH2 0x75D SWAP1 PUSH2 0x1B6E JUMP JUMPDEST DUP1 PUSH1 0x1F ADD PUSH1 0x20 DUP1 SWAP2 DIV MUL PUSH1 0x20 ADD PUSH1 0x40 MLOAD SWAP1 DUP2 ADD PUSH1 0x40 MSTORE DUP1 SWAP3 SWAP2 SWAP1 DUP2 DUP2 MSTORE PUSH1 0x20 ADD DUP3 DUP1 SLOAD PUSH2 0x789 SWAP1 PUSH2 0x1B6E JUMP JUMPDEST DUP1 ISZERO PUSH2 0x7D6 JUMPI DUP1 PUSH1 0x1F LT PUSH2 0x7AB JUMPI PUSH2 0x100 DUP1 DUP4 SLOAD DIV MUL DUP4 MSTORE SWAP2 PUSH1 0x20 ADD SWAP2 PUSH2 0x7D6 JUMP JUMPDEST DUP3 ADD SWAP2 SWAP1 PUSH1 0x0 MSTORE PUSH1 0x20 PUSH1 0x0 KECCAK256 SWAP1 JUMPDEST DUP2 SLOAD DUP2 MSTORE SWAP1 PUSH1 0x1 ADD SWAP1 PUSH1 0x20 ADD DUP1 DUP4 GT PUSH2 0x7B9 JUMPI DUP3 SWAP1 SUB PUSH1 0x1F AND DUP3 ADD SWAP2 JUMPDEST POP POP POP PUSH1 0x3 DUP5 ADD SLOAD PUSH1 0x4 DUP6 ADD SLOAD PUSH1 0x5 DUP7 ADD SLOAD PUSH1 0x6 DUP8 ADD SLOAD PUSH1 0x7 SWAP1 SWAP8 ADD SLOAD SWAP6 SWAP7 SWAP3 SWAP6 SWAP2 SWAP5 POP SWAP3 POP PUSH1 0xFF AND DUP9 JUMP JUMPDEST PUSH1 0x60 PUSH1 0x3 DUP1 SLOAD PUSH2 0x811 SWAP1 PUSH2 0x1B6E JUMP JUMPDEST DUP1 PUSH1 0x1F ADD PUSH1 0x20 DUP1 SWAP2 DIV MUL PUSH1 0x20 ADD PUSH1 0x40 MLOAD SWAP1 DUP2 ADD PUSH1 0x40 MSTORE DUP1 SWAP3 SWAP2 SWAP1 DUP2 DUP2 MSTORE PUSH1 0x20 ADD DUP3 DUP1 SLOAD PUSH2 0x83D SWAP1 PUSH2 0x1B6E JUMP JUMPDEST DUP1 ISZERO PUSH2 0x88A JUMPI DUP1 PUSH1 0x1F LT PUSH2 0x85F JUMPI PUSH2 0x100 DUP1 DUP4 SLOAD DIV MUL DUP4 MSTORE SWAP2 PUSH1 0x20 ADD SWAP2 PUSH2 0x88A JUMP JUMPDEST DUP3 ADD SWAP2 SWAP1 PUSH1 0x0 MSTORE PUSH1 0x20 PUSH1 0x0 KECCAK256 SWAP1 JUMPDEST DUP2 SLOAD DUP2 MSTORE SWAP1 PUSH1 0x1 ADD SWAP1 PUSH1 0x20 ADD DUP1 DUP4 GT PUSH2 0x86D JUMPI DUP3 SWAP1 SUB PUSH1 0x1F AND DUP3 ADD SWAP2 JUMPDEST POP POP POP POP POP SWAP1 POP SWAP1 JUMP JUMPDEST PUSH1 0x0 DUP1 PUSH1 0x0 DUP1 PUSH2 0x8B9 DUP6 PUSH1 0x1 PUSH1 0x1 PUSH1 0xA0 SHL SUB AND PUSH1 0x0 SWAP1 DUP2 MSTORE PUSH1 0x20 DUP2 SWAP1 MSTORE PUSH1 0x40 SWAP1 KECCAK256 SLOAD SWAP1 JUMP JUMPDEST PUSH1 0x1 PUSH1 0x1 PUSH1 0xA0 SHL SUB SWAP6 SWAP1 SWAP6 AND PUSH1 0x0 SWAP1 DUP2 MSTORE PUSH1 0x11 PUSH1 0x20 SWAP1 DUP2 MSTORE PUSH1 0x40 DUP1 DUP4 KECCAK256 SLOAD PUSH1 0x12 DUP4 MSTORE DUP2 DUP5 KECCAK256 SLOAD PUSH1 0x13 SWAP1 SWAP4 MSTORE SWAP3 KECCAK256 SLOAD SWAP7 SWAP8 SWAP2 SWAP7 SWAP1 SWAP6 POP PUSH1 0xFF AND SWAP4 POP SWAP2 POP POP JUMP JUMPDEST PUSH1 0x0 CALLER PUSH2 0x906 DUP2 DUP6 DUP6 PUSH2 0x1361 JUMP JUMPDEST PUSH1 0x1 SWAP2 POP POP JUMPDEST SWAP3 SWAP2 POP POP JUMP JUMPDEST PUSH1 0x0 CALLER PUSH2 0x920 DUP6 DUP3 DUP6 PUSH2 0x1485 JUMP JUMPDEST PUSH2 0x92B DUP6 DUP6 DUP6 PUSH2 0x14FF JUMP JUMPDEST POP PUSH1 0x1 SWAP5 SWAP4 POP POP POP POP JUMP JUMPDEST PUSH2 0x93E PUSH2 0x16A3 JUMP JUMPDEST PUSH1 0x0 CALLVALUE GT PUSH2 0x993 JUMPI PUSH1 0x40 MLOAD PUSH3 0x461BCD PUSH1 0xE5 SHL DUP2 MSTORE PUSH1 0x20 PUSH1 0x4 DUP3 ADD MSTORE PUSH1 0x18 PUSH1 0x24 DUP3 ADD MSTORE PUSH32 0x4E6F20726576656E756520746F20646973747269627574650000000000000000 PUSH1 0x44 DUP3 ADD MSTORE PUSH1 0x64 ADD JUMPDEST PUSH1 0x40 MLOAD DUP1 SWAP2 SUB SWAP1 REVERT JUMPDEST ADDRESS PUSH1 0x0 SWAP1 DUP2 MSTORE PUSH1 0x20 DUP2 SWAP1 MSTORE PUSH1 0x40 DUP2 KECCAK256 SLOAD PUSH1 0x2 SLOAD PUSH2 0x9B0 SWAP2 SWAP1 PUSH2 0x1BBE JUMP JUMPDEST SWAP1 POP PUSH1 0x0 JUMPDEST PUSH1 0x14 SLOAD DUP2 LT ISZERO PUSH2 0xA79 JUMPI PUSH1 0x0 PUSH1 0x14 DUP3 DUP2 SLOAD DUP2 LT PUSH2 0x9D4 JUMPI PUSH2 0x9D4 PUSH2 0x1BD1 JUMP JUMPDEST PUSH1 0x0 SWAP2 DUP3 MSTORE PUSH1 0x20 DUP3 KECCAK256 ADD SLOAD PUSH1 0x1 PUSH1 0x1 PUSH1 0xA0 SHL SUB AND SWAP2 POP PUSH2 0xA09 DUP3 PUSH1 0x1 PUSH1 0x1 PUSH1 0xA0 SHL SUB AND PUSH1 0x0 SWAP1 DUP2 MSTORE PUSH1 0x20 DUP2 SWAP1 MSTORE PUSH1 0x40 SWAP1 KECCAK256 SLOAD SWAP1 JUMP JUMPDEST SWAP1 POP DUP1 ISZERO PUSH2 0xA64 JUMPI PUSH1 0x0 DUP5 PUSH2 0xA1E DUP4 CALLVALUE PUSH2 0x1BE7 JUMP JUMPDEST PUSH2 0xA28 SWAP2 SWAP1 PUSH2 0x1BFE JUMP JUMPDEST PUSH1 0x40 MLOAD SWAP1 SWAP2 POP PUSH1 0x1 PUSH1 0x1 PUSH1 0xA0 SHL SUB DUP5 AND SWAP1 DUP3 ISZERO PUSH2 0x8FC MUL SWAP1 DUP4 SWAP1 PUSH1 0x0 DUP2 DUP2 DUP2 DUP6 DUP9 DUP9 CALL SWAP4 POP POP POP POP ISZERO DUP1 ISZERO PUSH2 0xA61 JUMPI RETURNDATASIZE PUSH1 0x0 DUP1 RETURNDATACOPY RETURNDATASIZE PUSH1 0x0 REVERT JUMPDEST POP POP JUMPDEST POP POP DUP1 DUP1 PUSH2 0xA71 SWAP1 PUSH2 0x1C20 JUMP JUMPDEST SWAP2 POP POP PUSH2 0x9B5 JUMP JUMPDEST POP PUSH1 0x40 DUP1 MLOAD CALLVALUE DUP2 MSTORE TIMESTAMP PUSH1 0x20 DUP3 ADD MSTORE PUSH32 0xF2838E4B541F90D41A1076A560D75E948F7D1008E72118A655568626A30B451F SWAP2 ADD JUMPDEST PUSH1 0x40 MLOAD DUP1 SWAP2 SUB SWAP1 LOG1 POP JUMP JUMPDEST PUSH1 0x0 CALLER PUSH2 0x906 DUP2 DUP6 DUP6 PUSH2 0xAC9 DUP4 DUP4 PUSH2 0x125A JUMP JUMPDEST PUSH2 0xAD3 SWAP2 SWAP1 PUSH2 0x1C39 JUMP JUMPDEST PUSH2 0x1361 JUMP JUMPDEST PUSH2 0xAE0 PUSH2 0x16A3 JUMP JUMPDEST PUSH2 0xAE8 PUSH2 0x16FD JUMP JUMPDEST JUMP JUMPDEST PUSH1 0x14 DUP2 DUP2 SLOAD DUP2 LT PUSH2 0xAFA JUMPI PUSH1 0x0 DUP1 REVERT JUMPDEST PUSH1 0x0 SWAP2 DUP3 MSTORE PUSH1 0x20 SWAP1 SWAP2 KECCAK256 ADD SLOAD PUSH1 0x1 PUSH1 0x1 PUSH1 0xA0 SHL SUB AND SWAP1 POP DUP2 JUMP JUMPDEST PUSH2 0xB1C PUSH2 0x16A3 JUMP JUMPDEST PUSH1 0x1 PUSH1 0x1 PUSH1 0xA0 SHL SUB DUP3 AND PUSH1 0x0 DUP2 DUP2 MSTORE PUSH1 0x13 PUSH1 0x20 SWAP1 DUP2 MSTORE PUSH1 0x40 SWAP2 DUP3 SWAP1 KECCAK256 DUP1 SLOAD PUSH1 0xFF NOT AND DUP6 ISZERO ISZERO SWAP1 DUP2 OR SWAP1 SWAP2 SSTORE SWAP2 MLOAD SWAP2 DUP3 MSTORE PUSH32 0x3654D8650100FA53B8E5DCC6EEEEA45A6069B9832C094245ABBDCD2E7A0DE347 SWAP2 ADD PUSH1 0x40 MLOAD DUP1 SWAP2 SUB SWAP1 LOG2 POP POP JUMP JUMPDEST PUSH2 0xBC5 PUSH1 0x40 MLOAD DUP1 PUSH2 0x100 ADD PUSH1 0x40 MSTORE DUP1 PUSH1 0x60 DUP2 MSTORE PUSH1 0x20 ADD PUSH1 0x60 DUP2 MSTORE PUSH1 0x20 ADD PUSH1 0x60 DUP2 MSTORE PUSH1 0x20 ADD PUSH1 0x0 DUP2 MSTORE PUSH1 0x20 ADD PUSH1 0x0 DUP2 MSTORE PUSH1 0x20 ADD PUSH1 0x0 DUP2 MSTORE PUSH1 0x20 ADD PUSH1 0x0 DUP2 MSTORE PUSH1 0x20 ADD PUSH1 0x0 ISZERO ISZERO DUP2 MSTORE POP SWAP1 JUMP JUMPDEST PUSH1 0x7 PUSH1 0x40 MLOAD DUP1 PUSH2 0x100 ADD PUSH1 0x40 MSTORE SWAP1 DUP2 PUSH1 0x0 DUP3 ADD DUP1 SLOAD PUSH2 0xBE3 SWAP1 PUSH2 0x1B6E JUMP JUMPDEST DUP1 PUSH1 0x1F ADD PUSH1 0x20 DUP1 SWAP2 DIV MUL PUSH1 0x20 ADD PUSH1 0x40 MLOAD SWAP1 DUP2 ADD PUSH1 0x40 MSTORE DUP1 SWAP3 SWAP2 SWAP1 DUP2 DUP2 MSTORE PUSH1 0x20 ADD DUP3 DUP1 SLOAD PUSH2 0xC0F SWAP1 PUSH2 0x1B6E JUMP JUMPDEST DUP1 ISZERO PUSH2 0xC5C JUMPI DUP1 PUSH1 0x1F LT PUSH2 0xC31 JUMPI PUSH2 0x100 DUP1 DUP4 SLOAD DIV MUL DUP4 MSTORE SWAP2 PUSH1 0x20 ADD SWAP2 PUSH2 0xC5C JUMP JUMPDEST DUP3 ADD SWAP2 SWAP1 PUSH1 0x0 MSTORE PUSH1 0x20 PUSH1 0x0 KECCAK256 SWAP1 JUMPDEST DUP2 SLOAD DUP2 MSTORE SWAP1 PUSH1 0x1 ADD SWAP1 PUSH1 0x20 ADD DUP1 DUP4 GT PUSH2 0xC3F JUMPI DUP3 SWAP1 SUB PUSH1 0x1F AND DUP3 ADD SWAP2 JUMPDEST POP POP POP POP POP DUP2 MSTORE PUSH1 0x20 ADD PUSH1 0x1 DUP3 ADD DUP1 SLOAD PUSH2 0xC75 SWAP1 PUSH2 0x1B6E JUMP JUMPDEST DUP1 PUSH1 0x1F ADD PUSH1 0x20 DUP1 SWAP2 DIV MUL PUSH1 0x20 ADD PUSH1 0x40 MLOAD SWAP1 DUP2 ADD PUSH1 0x40 MSTORE DUP1 SWAP3 SWAP2 SWAP1 DUP2 DUP2 MSTORE PUSH1 0x20 ADD DUP3 DUP1 SLOAD PUSH2 0xCA1 SWAP1 PUSH2 0x1B6E JUMP JUMPDEST DUP1 ISZERO PUSH2 0xCEE JUMPI DUP1 PUSH1 0x1F LT PUSH2 0xCC3 JUMPI PUSH2 0x100 DUP1 DUP4 SLOAD DIV MUL DUP4 MSTORE SWAP2 PUSH1 0x20 ADD SWAP2 PUSH2 0xCEE JUMP JUMPDEST DUP3 ADD SWAP2 SWAP1 PUSH1 0x0 MSTORE PUSH1 0x20 PUSH1 0x0 KECCAK256 SWAP1 JUMPDEST DUP2 SLOAD DUP2 MSTORE SWAP1 PUSH1 0x1 ADD SWAP1 PUSH1 0x20 ADD DUP1 DUP4 GT PUSH2 0xCD1 JUMPI DUP3 SWAP1 SUB PUSH1 0x1F AND DUP3 ADD SWAP2 JUMPDEST POP POP POP POP POP DUP2 MSTORE PUSH1 0x20 ADD PUSH1 0x2 DUP3 ADD DUP1 SLOAD PUSH2 0xD07 SWAP1 PUSH2 0x1B6E JUMP JUMPDEST DUP1 PUSH1 0x1F ADD PUSH1 0x20 DUP1 SWAP2 DIV MUL PUSH1 0x20 ADD PUSH1 0x40 MLOAD SWAP1 DUP2 ADD PUSH1 0x40 MSTORE DUP1 SWAP3 SWAP2 SWAP1 DUP2 DUP2 MSTORE PUSH1 0x20 ADD DUP3 DUP1 SLOAD PUSH2 0xD33 SWAP1 PUSH2 0x1B6E JUMP JUMPDEST DUP1 ISZERO PUSH2 0xD80 JUMPI DUP1 PUSH1 0x1F LT PUSH2 0xD55 JUMPI PUSH2 0x100 DUP1 DUP4 SLOAD DIV MUL DUP4 MSTORE SWAP2 PUSH1 0x20 ADD SWAP2 PUSH2 0xD80 JUMP JUMPDEST DUP3 ADD SWAP2 SWAP1 PUSH1 0x0 MSTORE PUSH1 0x20 PUSH1 0x0 KECCAK256 SWAP1 JUMPDEST DUP2 SLOAD DUP2 MSTORE SWAP1 PUSH1 0x1 ADD SWAP1 PUSH1 0x20 ADD DUP1 DUP4 GT PUSH2 0xD63 JUMPI DUP3 SWAP1 SUB PUSH1 0x1F AND DUP3 ADD SWAP2 JUMPDEST POP POP POP SWAP2 DUP4 MSTORE POP POP PUSH1 0x3 DUP3 ADD SLOAD PUSH1 0x20 DUP3 ADD MSTORE PUSH1 0x4 DUP3 ADD SLOAD PUSH1 0x40 DUP3 ADD MSTORE PUSH1 0x5 DUP3 ADD SLOAD PUSH1 0x60 DUP3 ADD MSTORE PUSH1 0x6 DUP3 ADD SLOAD PUSH1 0x80 DUP3 ADD MSTORE PUSH1 0x7 SWAP1 SWAP2 ADD SLOAD PUSH1 0xFF AND ISZERO ISZERO PUSH1 0xA0 SWAP1 SWAP2 ADD MSTORE SWAP2 SWAP1 POP JUMP JUMPDEST PUSH2 0xDCE PUSH2 0x16A3 JUMP JUMPDEST PUSH2 0xAE8 PUSH1 0x0 PUSH2 0x1752 JUMP JUMPDEST CALLER PUSH1 0x0 SWAP1 DUP2 MSTORE PUSH1 0x13 PUSH1 0x20 MSTORE PUSH1 0x40 SWAP1 KECCAK256 SLOAD PUSH1 0xFF AND PUSH2 0xE37 JUMPI PUSH1 0x40 MLOAD PUSH3 0x461BCD PUSH1 0xE5 SHL DUP2 MSTORE PUSH1 0x20 PUSH1 0x4 DUP3 ADD MSTORE PUSH1 0x19 PUSH1 0x24 DUP3 ADD MSTORE PUSH32 0x4B594320766572696669636174696F6E20726571756972656400000000000000 PUSH1 0x44 DUP3 ADD MSTORE PUSH1 0x64 ADD PUSH2 0x98A JUMP JUMPDEST PUSH2 0xE3F PUSH2 0x17A4 JUMP JUMPDEST PUSH2 0xE47 PUSH2 0x17F1 JUMP JUMPDEST PUSH1 0x0 DUP2 GT PUSH2 0xEA3 JUMPI PUSH1 0x40 MLOAD PUSH3 0x461BCD PUSH1 0xE5 SHL DUP2 MSTORE PUSH1 0x20 PUSH1 0x4 DUP3 ADD MSTORE PUSH1 0x23 PUSH1 0x24 DUP3 ADD MSTORE PUSH32 0x546F6B656E20616D6F756E74206D757374206265206772656174657220746861 PUSH1 0x44 DUP3 ADD MSTORE PUSH3 0x6E203 PUSH1 0xEC SHL PUSH1 0x64 DUP3 ADD MSTORE PUSH1 0x84 ADD PUSH2 0x98A JUMP JUMPDEST PUSH1 0x10 SLOAD PUSH2 0xEB0 SWAP1 DUP3 PUSH2 0x1BE7 JUMP JUMPDEST CALLVALUE LT ISZERO PUSH2 0xEF6 JUMPI PUSH1 0x40 MLOAD PUSH3 0x461BCD PUSH1 0xE5 SHL DUP2 MSTORE PUSH1 0x20 PUSH1 0x4 DUP3 ADD MSTORE PUSH1 0x14 PUSH1 0x24 DUP3 ADD MSTORE PUSH20 0x125B9CDD59999A58DA595B9D081C185E5B595B9D PUSH1 0x62 SHL PUSH1 0x44 DUP3 ADD MSTORE PUSH1 0x64 ADD PUSH2 0x98A JUMP JUMPDEST PUSH2 0xF02 PUSH1 0x8 PUSH1 0xA PUSH2 0x1D30 JUMP JUMPDEST PUSH2 0xF0C SWAP1 DUP3 PUSH2 0x1BE7 JUMP JUMPDEST ADDRESS PUSH1 0x0 SWAP1 DUP2 MSTORE PUSH1 0x20 DUP2 SWAP1 MSTORE PUSH1 0x40 SWAP1 KECCAK256 SLOAD LT ISZERO PUSH2 0xF6A JUMPI PUSH1 0x40 MLOAD PUSH3 0x461BCD PUSH1 0xE5 SHL DUP2 MSTORE PUSH1 0x20 PUSH1 0x4 DUP3 ADD MSTORE PUSH1 0x1B PUSH1 0x24 DUP3 ADD MSTORE PUSH32 0x4E6F7420656E6F75676820746F6B656E7320617661696C61626C650000000000 PUSH1 0x44 DUP3 ADD MSTORE PUSH1 0x64 ADD PUSH2 0x98A JUMP JUMPDEST PUSH1 0xB SLOAD CALLVALUE LT ISZERO PUSH2 0xFBC JUMPI PUSH1 0x40 MLOAD PUSH3 0x461BCD PUSH1 0xE5 SHL DUP2 MSTORE PUSH1 0x20 PUSH1 0x4 DUP3 ADD MSTORE PUSH1 0x18 PUSH1 0x24 DUP3 ADD MSTORE PUSH32 0x42656C6F77206D696E696D756D20696E766573746D656E740000000000000000 PUSH1 0x44 DUP3 ADD MSTORE PUSH1 0x64 ADD PUSH2 0x98A JUMP JUMPDEST PUSH2 0xFDC ADDRESS CALLER PUSH2 0xFCD PUSH1 0x8 PUSH1 0xA PUSH2 0x1D30 JUMP JUMPDEST PUSH2 0xFD7 SWAP1 DUP6 PUSH2 0x1BE7 JUMP JUMPDEST PUSH2 0x14FF JUMP JUMPDEST CALLER PUSH1 0x0 SWAP1 DUP2 MSTORE PUSH1 0x11 PUSH1 0x20 MSTORE PUSH1 0x40 DUP2 KECCAK256 SLOAD SWAP1 SUB PUSH2 0x1047 JUMPI PUSH1 0x14 DUP1 SLOAD PUSH1 0x1 DUP2 ADD DUP3 SSTORE PUSH1 0x0 SWAP2 DUP3 MSTORE PUSH32 0xCE6D7B5282BD9A3661AE061FEED1DBDA4E52AB073B1F9285BE6E155D9C38D4EC ADD DUP1 SLOAD PUSH1 0x1 PUSH1 0x1 PUSH1 0xA0 SHL SUB NOT AND CALLER OR SWAP1 SSTORE PUSH1 0x15 DUP1 SLOAD SWAP2 PUSH2 0x1041 DUP4 PUSH2 0x1C20 JUMP JUMPDEST SWAP2 SWAP1 POP SSTORE POP JUMPDEST CALLER PUSH1 0x0 SWAP1 DUP2 MSTORE PUSH1 0x11 PUSH1 0x20 MSTORE PUSH1 0x40 DUP2 KECCAK256 DUP1 SLOAD CALLVALUE SWAP3 SWAP1 PUSH2 0x1066 SWAP1 DUP5 SWAP1 PUSH2 0x1C39 JUMP JUMPDEST SWAP1 SWAP2 SSTORE POP POP PUSH1 0xD SLOAD PUSH2 0x1078 SWAP1 TIMESTAMP PUSH2 0x1C39 JUMP JUMPDEST CALLER PUSH1 0x0 DUP2 DUP2 MSTORE PUSH1 0x12 PUSH1 0x20 SWAP1 DUP2 MSTORE PUSH1 0x40 SWAP2 DUP3 SWAP1 KECCAK256 SWAP4 SWAP1 SWAP4 SSTORE DUP1 MLOAD CALLVALUE DUP2 MSTORE SWAP3 DUP4 ADD DUP5 SWAP1 MSTORE SWAP1 SWAP2 PUSH32 0x8FAFEBCAF9D154343DAD25669BFA277F4FBACD7AC6B0C4FED522580E040A0F33 SWAP2 ADD PUSH1 0x40 MLOAD DUP1 SWAP2 SUB SWAP1 LOG2 PUSH2 0x10D1 PUSH1 0x1 PUSH1 0x6 SSTORE JUMP JUMPDEST POP JUMP JUMPDEST PUSH2 0x10DC PUSH2 0x16A3 JUMP JUMPDEST PUSH2 0xAE8 PUSH2 0x184A JUMP JUMPDEST PUSH1 0x60 PUSH1 0x4 DUP1 SLOAD PUSH2 0x811 SWAP1 PUSH2 0x1B6E JUMP JUMPDEST PUSH1 0x0 CALLER DUP2 PUSH2 0x1101 DUP3 DUP7 PUSH2 0x125A JUMP JUMPDEST SWAP1 POP DUP4 DUP2 LT ISZERO PUSH2 0x1161 JUMPI PUSH1 0x40 MLOAD PUSH3 0x461BCD PUSH1 0xE5 SHL DUP2 MSTORE PUSH1 0x20 PUSH1 0x4 DUP3 ADD MSTORE PUSH1 0x25 PUSH1 0x24 DUP3 ADD MSTORE PUSH32 0x45524332303A2064656372656173656420616C6C6F77616E63652062656C6F77 PUSH1 0x44 DUP3 ADD MSTORE PUSH5 0x207A65726F PUSH1 0xD8 SHL PUSH1 0x64 DUP3 ADD MSTORE PUSH1 0x84 ADD PUSH2 0x98A JUMP JUMPDEST PUSH2 0x92B DUP3 DUP7 DUP7 DUP5 SUB PUSH2 0x1361 JUMP JUMPDEST PUSH1 0x0 CALLER PUSH2 0x906 DUP2 DUP6 DUP6 PUSH2 0x14FF JUMP JUMPDEST CALLER PUSH1 0x0 SWAP1 DUP2 MSTORE PUSH1 0x12 PUSH1 0x20 MSTORE PUSH1 0x40 SWAP1 KECCAK256 SLOAD TIMESTAMP LT ISZERO PUSH2 0x11DB JUMPI PUSH1 0x40 MLOAD PUSH3 0x461BCD PUSH1 0xE5 SHL DUP2 MSTORE PUSH1 0x20 PUSH1 0x4 DUP3 ADD MSTORE PUSH1 0x17 PUSH1 0x24 DUP3 ADD MSTORE PUSH32 0x4C6F636B757020706572696F64206E6F7420656E646564000000000000000000 PUSH1 0x44 DUP3 ADD MSTORE PUSH1 0x64 ADD PUSH2 0x98A JUMP JUMPDEST PUSH2 0x11E3 PUSH2 0x17A4 JUMP JUMPDEST PUSH1 0x1 PUSH1 0x1 PUSH1 0xA0 SHL SUB DUP3 AND PUSH1 0x0 SWAP1 DUP2 MSTORE PUSH1 0x13 PUSH1 0x20 MSTORE PUSH1 0x40 SWAP1 KECCAK256 SLOAD PUSH1 0xFF AND PUSH2 0x124B JUMPI PUSH1 0x40 MLOAD PUSH3 0x461BCD PUSH1 0xE5 SHL DUP2 MSTORE PUSH1 0x20 PUSH1 0x4 DUP3 ADD MSTORE PUSH1 0x1A PUSH1 0x24 DUP3 ADD MSTORE PUSH32 0x526563697069656E74206E6F74204B5943207665726966696564000000000000 PUSH1 0x44 DUP3 ADD MSTORE PUSH1 0x64 ADD PUSH2 0x98A JUMP JUMPDEST PUSH2 0x1256 CALLER DUP4 DUP4 PUSH2 0x14FF JUMP JUMPDEST POP POP JUMP JUMPDEST PUSH1 0x1 PUSH1 0x1 PUSH1 0xA0 SHL SUB SWAP2 DUP3 AND PUSH1 0x0 SWAP1 DUP2 MSTORE PUSH1 0x1 PUSH1 0x20 SWAP1 DUP2 MSTORE PUSH1 0x40 DUP1 DUP4 KECCAK256 SWAP4 SWAP1 SWAP5 AND DUP3 MSTORE SWAP2 SWAP1 SWAP2 MSTORE KECCAK256 SLOAD SWAP1 JUMP JUMPDEST PUSH2 0x128D PUSH2 0x16A3 JUMP JUMPDEST PUSH1 0xF DUP2 SWAP1 SSTORE PUSH2 0x129E PUSH1 0x8 PUSH1 0xA PUSH2 0x1D30 JUMP JUMPDEST PUSH1 0x2 SLOAD PUSH2 0x12AB SWAP2 SWAP1 PUSH2 0x1BFE JUMP JUMPDEST PUSH2 0x12B5 SWAP1 DUP3 PUSH2 0x1BFE JUMP JUMPDEST PUSH1 0x10 SSTORE PUSH1 0x40 MLOAD PUSH32 0xDC0D1A545B7923B69EDB6D85D57BA8431D43559646628478BC3D0B817D2C55E4 SWAP1 PUSH2 0xAAB SWAP1 PUSH1 0x7 SWAP1 DUP5 SWAP1 PUSH2 0x1D3C JUMP JUMPDEST PUSH2 0x12F3 PUSH2 0x16A3 JUMP JUMPDEST PUSH1 0x1 PUSH1 0x1 PUSH1 0xA0 SHL SUB DUP2 AND PUSH2 0x1358 JUMPI PUSH1 0x40 MLOAD PUSH3 0x461BCD PUSH1 0xE5 SHL DUP2 MSTORE PUSH1 0x20 PUSH1 0x4 DUP3 ADD MSTORE PUSH1 0x26 PUSH1 0x24 DUP3 ADD MSTORE PUSH32 0x4F776E61626C653A206E6577206F776E657220697320746865207A65726F2061 PUSH1 0x44 DUP3 ADD MSTORE PUSH6 0x646472657373 PUSH1 0xD0 SHL PUSH1 0x64 DUP3 ADD MSTORE PUSH1 0x84 ADD PUSH2 0x98A JUMP JUMPDEST PUSH2 0x10D1 DUP2 PUSH2 0x1752 JUMP JUMPDEST PUSH1 0x1 PUSH1 0x1 PUSH1 0xA0 SHL SUB DUP4 AND PUSH2 0x13C3 JUMPI PUSH1 0x40 MLOAD PUSH3 0x461BCD PUSH1 0xE5 SHL DUP2 MSTORE PUSH1 0x20 PUSH1 0x4 DUP3 ADD MSTORE PUSH1 0x24 DUP1 DUP3 ADD MSTORE PUSH32 0x45524332303A20617070726F76652066726F6D20746865207A65726F20616464 PUSH1 0x44 DUP3 ADD MSTORE PUSH4 0x72657373 PUSH1 0xE0 SHL PUSH1 0x64 DUP3 ADD MSTORE PUSH1 0x84 ADD PUSH2 0x98A JUMP JUMPDEST PUSH1 0x1 PUSH1 0x1 PUSH1 0xA0 SHL SUB DUP3 AND PUSH2 0x1424 JUMPI PUSH1 0x40 MLOAD PUSH3 0x461BCD PUSH1 0xE5 SHL DUP2 MSTORE PUSH1 0x20 PUSH1 0x4 DUP3 ADD MSTORE PUSH1 0x22 PUSH1 0x24 DUP3 ADD MSTORE PUSH32 0x45524332303A20617070726F766520746F20746865207A65726F206164647265 PUSH1 0x44 DUP3 ADD MSTORE PUSH2 0x7373 PUSH1 0xF0 SHL PUSH1 0x64 DUP3 ADD MSTORE PUSH1 0x84 ADD PUSH2 0x98A JUMP JUMPDEST PUSH1 0x1 PUSH1 0x1 PUSH1 0xA0 SHL SUB DUP4 DUP2 AND PUSH1 0x0 DUP2 DUP2 MSTORE PUSH1 0x1 PUSH1 0x20 SWAP1 DUP2 MSTORE PUSH1 0x40 DUP1 DUP4 KECCAK256 SWAP5 DUP8 AND DUP1 DUP5 MSTORE SWAP5 DUP3 MSTORE SWAP2 DUP3 SWAP1 KECCAK256 DUP6 SWAP1 SSTORE SWAP1 MLOAD DUP5 DUP2 MSTORE PUSH32 0x8C5BE1E5EBEC7D5BD14F71427D1E84F3DD0314C0F7B2291E5B200AC8C7C3B925 SWAP2 ADD PUSH1 0x40 MLOAD DUP1 SWAP2 SUB SWAP1 LOG3 POP POP POP JUMP JUMPDEST PUSH1 0x0 PUSH2 0x1491 DUP5 DUP5 PUSH2 0x125A JUMP JUMPDEST SWAP1 POP PUSH1 0x0 NOT DUP2 EQ PUSH2 0x14F9 JUMPI DUP2 DUP2 LT ISZERO PUSH2 0x14EC JUMPI PUSH1 0x40 MLOAD PUSH3 0x461BCD PUSH1 0xE5 SHL DUP2 MSTORE PUSH1 0x20 PUSH1 0x4 DUP3 ADD MSTORE PUSH1 0x1D PUSH1 0x24 DUP3 ADD MSTORE PUSH32 0x45524332303A20696E73756666696369656E7420616C6C6F77616E6365000000 PUSH1 0x44 DUP3 ADD MSTORE PUSH1 0x64 ADD PUSH2 0x98A JUMP JUMPDEST PUSH2 0x14F9 DUP5 DUP5 DUP5 DUP5 SUB PUSH2 0x1361 JUMP JUMPDEST POP POP POP POP JUMP JUMPDEST PUSH1 0x1 PUSH1 0x1 PUSH1 0xA0 SHL SUB DUP4 AND PUSH2 0x1563 JUMPI PUSH1 0x40 MLOAD PUSH3 0x461BCD PUSH1 0xE5 SHL DUP2 MSTORE PUSH1 0x20 PUSH1 0x4 DUP3 ADD MSTORE PUSH1 0x25 PUSH1 0x24 DUP3 ADD MSTORE PUSH32 0x45524332303A207472616E736665722066726F6D20746865207A65726F206164 PUSH1 0x44 DUP3 ADD MSTORE PUSH5 0x6472657373 PUSH1 0xD8 SHL PUSH1 0x64 DUP3 ADD MSTORE PUSH1 0x84 ADD PUSH2 0x98A JUMP JUMPDEST PUSH1 0x1 PUSH1 0x1 PUSH1 0xA0 SHL SUB DUP3 AND PUSH2 0x15C5 JUMPI PUSH1 0x40 MLOAD PUSH3 0x461BCD PUSH1 0xE5 SHL DUP2 MSTORE PUSH1 0x20 PUSH1 0x4 DUP3 ADD MSTORE PUSH1 0x23 PUSH1 0x24 DUP3 ADD MSTORE PUSH32 0x45524332303A207472616E7366657220746F20746865207A65726F2061646472 PUSH1 0x44 DUP3 ADD MSTORE PUSH3 0x657373 PUSH1 0xE8 SHL PUSH1 0x64 DUP3 ADD MSTORE PUSH1 0x84 ADD PUSH2 0x98A JUMP JUMPDEST PUSH1 0x1 PUSH1 0x1 PUSH1 0xA0 SHL SUB DUP4 AND PUSH1 0x0 SWAP1 DUP2 MSTORE PUSH1 0x20 DUP2 SWAP1 MSTORE PUSH1 0x40 SWAP1 KECCAK256 SLOAD DUP2 DUP2 LT ISZERO PUSH2 0x163D JUMPI PUSH1 0x40 MLOAD PUSH3 0x461BCD PUSH1 0xE5 SHL DUP2 MSTORE PUSH1 0x20 PUSH1 0x4 DUP3 ADD MSTORE PUSH1 0x26 PUSH1 0x24 DUP3 ADD MSTORE PUSH32 0x45524332303A207472616E7366657220616D6F756E7420657863656564732062 PUSH1 0x44 DUP3 ADD MSTORE PUSH6 0x616C616E6365 PUSH1 0xD0 SHL PUSH1 0x64 DUP3 ADD MSTORE PUSH1 0x84 ADD PUSH2 0x98A JUMP JUMPDEST PUSH1 0x1 PUSH1 0x1 PUSH1 0xA0 SHL SUB DUP5 DUP2 AND PUSH1 0x0 DUP2 DUP2 MSTORE PUSH1 0x20 DUP2 DUP2 MSTORE PUSH1 0x40 DUP1 DUP4 KECCAK256 DUP8 DUP8 SUB SWAP1 SSTORE SWAP4 DUP8 AND DUP1 DUP4 MSTORE SWAP2 DUP5 SWAP1 KECCAK256 DUP1 SLOAD DUP8 ADD SWAP1 SSTORE SWAP3 MLOAD DUP6 DUP2 MSTORE SWAP1 SWAP3 PUSH32 0xDDF252AD1BE2C89B69C2B068FC378DAA952BA7F163C4A11628F55A4DF523B3EF SWAP2 ADD PUSH1 0x40 MLOAD DUP1 SWAP2 SUB SWAP1 LOG3 PUSH2 0x14F9 JUMP JUMPDEST PUSH1 0x5 SLOAD PUSH1 0x1 PUSH1 0x1 PUSH1 0xA0 SHL SUB AND CALLER EQ PUSH2 0xAE8 JUMPI PUSH1 0x40 MLOAD PUSH3 0x461BCD PUSH1 0xE5 SHL DUP2 MSTORE PUSH1 0x20 PUSH1 0x4 DUP3 ADD DUP2 SWAP1 MSTORE PUSH1 0x24 DUP3 ADD MSTORE PUSH32 0x4F776E61626C653A2063616C6C6572206973206E6F7420746865206F776E6572 PUSH1 0x44 DUP3 ADD MSTORE PUSH1 0x64 ADD PUSH2 0x98A JUMP JUMPDEST PUSH2 0x1705 PUSH2 0x188D JUMP JUMPDEST PUSH1 0x5 DUP1 SLOAD PUSH1 0xFF PUSH1 0xA0 SHL NOT AND SWAP1 SSTORE PUSH32 0x5DB9EE0A495BF2E6FF9C91A7834C1BA4FDD244A5E8AA4E537BD38AEAE4B073AA CALLER JUMPDEST PUSH1 0x40 MLOAD PUSH1 0x1 PUSH1 0x1 PUSH1 0xA0 SHL SUB SWAP1 SWAP2 AND DUP2 MSTORE PUSH1 0x20 ADD PUSH1 0x40 MLOAD DUP1 SWAP2 SUB SWAP1 LOG1 JUMP JUMPDEST PUSH1 0x5 DUP1 SLOAD PUSH1 0x1 PUSH1 0x1 PUSH1 0xA0 SHL SUB DUP4 DUP2 AND PUSH1 0x1 PUSH1 0x1 PUSH1 0xA0 SHL SUB NOT DUP4 AND DUP2 OR SWAP1 SWAP4 SSTORE PUSH1 0x40 MLOAD SWAP2 AND SWAP2 SWAP1 DUP3 SWAP1 PUSH32 0x8BE0079C531659141344CD1FD0A4F28419497F9722A3DAAFE3B4186F6B6457E0 SWAP1 PUSH1 0x0 SWAP1 LOG3 POP POP JUMP JUMPDEST PUSH1 0x5 SLOAD PUSH1 0x1 PUSH1 0xA0 SHL SWAP1 DIV PUSH1 0xFF AND ISZERO PUSH2 0xAE8 JUMPI PUSH1 0x40 MLOAD PUSH3 0x461BCD PUSH1 0xE5 SHL DUP2 MSTORE PUSH1 0x20 PUSH1 0x4 DUP3 ADD MSTORE PUSH1 0x10 PUSH1 0x24 DUP3 ADD MSTORE PUSH16 0x14185D5CD8589B194E881C185D5CD959 PUSH1 0x82 SHL PUSH1 0x44 DUP3 ADD MSTORE PUSH1 0x64 ADD PUSH2 0x98A JUMP JUMPDEST PUSH1 0x2 PUSH1 0x6 SLOAD SUB PUSH2 0x1843 JUMPI PUSH1 0x40 MLOAD PUSH3 0x461BCD PUSH1 0xE5 SHL DUP2 MSTORE PUSH1 0x20 PUSH1 0x4 DUP3 ADD MSTORE PUSH1 0x1F PUSH1 0x24 DUP3 ADD MSTORE PUSH32 0x5265656E7472616E637947756172643A207265656E7472616E742063616C6C00 PUSH1 0x44 DUP3 ADD MSTORE PUSH1 0x64 ADD PUSH2 0x98A JUMP JUMPDEST PUSH1 0x2 PUSH1 0x6 SSTORE JUMP JUMPDEST PUSH2 0x1852 PUSH2 0x17A4 JUMP JUMPDEST PUSH1 0x5 DUP1 SLOAD PUSH1 0xFF PUSH1 0xA0 SHL NOT AND PUSH1 0x1 PUSH1 0xA0 SHL OR SWAP1 SSTORE PUSH32 0x62E78CEA01BEE320CD4E420270B5EA74000D11B0C9F74754EBDBFC544B05A258 PUSH2 0x1735 CALLER SWAP1 JUMP JUMPDEST PUSH1 0x5 SLOAD PUSH1 0x1 PUSH1 0xA0 SHL SWAP1 DIV PUSH1 0xFF AND PUSH2 0xAE8 JUMPI PUSH1 0x40 MLOAD PUSH3 0x461BCD PUSH1 0xE5 SHL DUP2 MSTORE PUSH1 0x20 PUSH1 0x4 DUP3 ADD MSTORE PUSH1 0x14 PUSH1 0x24 DUP3 ADD MSTORE PUSH20 0x14185D5CD8589B194E881B9BDD081C185D5CD959 PUSH1 0x62 SHL PUSH1 0x44 DUP3 ADD MSTORE PUSH1 0x64 ADD PUSH2 0x98A JUMP JUMPDEST PUSH1 0x0 DUP2 MLOAD DUP1 DUP5 MSTORE PUSH1 0x0 JUMPDEST DUP2 DUP2 LT ISZERO PUSH2 0x1903 JUMPI PUSH1 0x20 DUP2 DUP6 ADD DUP2 ADD MLOAD DUP7 DUP4 ADD DUP3 ADD MSTORE ADD PUSH2 0x18E7 JUMP JUMPDEST POP PUSH1 0x0 PUSH1 0x20 DUP3 DUP7 ADD ADD MSTORE PUSH1 0x20 PUSH1 0x1F NOT PUSH1 0x1F DUP4 ADD AND DUP6 ADD ADD SWAP2 POP POP SWAP3 SWAP2 POP POP JUMP JUMPDEST PUSH1 0x0 PUSH2 0x100 DUP1 DUP4 MSTORE PUSH2 0x1937 DUP2 DUP5 ADD DUP13 PUSH2 0x18DD JUMP JUMPDEST SWAP1 POP DUP3 DUP2 SUB PUSH1 0x20 DUP5 ADD MSTORE PUSH2 0x194B DUP2 DUP12 PUSH2 0x18DD JUMP JUMPDEST SWAP1 POP DUP3 DUP2 SUB PUSH1 0x40 DUP5 ADD MSTORE PUSH2 0x195F DUP2 DUP11 PUSH2 0x18DD JUMP JUMPDEST PUSH1 0x60 DUP5 ADD SWAP9 SWAP1 SWAP9 MSTORE POP POP PUSH1 0x80 DUP2 ADD SWAP5 SWAP1 SWAP5 MSTORE PUSH1 0xA0 DUP5 ADD SWAP3 SWAP1 SWAP3 MSTORE PUSH1 0xC0 DUP4 ADD MSTORE ISZERO ISZERO PUSH1 0xE0 SWAP1 SWAP2 ADD MSTORE SWAP4 SWAP3 POP POP POP JUMP JUMPDEST PUSH1 0x20 DUP2 MSTORE PUSH1 0x0 PUSH2 0x19A0 PUSH1 0x20 DUP4 ADD DUP5 PUSH2 0x18DD JUMP JUMPDEST SWAP4 SWAP3 POP POP POP JUMP JUMPDEST DUP1 CALLDATALOAD PUSH1 0x1 PUSH1 0x1 PUSH1 0xA0 SHL SUB DUP2 AND DUP2 EQ PUSH2 0x19BE JUMPI PUSH1 0x0 DUP1 REVERT JUMPDEST SWAP2 SWAP1 POP JUMP JUMPDEST PUSH1 0x0 PUSH1 0x20 DUP3 DUP5 SUB SLT ISZERO PUSH2 0x19D5 JUMPI PUSH1 0x0 DUP1 REVERT JUMPDEST PUSH2 0x19A0 DUP3 PUSH2 0x19A7 JUMP JUMPDEST PUSH1 0x0 DUP1 PUSH1 0x40 DUP4 DUP6 SUB SLT ISZERO PUSH2 0x19F1 JUMPI PUSH1 0x0 DUP1 REVERT JUMPDEST PUSH2 0x19FA DUP4 PUSH2 0x19A7 JUMP JUMPDEST SWAP5 PUSH1 0x20 SWAP4 SWAP1 SWAP4 ADD CALLDATALOAD SWAP4 POP POP POP JUMP JUMPDEST PUSH1 0x0 DUP1 PUSH1 0x0 PUSH1 0x60 DUP5 DUP7 SUB SLT ISZERO PUSH2 0x1A1D JUMPI PUSH1 0x0 DUP1 REVERT JUMPDEST PUSH2 0x1A26 DUP5 PUSH2 0x19A7 JUMP JUMPDEST SWAP3 POP PUSH2 0x1A34 PUSH1 0x20 DUP6 ADD PUSH2 0x19A7 JUMP JUMPDEST SWAP2 POP PUSH1 0x40 DUP5 ADD CALLDATALOAD SWAP1 POP SWAP3 POP SWAP3 POP SWAP3 JUMP JUMPDEST PUSH1 0x0 PUSH1 0x20 DUP3 DUP5 SUB SLT ISZERO PUSH2 0x1A56 JUMPI PUSH1 0x0 DUP1 REVERT JUMPDEST POP CALLDATALOAD SWAP2 SWAP1 POP JUMP JUMPDEST PUSH1 0x0 DUP1 PUSH1 0x40 DUP4 DUP6 SUB SLT ISZERO PUSH2 0x1A70 JUMPI PUSH1 0x0 DUP1 REVERT JUMPDEST PUSH2 0x1A79 DUP4 PUSH2 0x19A7 JUMP JUMPDEST SWAP2 POP PUSH1 0x20 DUP4 ADD CALLDATALOAD DUP1 ISZERO ISZERO DUP2 EQ PUSH2 0x1A8E JUMPI PUSH1 0x0 DUP1 REVERT JUMPDEST DUP1 SWAP2 POP POP SWAP3 POP SWAP3 SWAP1 POP JUMP JUMPDEST PUSH1 0x20 DUP2 MSTORE PUSH1 0x0 DUP3 MLOAD PUSH2 0x100 DUP1 PUSH1 0x20 DUP6 ADD MSTORE PUSH2 0x1AB8 PUSH2 0x120 DUP6 ADD DUP4 PUSH2 0x18DD JUMP JUMPDEST SWAP2 POP PUSH1 0x20 DUP6 ADD MLOAD PUSH1 0x1F NOT DUP1 DUP7 DUP6 SUB ADD PUSH1 0x40 DUP8 ADD MSTORE PUSH2 0x1AD6 DUP5 DUP4 PUSH2 0x18DD JUMP JUMPDEST SWAP4 POP PUSH1 0x40 DUP8 ADD MLOAD SWAP2 POP DUP1 DUP7 DUP6 SUB ADD PUSH1 0x60 DUP8 ADD MSTORE POP PUSH2 0x1AF4 DUP4 DUP3 PUSH2 0x18DD JUMP JUMPDEST SWAP3 POP POP PUSH1 0x60 DUP6 ADD MLOAD PUSH1 0x80 DUP6 ADD MSTORE PUSH1 0x80 DUP6 ADD MLOAD PUSH1 0xA0 DUP6 ADD MSTORE PUSH1 0xA0 DUP6 ADD MLOAD PUSH1 0xC0 DUP6 ADD MSTORE PUSH1 0xC0 DUP6 ADD MLOAD PUSH1 0xE0 DUP6 ADD MSTORE PUSH1 0xE0 DUP6 ADD MLOAD PUSH2 0x1B31 DUP3 DUP7 ADD DUP3 ISZERO ISZERO SWAP1 MSTORE JUMP JUMPDEST POP SWAP1 SWAP5 SWAP4 POP POP POP POP JUMP JUMPDEST PUSH1 0x0 DUP1 PUSH1 0x40 DUP4 DUP6 SUB SLT ISZERO PUSH2 0x1B4E JUMPI PUSH1 0x0 DUP1 REVERT JUMPDEST PUSH2 0x1B57 DUP4 PUSH2 0x19A7 JUMP JUMPDEST SWAP2 POP PUSH2 0x1B65 PUSH1 0x20 DUP5 ADD PUSH2 0x19A7 JUMP JUMPDEST SWAP1 POP SWAP3 POP SWAP3 SWAP1 POP JUMP JUMPDEST PUSH1 0x1 DUP2 DUP2 SHR SWAP1 DUP3 AND DUP1 PUSH2 0x1B82 JUMPI PUSH1 0x7F DUP3 AND SWAP2 POP JUMPDEST PUSH1 0x20 DUP3 LT DUP2 SUB PUSH2 0x1BA2 JUMPI PUSH4 0x4E487B71 PUSH1 0xE0 SHL PUSH1 0x0 MSTORE PUSH1 0x22 PUSH1 0x4 MSTORE PUSH1 0x24 PUSH1 0x0 REVERT JUMPDEST POP SWAP2 SWAP1 POP JUMP JUMPDEST PUSH4 0x4E487B71 PUSH1 0xE0 SHL PUSH1 0x0 MSTORE PUSH1 0x11 PUSH1 0x4 MSTORE PUSH1 0x24 PUSH1 0x0 REVERT JUMPDEST DUP2 DUP2 SUB DUP2 DUP2 GT ISZERO PUSH2 0x90C JUMPI PUSH2 0x90C PUSH2 0x1BA8 JUMP JUMPDEST PUSH4 0x4E487B71 PUSH1 0xE0 SHL PUSH1 0x0 MSTORE PUSH1 0x32 PUSH1 0x4 MSTORE PUSH1 0x24 PUSH1 0x0 REVERT JUMPDEST DUP1 DUP3 MUL DUP2 ISZERO DUP3 DUP3 DIV DUP5 EQ OR PUSH2 0x90C JUMPI PUSH2 0x90C PUSH2 0x1BA8 JUMP JUMPDEST PUSH1 0x0 DUP3 PUSH2 0x1C1B JUMPI PUSH4 0x4E487B71 PUSH1 0xE0 SHL PUSH1 0x0 MSTORE PUSH1 0x12 PUSH1 0x4 MSTORE PUSH1 0x24 PUSH1 0x0 REVERT JUMPDEST POP DIV SWAP1 JUMP JUMPDEST PUSH1 0x0 PUSH1 0x1 DUP3 ADD PUSH2 0x1C32 JUMPI PUSH2 0x1C32 PUSH2 0x1BA8 JUMP JUMPDEST POP PUSH1 0x1 ADD SWAP1 JUMP JUMPDEST DUP1 DUP3 ADD DUP1 DUP3 GT ISZERO PUSH2 0x90C JUMPI PUSH2 0x90C PUSH2 0x1BA8 JUMP JUMPDEST PUSH1 0x1 DUP2 DUP2 JUMPDEST DUP1 DUP6 GT ISZERO PUSH2 0x1C87 JUMPI DUP2 PUSH1 0x0 NOT DIV DUP3 GT ISZERO PUSH2 0x1C6D JUMPI PUSH2 0x1C6D PUSH2 0x1BA8 JUMP JUMPDEST DUP1 DUP6 AND ISZERO PUSH2 0x1C7A JUMPI SWAP2 DUP2 MUL SWAP2 JUMPDEST SWAP4 DUP5 SHR SWAP4 SWAP1 DUP1 MUL SWAP1 PUSH2 0x1C51 JUMP JUMPDEST POP SWAP3 POP SWAP3 SWAP1 POP JUMP JUMPDEST PUSH1 0x0 DUP3 PUSH2 0x1C9E JUMPI POP PUSH1 0x1 PUSH2 0x90C JUMP JUMPDEST DUP2 PUSH2 0x1CAB JUMPI POP PUSH1 0x0 PUSH2 0x90C JUMP JUMPDEST DUP2 PUSH1 0x1 DUP2 EQ PUSH2 0x1CC1 JUMPI PUSH1 0x2 DUP2 EQ PUSH2 0x1CCB JUMPI PUSH2 0x1CE7 JUMP JUMPDEST PUSH1 0x1 SWAP2 POP POP PUSH2 0x90C JUMP JUMPDEST PUSH1 0xFF DUP5 GT ISZERO PUSH2 0x1CDC JUMPI PUSH2 0x1CDC PUSH2 0x1BA8 JUMP JUMPDEST POP POP PUSH1 0x1 DUP3 SHL PUSH2 0x90C JUMP JUMPDEST POP PUSH1 0x20 DUP4 LT PUSH2 0x133 DUP4 LT AND PUSH1 0x4E DUP5 LT PUSH1 0xB DUP5 LT AND OR ISZERO PUSH2 0x1D0A JUMPI POP DUP2 DUP2 EXP PUSH2 0x90C JUMP JUMPDEST PUSH2 0x1D14 DUP4 DUP4 PUSH2 0x1C4C JUMP JUMPDEST DUP1 PUSH1 0x0 NOT DIV DUP3 GT ISZERO PUSH2 0x1D28 JUMPI PUSH2 0x1D28 PUSH2 0x1BA8 JUMP JUMPDEST MUL SWAP4 SWAP3 POP POP POP JUMP JUMPDEST PUSH1 0x0 PUSH2 0x19A0 DUP4 DUP4 PUSH2 0x1C8F JUMP JUMPDEST PUSH1 0x40 DUP2 MSTORE PUSH1 0x0 DUP1 DUP5 SLOAD DUP2 PUSH1 0x1 DUP3 DUP2 SHR SWAP2 POP DUP1 DUP4 AND DUP1 PUSH2 0x1D5C JUMPI PUSH1 0x7F DUP4 AND SWAP3 POP JUMPDEST PUSH1 0x20 DUP1 DUP5 LT DUP3 SUB PUSH2 0x1D7B JUMPI PUSH4 0x4E487B71 PUSH1 0xE0 SHL DUP7 MSTORE PUSH1 0x22 PUSH1 0x4 MSTORE PUSH1 0x24 DUP7 REVERT JUMPDEST PUSH1 0x40 DUP9 ADD DUP5 SWAP1 MSTORE PUSH1 0x60 DUP9 ADD DUP3 DUP1 ISZERO PUSH2 0x1D9A JUMPI PUSH1 0x1 DUP2 EQ PUSH2 0x1DB0 JUMPI PUSH2 0x1DDB JUMP JUMPDEST PUSH1 0xFF NOT DUP8 AND DUP3 MSTORE DUP6 ISZERO ISZERO PUSH1 0x5 SHL DUP3 ADD SWAP8 POP PUSH2 0x1DDB JUMP JUMPDEST PUSH1 0x0 DUP13 DUP2 MSTORE PUSH1 0x20 SWAP1 KECCAK256 PUSH1 0x0 JUMPDEST DUP8 DUP2 LT ISZERO PUSH2 0x1DD5 JUMPI DUP2 SLOAD DUP5 DUP3 ADD MSTORE SWAP1 DUP7 ADD SWAP1 DUP5 ADD PUSH2 0x1DBC JUMP JUMPDEST DUP4 ADD SWAP9 POP POP JUMPDEST POP POP SWAP7 SWAP1 SWAP7 ADD SWAP7 SWAP1 SWAP7 MSTORE POP SWAP1 SWAP6 SWAP5 POP POP POP POP POP JUMP INVALID LOG2 PUSH5 0x6970667358 0x22 SLT KECCAK256 PUSH24 0x53DC96DFB95363A73D9EEF581DD6DEABD41640B327A89045 0xD7 JUMP 0xF8 0xC1 CALL 0x22 0xCE PUSH5 0x736F6C6343 STOP ADDMOD SGT STOP CALLER "},"methodIdentifiers":{"DECIMALS()":"2e0f2625","allowance(address,address)":"dd62ed3e","approve(address,uint256)":"095ea7b3","balanceOf(address)":"70a08231","decimals()":"313ce567","decreaseAllowance(address,uint256)":"a457c2d7","distributeRevenue()":"2d07953a","getInvestorInfo(address)":"0707873c","getPropertyInfo()":"5de5f3be","increaseAllowance(address,uint256)":"39509351","investmentAmounts(address)":"ad4222c7","investors(uint256)":"3feb5f2b","kycVerified(address)":"a5410a66","lockupEndTime(address)":"41a03968","name()":"06fdde03","owner()":"8da5cb5b","pause()":"8456cb59","paused()":"5c975abb","pricePerToken()":"7b1b1de6","propertyDetails()":"007dc372","purchaseTokens(uint256)":"7b97008d","renounceOwnership()":"715018a6","symbol()":"95d89b41","totalInvestors()":"29b8caff","totalPropertyValue()":"d7fac34b","totalSupply()":"18160ddd","transfer(address,uint256)":"a9059cbb","transferFrom(address,address,uint256)":"23b872dd","transferOwnership(address)":"f2fde38b","transferTokens(address,uint256)":"bec3fa17","unpause()":"3f4ba83a","updateKYCStatus(address,bool)":"53df9d76","updatePropertyValue(uint256)":"e20993bc"}}}}}