{
  "_format": "hh-sol-artifact-1",
  "contractName": "PropertyRegistry",
  "sourceName": "contracts/PropertyRegistry.sol",
  "abi": [
    {
      "anonymous": false,
      "inputs": [
        {
          "indexed": true,
          "internalType": "address",
          "name": "previousOwner",
          "type": "address"
        },
        {
          "indexed": true,
          "internalType": "address",
          "name": "newOwner",
          "type": "address"
        }
      ],
      "name": "OwnershipTransferred",
      "type": "event"
    },
    {
      "anonymous": false,
      "inputs": [
        {
          "indexed": false,
          "internalType": "address",
          "name": "account",
          "type": "address"
        }
      ],
      "name": "Paused",
      "type": "event"
    },
    {
      "anonymous": false,
      "inputs": [
        {
          "indexed": true,
          "internalType": "string",
          "name": "propertyId",
          "type": "string"
        },
        {
          "indexed": true,
          "internalType": "address",
          "name": "tokenContract",
          "type": "address"
        },
        {
          "indexed": true,
          "internalType": "address",
          "name": "owner",
          "type": "address"
        },
        {
          "indexed": false,
          "internalType": "uint256",
          "name": "totalValue",
          "type": "uint256"
        }
      ],
      "name": "PropertyRegistered",
      "type": "event"
    },
    {
      "anonymous": false,
      "inputs": [
        {
          "indexed": true,
          "internalType": "string",
          "name": "propertyId",
          "type": "string"
        },
        {
          "indexed": false,
          "internalType": "bool",
          "name": "isActive",
          "type": "bool"
        }
      ],
      "name": "PropertyStatusUpdated",
      "type": "event"
    },
    {
      "anonymous": false,
      "inputs": [
        {
          "indexed": true,
          "internalType": "string",
          "name": "propertyId",
          "type": "string"
        },
        {
          "indexed": false,
          "internalType": "address",
          "name": "verifier",
          "type": "address"
        }
      ],
      "name": "PropertyVerified",
      "type": "event"
    },
    {
      "anonymous": false,
      "inputs": [
        {
          "indexed": false,
          "internalType": "address",
          "name": "account",
          "type": "address"
        }
      ],
      "name": "Unpaused",
      "type": "event"
    },
    {
      "anonymous": false,
      "inputs": [
        {
          "indexed": true,
          "internalType": "address",
          "name": "verifier",
          "type": "address"
        },
        {
          "indexed": false,
          "internalType": "bool",
          "name": "authorized",
          "type": "bool"
        }
      ],
      "name": "VerifierAuthorized",
      "type": "event"
    },
    {
      "inputs": [
        {
          "internalType": "uint256",
          "name": "",
          "type": "uint256"
        }
      ],
      "name": "allPropertyIds",
      "outputs": [
        {
          "internalType": "string",
          "name": "",
          "type": "string"
        }
      ],
      "stateMutability": "view",
      "type": "function"
    },
    {
      "inputs": [
        {
          "internalType": "address",
          "name": "_verifier",
          "type": "address"
        },
        {
          "internalType": "bool",
          "name": "_authorized",
          "type": "bool"
        }
      ],
      "name": "authorizeVerifier",
      "outputs": [],
      "stateMutability": "nonpayable",
      "type": "function"
    },
    {
      "inputs": [
        {
          "internalType": "address",
          "name": "",
          "type": "address"
        }
      ],
      "name": "authorizedVerifiers",
      "outputs": [
        {
          "internalType": "bool",
          "name": "",
          "type": "bool"
        }
      ],
      "stateMutability": "view",
      "type": "function"
    },
    {
      "inputs": [],
      "name": "getAllProperties",
      "outputs": [
        {
          "internalType": "string[]",
          "name": "",
          "type": "string[]"
        }
      ],
      "stateMutability": "view",
      "type": "function"
    },
    {
      "inputs": [
        {
          "internalType": "address",
          "name": "_owner",
          "type": "address"
        }
      ],
      "name": "getOwnerProperties",
      "outputs": [
        {
          "internalType": "string[]",
          "name": "",
          "type": "string[]"
        }
      ],
      "stateMutability": "view",
      "type": "function"
    },
    {
      "inputs": [
        {
          "internalType": "string",
          "name": "_propertyId",
          "type": "string"
        }
      ],
      "name": "getProperty",
      "outputs": [
        {
          "components": [
            {
              "internalType": "address",
              "name": "tokenContract",
              "type": "address"
            },
            {
              "internalType": "string",
              "name": "propertyId",
              "type": "string"
            },
            {
              "internalType": "string",
              "name": "landTitleId",
              "type": "string"
            },
            {
              "internalType": "address",
              "name": "owner",
              "type": "address"
            },
            {
              "internalType": "uint256",
              "name": "totalValue",
              "type": "uint256"
            },
            {
              "internalType": "uint256",
              "name": "totalSupply",
              "type": "uint256"
            },
            {
              "internalType": "uint256",
              "name": "createdAt",
              "type": "uint256"
            },
            {
              "internalType": "bool",
              "name": "isActive",
              "type": "bool"
            },
            {
              "internalType": "bool",
              "name": "isVerified",
              "type": "bool"
            }
          ],
          "internalType": "struct PropertyRegistry.RegisteredProperty",
          "name": "",
          "type": "tuple"
        }
      ],
      "stateMutability": "view",
      "type": "function"
    },
    {
      "inputs": [],
      "name": "owner",
      "outputs": [
        {
          "internalType": "address",
          "name": "",
          "type": "address"
        }
      ],
      "stateMutability": "view",
      "type": "function"
    },
    {
      "inputs": [
        {
          "internalType": "address",
          "name": "",
          "type": "address"
        },
        {
          "internalType": "uint256",
          "name": "",
          "type": "uint256"
        }
      ],
      "name": "ownerProperties",
      "outputs": [
        {
          "internalType": "string",
          "name": "",
          "type": "string"
        }
      ],
      "stateMutability": "view",
      "type": "function"
    },
    {
      "inputs": [],
      "name": "pause",
      "outputs": [],
      "stateMutability": "nonpayable",
      "type": "function"
    },
    {
      "inputs": [],
      "name": "paused",
      "outputs": [
        {
          "internalType": "bool",
          "name": "",
          "type": "bool"
        }
      ],
      "stateMutability": "view",
      "type": "function"
    },
    {
      "inputs": [
        {
          "internalType": "string",
          "name": "",
          "type": "string"
        }
      ],
      "name": "properties",
      "outputs": [
        {
          "internalType": "address",
          "name": "tokenContract",
          "type": "address"
        },
        {
          "internalType": "string",
          "name": "propertyId",
          "type": "string"
        },
        {
          "internalType": "string",
          "name": "landTitleId",
          "type": "string"
        },
        {
          "internalType": "address",
          "name": "owner",
          "type": "address"
        },
        {
          "internalType": "uint256",
          "name": "totalValue",
          "type": "uint256"
        },
        {
          "internalType": "uint256",
          "name": "totalSupply",
          "type": "uint256"
        },
        {
          "internalType": "uint256",
          "name": "createdAt",
          "type": "uint256"
        },
        {
          "internalType": "bool",
          "name": "isActive",
          "type": "bool"
        },
        {
          "internalType": "bool",
          "name": "isVerified",
          "type": "bool"
        }
      ],
      "stateMutability": "view",
      "type": "function"
    },
    {
      "inputs": [
        {
          "internalType": "string",
          "name": "_propertyId",
          "type": "string"
        },
        {
          "internalType": "string",
          "name": "_landTitleId",
          "type": "string"
        },
        {
          "internalType": "string",
          "name": "_name",
          "type": "string"
        },
        {
          "internalType": "string",
          "name": "_symbol",
          "type": "string"
        },
        {
          "internalType": "uint256",
          "name": "_totalSupply",
          "type": "uint256"
        },
        {
          "internalType": "uint256",
          "name": "_totalValue",
          "type": "uint256"
        },
        {
          "components": [
            {
              "internalType": "string",
              "name": "propertyId",
              "type": "string"
            },
            {
              "internalType": "string",
              "name": "landTitleId",
              "type": "string"
            },
            {
              "internalType": "string",
              "name": "propertyAddress",
              "type": "string"
            },
            {
              "internalType": "uint256",
              "name": "totalValue",
              "type": "uint256"
            },
            {
              "internalType": "uint256",
              "name": "minimumInvestment",
              "type": "uint256"
            },
            {
              "internalType": "uint256",
              "name": "expectedROI",
              "type": "uint256"
            },
            {
              "internalType": "uint256",
              "name": "lockupPeriod",
              "type": "uint256"
            },
            {
              "internalType": "bool",
              "name": "isActive",
              "type": "bool"
            }
          ],
          "internalType": "struct PropertyToken.PropertyDetails",
          "name": "_details",
          "type": "tuple"
        }
      ],
      "name": "registerProperty",
      "outputs": [
        {
          "internalType": "address",
          "name": "",
          "type": "address"
        }
      ],
      "stateMutability": "nonpayable",
      "type": "function"
    },
    {
      "inputs": [],
      "name": "renounceOwnership",
      "outputs": [],
      "stateMutability": "nonpayable",
      "type": "function"
    },
    {
      "inputs": [],
      "name": "totalProperties",
      "outputs": [
        {
          "internalType": "uint256",
          "name": "",
          "type": "uint256"
        }
      ],
      "stateMutability": "view",
      "type": "function"
    },
    {
      "inputs": [
        {
          "internalType": "address",
          "name": "newOwner",
          "type": "address"
        }
      ],
      "name": "transferOwnership",
      "outputs": [],
      "stateMutability": "nonpayable",
      "type": "function"
    },
    {
      "inputs": [],
      "name": "unpause",
      "outputs": [],
      "stateMutability": "nonpayable",
      "type": "function"
    },
    {
      "inputs": [
        {
          "internalType": "string",
          "name": "_propertyId",
          "type": "string"
        },
        {
          "internalType": "bool",
          "name": "_isActive",
          "type": "bool"
        }
      ],
      "name": "updatePropertyStatus",
      "outputs": [],
      "stateMutability": "nonpayable",
      "type": "function"
    },
    {
      "inputs": [
        {
          "internalType": "string",
          "name": "_propertyId",
          "type": "string"
        }
      ],
      "name": "verifyProperty",
      "outputs": [],
      "stateMutability": "nonpayable",
      "type": "function"
    }
  ],
  "bytecode": "0x608060405234801561001057600080fd5b5061001a3361002c565b6000805460ff60a01b1916905561007c565b600080546001600160a01b038381166001600160a01b0319831681178455604051919092169283917f8be0079c531659141344cd1fd0a4f28419497f9722a3daafe3b4186f6b6457e09190a35050565b6141d28061008b6000396000f3fe60806040523480156200001157600080fd5b50600436106200012d5760003560e01c80638f48bd5b11620000af578063c0131ac1116200007a578063c0131ac1146200029b578063cb64489714620002b2578063e62954f514620002c9578063f2fde38b14620002e0578063f7f300a414620002f757600080fd5b80638f48bd5b146200020a5780639a89171614620002215780639be8f2a61462000247578063ab331a34146200027557600080fd5b806354f2b93f11620000fc57806354f2b93f146200019a5780635c975abb14620001b1578063715018a614620001d05780638456cb5914620001da5780638da5cb5b14620001e457600080fd5b80630b3bce2014620001325780633d51402c146200014f5780633f4ba83a14620001685780634efcaca51462000174575b600080fd5b6200013c60055481565b6040519081526020015b60405180910390f35b620001596200030e565b60405162000146919062001343565b62000172620003f1565b005b6200018b62000185366004620013a9565b62000407565b604051620001469190620013c3565b62000172620001ab366004620014b7565b620004bc565b600054600160a01b900460ff165b604051901515815260200162000146565b6200017262000600565b6200017262000616565b6000546001600160a01b03165b6040516001600160a01b03909116815260200162000146565b6200018b6200021b36600462001515565b6200062a565b620001bf6200023236600462001542565b60036020526000908152604090205460ff1681565b6200025e62000258366004620014b7565b62000665565b604051620001469998979695949392919062001560565b6200028c62000286366004620014b7565b620007f6565b604051620001469190620015d6565b62000172620002ac366004620016a6565b62000a7d565b62000159620002c336600462001542565b62000ae0565b62000172620002da366004620016de565b62000bd9565b62000172620002f136600462001542565b62000d24565b620001f16200030836600462001805565b62000da3565b60606004805480602002602001604051908101604052809291908181526020016000905b82821015620003e85783829060005260206000200180546200035490620018fa565b80601f01602080910402602001604051908101604052809291908181526020018280546200038290620018fa565b8015620003d35780601f10620003a757610100808354040283529160200191620003d3565b820191906000526020600020905b815481529060010190602001808311620003b557829003601f168201915b50505050508152602001906001019062000332565b50505050905090565b620003fb620010f7565b6200040562001153565b565b600481815481106200041857600080fd5b9060005260206000200160009150905080546200043590620018fa565b80601f01602080910402602001604051908101604052809291908181526020018280546200046390620018fa565b8015620004b45780601f106200048857610100808354040283529160200191620004b4565b820191906000526020600020905b8154815290600101906020018083116200049657829003601f168201915b505050505081565b3360009081526003602052604090205460ff16620005215760405162461bcd60e51b815260206004820152601760248201527f4e6f7420617574686f72697a656420766572696669657200000000000000000060448201526064015b60405180910390fd5b8060006001600160a01b03166001826040516200053f919062001930565b908152604051908190036020019020546001600160a01b031603620005785760405162461bcd60e51b815260040162000518906200194e565b600180836040516200058b919062001930565b90815260405190819003602001812060070180549215156101000261ff001990931692909217909155620005c190839062001930565b604051908190038120338252907f59db20f226d193e35c4c6091959c3cf1abd5000ae0410457993c064828fcc285906020015b60405180910390a25050565b6200060a620010f7565b620004056000620011aa565b62000620620010f7565b62000405620011fa565b600260205281600052604060002081815481106200064757600080fd5b906000526020600020016000915091505080546200043590620018fa565b805160208183018101805160018083529383019290940191909120929052815490820180546001600160a01b039092169291620006a290620018fa565b80601f0160208091040260200160405190810160405280929190818152602001828054620006d090620018fa565b8015620007215780601f10620006f55761010080835404028352916020019162000721565b820191906000526020600020905b8154815290600101906020018083116200070357829003601f168201915b5050505050908060020180546200073890620018fa565b80601f01602080910402602001604051908101604052809291908181526020018280546200076690620018fa565b8015620007b75780601f106200078b57610100808354040283529160200191620007b7565b820191906000526020600020905b8154815290600101906020018083116200079957829003601f168201915b505050600384015460048501546005860154600687015460079097015495966001600160a01b0390931695919450925060ff8082169161010090041689565b6200085c60405180610120016040528060006001600160a01b03168152602001606081526020016060815260200160006001600160a01b031681526020016000815260200160008152602001600081526020016000151581526020016000151581525090565b8160006001600160a01b03166001826040516200087a919062001930565b908152604051908190036020019020546001600160a01b031603620008b35760405162461bcd60e51b815260040162000518906200194e565b600183604051620008c5919062001930565b908152604080519182900360209081018320610120840190925281546001600160a01b03168352600182018054918401916200090190620018fa565b80601f01602080910402602001604051908101604052809291908181526020018280546200092f90620018fa565b8015620009805780601f10620009545761010080835404028352916020019162000980565b820191906000526020600020905b8154815290600101906020018083116200096257829003601f168201915b505050505081526020016002820180546200099b90620018fa565b80601f0160208091040260200160405190810160405280929190818152602001828054620009c990620018fa565b801562000a1a5780601f10620009ee5761010080835404028352916020019162000a1a565b820191906000526020600020905b815481529060010190602001808311620009fc57829003601f168201915b505050918352505060038201546001600160a01b0316602082015260048201546040820152600582015460608201526006820154608082015260079091015460ff808216151560a084015261010090910416151560c09091015291505b50919050565b62000a87620010f7565b6001600160a01b038216600081815260036020908152604091829020805460ff191685151590811790915591519182527f549bea741606fea6131feb992ab8021bef3bb5dfc19f6d30184944614a8754599101620005f4565b6001600160a01b0381166000908152600260209081526040808320805482518185028101850190935280835260609492939192909184015b8282101562000bce57838290600052602060002001805462000b3a90620018fa565b80601f016020809104026020016040519081016040528092919081815260200182805462000b6890620018fa565b801562000bb95780601f1062000b8d5761010080835404028352916020019162000bb9565b820191906000526020600020905b81548152906001019060200180831162000b9b57829003601f168201915b50505050508152602001906001019062000b18565b505050509050919050565b8160006001600160a01b031660018260405162000bf7919062001930565b908152604051908190036020019020546001600160a01b03160362000c305760405162461bcd60e51b815260040162000518906200194e565b600060018460405162000c44919062001930565b9081526040519081900360200190206003810154909150336001600160a01b03909116148062000c8357503360009081526003602052604090205460ff165b62000cc25760405162461bcd60e51b815260206004820152600e60248201526d139bdd08185d5d1a1bdc9a5e995960921b604482015260640162000518565b60078101805460ff191684151517905560405162000ce290859062001930565b6040519081900381208415158252907f2fe9d370423e5602fd1a98b579cdbe02c69c53ed8bb847b1065e2d082d0552dc9060200160405180910390a250505050565b62000d2e620010f7565b6001600160a01b03811662000d955760405162461bcd60e51b815260206004820152602660248201527f4f776e61626c653a206e6577206f776e657220697320746865207a65726f206160448201526564647265737360d01b606482015260840162000518565b62000da081620011aa565b50565b600062000daf62001240565b60006001600160a01b031660018960405162000dcc919062001930565b908152604051908190036020019020546001600160a01b03161462000e345760405162461bcd60e51b815260206004820152601b60248201527f50726f706572747920616c726561647920726567697374657265640000000000604482015260640162000518565b6000868686868660405162000e4990620012e1565b62000e5995949392919062001985565b604051809103906000f08015801562000e76573d6000803e3d6000fd5b5060405163f2fde38b60e01b81523360048201529091506001600160a01b0382169063f2fde38b90602401600060405180830381600087803b15801562000ebc57600080fd5b505af115801562000ed1573d6000803e3d6000fd5b50505050604051806101200160405280826001600160a01b031681526020018a8152602001898152602001336001600160a01b031681526020018581526020018681526020014281526020016001151581526020016000151581525060018a60405162000f3f919062001930565b90815260405160209181900382019020825181546001600160a01b0319166001600160a01b0390911617815590820151600182019062000f80908262001ab1565b506040820151600282019062000f97908262001ab1565b5060608201516003820180546001600160a01b0319166001600160a01b039092169190911790556080820151600482015560a0820151600582015560c0820151600682015560e0820151600790910180546101009384015161ffff1990911692151561ff0019169290921791151590920217905533600090815260026020908152604082208054600181018255908352912001620010368a8262001ab1565b50600480546001810182556000919091527f8a35acfbc15ff81a39ae7d344fd709f28e8600b4aa8c65c6b64bfe7fe36bd19b01620010758a8262001ab1565b5060058054906000620010888362001b7e565b9190505550336001600160a01b0316816001600160a01b03168a604051620010b1919062001930565b604051908190038120878252907f176bbe6ffad9183dde0d7e5ebc43f686b4ef61e92bb00232d0e49c63cd0303579060200160405180910390a498975050505050505050565b6000546001600160a01b03163314620004055760405162461bcd60e51b815260206004820181905260248201527f4f776e61626c653a2063616c6c6572206973206e6f7420746865206f776e6572604482015260640162000518565b6200115d6200128f565b6000805460ff60a01b191690557f5db9ee0a495bf2e6ff9c91a7834c1ba4fdd244a5e8aa4e537bd38aeae4b073aa335b6040516001600160a01b03909116815260200160405180910390a1565b600080546001600160a01b038381166001600160a01b0319831681178455604051919092169283917f8be0079c531659141344cd1fd0a4f28419497f9722a3daafe3b4186f6b6457e09190a35050565b6200120462001240565b6000805460ff60a01b1916600160a01b1790557f62e78cea01bee320cd4e420270b5ea74000d11b0c9f74754ebdbfc544b05a2586200118d3390565b600054600160a01b900460ff1615620004055760405162461bcd60e51b815260206004820152601060248201526f14185d5cd8589b194e881c185d5cd95960821b604482015260640162000518565b600054600160a01b900460ff16620004055760405162461bcd60e51b815260206004820152601460248201527314185d5cd8589b194e881b9bdd081c185d5cd95960621b604482015260640162000518565b6125f68062001ba783390190565b60005b838110156200130c578181015183820152602001620012f2565b50506000910152565b600081518084526200132f816020860160208601620012ef565b601f01601f19169290920160200192915050565b6000602080830181845280855180835260408601915060408160051b870101925083870160005b828110156200139c57603f198886030184526200138985835162001315565b945092850192908501906001016200136a565b5092979650505050505050565b600060208284031215620013bc57600080fd5b5035919050565b602081526000620013d8602083018462001315565b9392505050565b634e487b7160e01b600052604160045260246000fd5b604051610100810167ffffffffffffffff811182821017156200141c576200141c620013df565b60405290565b600082601f8301126200143457600080fd5b813567ffffffffffffffff80821115620014525762001452620013df565b604051601f8301601f19908116603f011681019082821181831017156200147d576200147d620013df565b816040528381528660208588010111156200149757600080fd5b836020870160208301376000602085830101528094505050505092915050565b600060208284031215620014ca57600080fd5b813567ffffffffffffffff811115620014e257600080fd5b620014f08482850162001422565b949350505050565b80356001600160a01b03811681146200151057600080fd5b919050565b600080604083850312156200152957600080fd5b6200153483620014f8565b946020939093013593505050565b6000602082840312156200155557600080fd5b620013d882620014f8565b6001600160a01b038a8116825261012060208301819052600091620015888483018d62001315565b915083820360408501526200159e828c62001315565b991660608401525050608081019590955260a085019390935260c0840191909152151560e08301521515610100909101529392505050565b60208152620015f16020820183516001600160a01b03169052565b600060208301516101208060408501526200161161014085018362001315565b91506040850151601f1985840301606086015262001630838262001315565b92505060608501516200164e60808601826001600160a01b03169052565b50608085015160a085015260a085015160c085015260c085015160e085015260e0850151610100620016838187018315159052565b90950151151593019290925250919050565b803580151581146200151057600080fd5b60008060408385031215620016ba57600080fd5b620016c583620014f8565b9150620016d56020840162001695565b90509250929050565b60008060408385031215620016f257600080fd5b823567ffffffffffffffff8111156200170a57600080fd5b620017188582860162001422565b925050620016d56020840162001695565b600061010082840312156200173d57600080fd5b62001747620013f5565b9050813567ffffffffffffffff808211156200176257600080fd5b620017708583860162001422565b835260208401359150808211156200178757600080fd5b620017958583860162001422565b60208401526040840135915080821115620017af57600080fd5b50620017be8482850162001422565b604083015250606082013560608201526080820135608082015260a082013560a082015260c082013560c0820152620017fa60e0830162001695565b60e082015292915050565b600080600080600080600060e0888a0312156200182157600080fd5b873567ffffffffffffffff808211156200183a57600080fd5b620018488b838c0162001422565b985060208a01359150808211156200185f57600080fd5b6200186d8b838c0162001422565b975060408a01359150808211156200188457600080fd5b620018928b838c0162001422565b965060608a0135915080821115620018a957600080fd5b620018b78b838c0162001422565b955060808a0135945060a08a0135935060c08a0135915080821115620018dc57600080fd5b50620018eb8a828b0162001729565b91505092959891949750929550565b600181811c908216806200190f57607f821691505b60208210810362000a7757634e487b7160e01b600052602260045260246000fd5b6000825162001944818460208701620012ef565b9190910192915050565b60208082526017908201527f50726f7065727479206e6f742072656769737465726564000000000000000000604082015260600190565b60a0815260006200199a60a083018862001315565b8281036020840152620019ae818862001315565b905085604084015284606084015282810360808401526101008451818352620019da8284018262001315565b91505060208501518282036020840152620019f6828262001315565b9150506040850151828203604084015262001a12828262001315565b915050606085015160608301526080850151608083015260a085015160a083015260c085015160c083015260e085015162001a5160e084018215159052565b5098975050505050505050565b601f82111562001aac57600081815260208120601f850160051c8101602086101562001a875750805b601f850160051c820191505b8181101562001aa85782815560010162001a93565b5050505b505050565b815167ffffffffffffffff81111562001ace5762001ace620013df565b62001ae68162001adf8454620018fa565b8462001a5e565b602080601f83116001811462001b1e576000841562001b055750858301515b600019600386901b1c1916600185901b17855562001aa8565b600085815260208120601f198616915b8281101562001b4f5788860151825594840194600190910190840162001b2e565b508582101562001b6e5787850151600019600388901b60f8161c191681555b5050505050600190811b01905550565b60006001820162001b9f57634e487b7160e01b600052601160045260246000fd5b506001019056fe60806040523480156200001157600080fd5b50604051620025f6380380620025f6833981016040819052620000349162000386565b8484600362000044838262000577565b50600462000053828262000577565b505050620000706200006a6200014d60201b60201c565b62000151565b6005805460ff60a01b191690556001600655620000a730620000956008600a62000758565b620000a190866200076d565b620001a3565b600f829055620000b8838362000787565b601055805181906007908190620000d0908262000577565b5060208201516001820190620000e7908262000577565b5060408201516002820190620000fe908262000577565b50606082015160038201556080820151600482015560a0820151600582015560c0820151600682015560e0909101516007909101805460ff191691151591909117905550620007c09350505050565b3390565b600580546001600160a01b038381166001600160a01b0319831681179093556040519116919082907f8be0079c531659141344cd1fd0a4f28419497f9722a3daafe3b4186f6b6457e090600090a35050565b6001600160a01b038216620001fe5760405162461bcd60e51b815260206004820152601f60248201527f45524332303a206d696e7420746f20746865207a65726f206164647265737300604482015260640160405180910390fd5b8060026000828254620002129190620007aa565b90915550506001600160a01b038216600081815260208181526040808320805486019055518481527fddf252ad1be2c89b69c2b068fc378daa952ba7f163c4a11628f55a4df523b3ef910160405180910390a35050565b505050565b634e487b7160e01b600052604160045260246000fd5b60405161010081016001600160401b0381118282101715620002aa57620002aa6200026e565b60405290565b604051601f8201601f191681016001600160401b0381118282101715620002db57620002db6200026e565b604052919050565b600082601f830112620002f557600080fd5b81516001600160401b038111156200031157620003116200026e565b602062000327601f8301601f19168201620002b0565b82815285828487010111156200033c57600080fd5b60005b838110156200035c5785810183015182820184015282016200033f565b506000928101909101919091529392505050565b805180151581146200038157600080fd5b919050565b600080600080600060a086880312156200039f57600080fd5b85516001600160401b0380821115620003b757600080fd5b620003c589838a01620002e3565b96506020880151915080821115620003dc57600080fd5b620003ea89838a01620002e3565b9550604088015194506060880151935060808801519150808211156200040f57600080fd5b90870190610100828a0312156200042557600080fd5b6200042f62000284565b8251828111156200043f57600080fd5b6200044d8b828601620002e3565b8252506020830151828111156200046357600080fd5b620004718b828601620002e3565b6020830152506040830151828111156200048a57600080fd5b620004988b828601620002e3565b604083015250606083015160608201526080830151608082015260a083015160a082015260c083015160c0820152620004d460e0840162000370565b60e08201528093505050509295509295909350565b600181811c90821680620004fe57607f821691505b6020821081036200051f57634e487b7160e01b600052602260045260246000fd5b50919050565b601f8211156200026957600081815260208120601f850160051c810160208610156200054e5750805b601f850160051c820191505b818110156200056f578281556001016200055a565b505050505050565b81516001600160401b038111156200059357620005936200026e565b620005ab81620005a48454620004e9565b8462000525565b602080601f831160018114620005e35760008415620005ca5750858301515b600019600386901b1c1916600185901b1785556200056f565b600085815260208120601f198616915b828110156200061457888601518255948401946001909101908401620005f3565b5085821015620006335787850151600019600388901b60f8161c191681555b5050505050600190811b01905550565b634e487b7160e01b600052601160045260246000fd5b600181815b808511156200069a5781600019048211156200067e576200067e62000643565b808516156200068c57918102915b93841c93908002906200065e565b509250929050565b600082620006b35750600162000752565b81620006c25750600062000752565b8160018114620006db5760028114620006e65762000706565b600191505062000752565b60ff841115620006fa57620006fa62000643565b50506001821b62000752565b5060208310610133831016604e8410600b84101617156200072b575081810a62000752565b62000737838362000659565b80600019048211156200074e576200074e62000643565b0290505b92915050565b6000620007668383620006a2565b9392505050565b808202811582820484141762000752576200075262000643565b600082620007a557634e487b7160e01b600052601260045260246000fd5b500490565b8082018082111562000752576200075262000643565b611e2680620007d06000396000f3fe6080604052600436106101ed5760003560e01c80635de5f3be1161010d578063a457c2d7116100a0578063bec3fa171161006f578063bec3fa171461059c578063d7fac34b146105bc578063dd62ed3e146105d2578063e20993bc146105f2578063f2fde38b1461061257600080fd5b8063a457c2d7146104ff578063a5410a661461051f578063a9059cbb1461054f578063ad4222c71461056f57600080fd5b80637b97008d116100dc5780637b97008d146104a45780638456cb59146104b75780638da5cb5b146104cc57806395d89b41146104ea57600080fd5b80635de5f3be1461042157806370a0823114610443578063715018a6146104795780637b1b1de61461048e57600080fd5b80632e0f2625116101855780633feb5f2b116101545780633feb5f2b1461037d57806341a03968146103b557806353df9d76146103e25780635c975abb1461040257600080fd5b80632e0f262514610317578063313ce5671461032c57806339509351146103485780633f4ba83a1461036857600080fd5b806318160ddd116101c157806318160ddd146102b857806323b872dd146102d757806329b8caff146102f75780632d07953a1461030d57600080fd5b80627dc372146101f257806306fdde03146102245780630707873c14610246578063095ea7b314610288575b600080fd5b3480156101fe57600080fd5b50610207610632565b60405161021b989796959493929190611923565b60405180910390f35b34801561023057600080fd5b50610239610802565b60405161021b919061198d565b34801561025257600080fd5b506102666102613660046119c3565b610894565b604080519485526020850193909352918301521515606082015260800161021b565b34801561029457600080fd5b506102a86102a33660046119de565b6108f8565b604051901515815260200161021b565b3480156102c457600080fd5b506002545b60405190815260200161021b565b3480156102e357600080fd5b506102a86102f2366004611a08565b610912565b34801561030357600080fd5b506102c960155481565b610315610936565b005b34801561032357600080fd5b506102c9600881565b34801561033857600080fd5b506040516012815260200161021b565b34801561035457600080fd5b506102a86103633660046119de565b610ab6565b34801561037457600080fd5b50610315610ad8565b34801561038957600080fd5b5061039d610398366004611a44565b610aea565b6040516001600160a01b03909116815260200161021b565b3480156103c157600080fd5b506102c96103d03660046119c3565b60126020526000908152604090205481565b3480156103ee57600080fd5b506103156103fd366004611a5d565b610b14565b34801561040e57600080fd5b50600554600160a01b900460ff166102a8565b34801561042d57600080fd5b50610436610b7b565b60405161021b9190611a99565b34801561044f57600080fd5b506102c961045e3660046119c3565b6001600160a01b031660009081526020819052604090205490565b34801561048557600080fd5b50610315610dc6565b34801561049a57600080fd5b506102c960105481565b6103156104b2366004611a44565b610dd8565b3480156104c357600080fd5b506103156110d4565b3480156104d857600080fd5b506005546001600160a01b031661039d565b3480156104f657600080fd5b506102396110e4565b34801561050b57600080fd5b506102a861051a3660046119de565b6110f3565b34801561052b57600080fd5b506102a861053a3660046119c3565b60136020526000908152604090205460ff1681565b34801561055b57600080fd5b506102a861056a3660046119de565b61116e565b34801561057b57600080fd5b506102c961058a3660046119c3565b60116020526000908152604090205481565b3480156105a857600080fd5b506103156105b73660046119de565b61117c565b3480156105c857600080fd5b506102c9600f5481565b3480156105de57600080fd5b506102c96105ed366004611b3b565b61125a565b3480156105fe57600080fd5b5061031561060d366004611a44565b611285565b34801561061e57600080fd5b5061031561062d3660046119c3565b6112eb565b60078054819061064190611b6e565b80601f016020809104026020016040519081016040528092919081815260200182805461066d90611b6e565b80156106ba5780601f1061068f576101008083540402835291602001916106ba565b820191906000526020600020905b81548152906001019060200180831161069d57829003601f168201915b5050505050908060010180546106cf90611b6e565b80601f01602080910402602001604051908101604052809291908181526020018280546106fb90611b6e565b80156107485780601f1061071d57610100808354040283529160200191610748565b820191906000526020600020905b81548152906001019060200180831161072b57829003601f168201915b50505050509080600201805461075d90611b6e565b80601f016020809104026020016040519081016040528092919081815260200182805461078990611b6e565b80156107d65780601f106107ab576101008083540402835291602001916107d6565b820191906000526020600020905b8154815290600101906020018083116107b957829003601f168201915b505050600384015460048501546005860154600687015460079097015495969295919450925060ff1688565b60606003805461081190611b6e565b80601f016020809104026020016040519081016040528092919081815260200182805461083d90611b6e565b801561088a5780601f1061085f5761010080835404028352916020019161088a565b820191906000526020600020905b81548152906001019060200180831161086d57829003601f168201915b5050505050905090565b6000806000806108b9856001600160a01b031660009081526020819052604090205490565b6001600160a01b0395909516600090815260116020908152604080832054601283528184205460139093529220549697919690955060ff169350915050565b600033610906818585611361565b60019150505b92915050565b600033610920858285611485565b61092b8585856114ff565b506001949350505050565b61093e6116a3565b600034116109935760405162461bcd60e51b815260206004820152601860248201527f4e6f20726576656e756520746f2064697374726962757465000000000000000060448201526064015b60405180910390fd5b306000908152602081905260408120546002546109b09190611bbe565b905060005b601454811015610a79576000601482815481106109d4576109d4611bd1565b60009182526020822001546001600160a01b03169150610a09826001600160a01b031660009081526020819052604090205490565b90508015610a6457600084610a1e8334611be7565b610a289190611bfe565b6040519091506001600160a01b0384169082156108fc029083906000818181858888f19350505050158015610a61573d6000803e3d6000fd5b50505b50508080610a7190611c20565b9150506109b5565b50604080513481524260208201527ff2838e4b541f90d41a1076a560d75e948f7d1008e72118a655568626a30b451f91015b60405180910390a150565b600033610906818585610ac9838361125a565b610ad39190611c39565b611361565b610ae06116a3565b610ae86116fd565b565b60148181548110610afa57600080fd5b6000918252602090912001546001600160a01b0316905081565b610b1c6116a3565b6001600160a01b038216600081815260136020908152604091829020805460ff191685151590811790915591519182527f3654d8650100fa53b8e5dcc6eeeea45a6069b9832c094245abbdcd2e7a0de347910160405180910390a25050565b610bc5604051806101000160405280606081526020016060815260200160608152602001600081526020016000815260200160008152602001600081526020016000151581525090565b600760405180610100016040529081600082018054610be390611b6e565b80601f0160208091040260200160405190810160405280929190818152602001828054610c0f90611b6e565b8015610c5c5780601f10610c3157610100808354040283529160200191610c5c565b820191906000526020600020905b815481529060010190602001808311610c3f57829003601f168201915b50505050508152602001600182018054610c7590611b6e565b80601f0160208091040260200160405190810160405280929190818152602001828054610ca190611b6e565b8015610cee5780601f10610cc357610100808354040283529160200191610cee565b820191906000526020600020905b815481529060010190602001808311610cd157829003601f168201915b50505050508152602001600282018054610d0790611b6e565b80601f0160208091040260200160405190810160405280929190818152602001828054610d3390611b6e565b8015610d805780601f10610d5557610100808354040283529160200191610d80565b820191906000526020600020905b815481529060010190602001808311610d6357829003601f168201915b50505091835250506003820154602082015260048201546040820152600582015460608201526006820154608082015260079091015460ff16151560a090910152919050565b610dce6116a3565b610ae86000611752565b3360009081526013602052604090205460ff16610e375760405162461bcd60e51b815260206004820152601960248201527f4b594320766572696669636174696f6e20726571756972656400000000000000604482015260640161098a565b610e3f6117a4565b610e476117f1565b60008111610ea35760405162461bcd60e51b815260206004820152602360248201527f546f6b656e20616d6f756e74206d75737420626520677265617465722074686160448201526206e20360ec1b606482015260840161098a565b601054610eb09082611be7565b341015610ef65760405162461bcd60e51b8152602060048201526014602482015273125b9cdd59999a58da595b9d081c185e5b595b9d60621b604482015260640161098a565b610f026008600a611d30565b610f0c9082611be7565b306000908152602081905260409020541015610f6a5760405162461bcd60e51b815260206004820152601b60248201527f4e6f7420656e6f75676820746f6b656e7320617661696c61626c650000000000604482015260640161098a565b600b54341015610fbc5760405162461bcd60e51b815260206004820152601860248201527f42656c6f77206d696e696d756d20696e766573746d656e740000000000000000604482015260640161098a565b610fdc3033610fcd6008600a611d30565b610fd79085611be7565b6114ff565b336000908152601160205260408120549003611047576014805460018101825560009182527fce6d7b5282bd9a3661ae061feed1dbda4e52ab073b1f9285be6e155d9c38d4ec0180546001600160a01b03191633179055601580549161104183611c20565b91905055505b3360009081526011602052604081208054349290611066908490611c39565b9091555050600d546110789042611c39565b3360008181526012602090815260409182902093909355805134815292830184905290917f8fafebcaf9d154343dad25669bfa277f4fbacd7ac6b0c4fed522580e040a0f33910160405180910390a26110d16001600655565b50565b6110dc6116a3565b610ae861184a565b60606004805461081190611b6e565b60003381611101828661125a565b9050838110156111615760405162461bcd60e51b815260206004820152602560248201527f45524332303a2064656372656173656420616c6c6f77616e63652062656c6f77604482015264207a65726f60d81b606482015260840161098a565b61092b8286868403611361565b6000336109068185856114ff565b336000908152601260205260409020544210156111db5760405162461bcd60e51b815260206004820152601760248201527f4c6f636b757020706572696f64206e6f7420656e646564000000000000000000604482015260640161098a565b6111e36117a4565b6001600160a01b03821660009081526013602052604090205460ff1661124b5760405162461bcd60e51b815260206004820152601a60248201527f526563697069656e74206e6f74204b5943207665726966696564000000000000604482015260640161098a565b6112563383836114ff565b5050565b6001600160a01b03918216600090815260016020908152604080832093909416825291909152205490565b61128d6116a3565b600f81905561129e6008600a611d30565b6002546112ab9190611bfe565b6112b59082611bfe565b6010556040517fdc0d1a545b7923b69edb6d85d57ba8431d43559646628478bc3d0b817d2c55e490610aab906007908490611d3c565b6112f36116a3565b6001600160a01b0381166113585760405162461bcd60e51b815260206004820152602660248201527f4f776e61626c653a206e6577206f776e657220697320746865207a65726f206160448201526564647265737360d01b606482015260840161098a565b6110d181611752565b6001600160a01b0383166113c35760405162461bcd60e51b8152602060048201526024808201527f45524332303a20617070726f76652066726f6d20746865207a65726f206164646044820152637265737360e01b606482015260840161098a565b6001600160a01b0382166114245760405162461bcd60e51b815260206004820152602260248201527f45524332303a20617070726f766520746f20746865207a65726f206164647265604482015261737360f01b606482015260840161098a565b6001600160a01b0383811660008181526001602090815260408083209487168084529482529182902085905590518481527f8c5be1e5ebec7d5bd14f71427d1e84f3dd0314c0f7b2291e5b200ac8c7c3b925910160405180910390a3505050565b6000611491848461125a565b905060001981146114f957818110156114ec5760405162461bcd60e51b815260206004820152601d60248201527f45524332303a20696e73756666696369656e7420616c6c6f77616e6365000000604482015260640161098a565b6114f98484848403611361565b50505050565b6001600160a01b0383166115635760405162461bcd60e51b815260206004820152602560248201527f45524332303a207472616e736665722066726f6d20746865207a65726f206164604482015264647265737360d81b606482015260840161098a565b6001600160a01b0382166115c55760405162461bcd60e51b815260206004820152602360248201527f45524332303a207472616e7366657220746f20746865207a65726f206164647260448201526265737360e81b606482015260840161098a565b6001600160a01b0383166000908152602081905260409020548181101561163d5760405162461bcd60e51b815260206004820152602660248201527f45524332303a207472616e7366657220616d6f756e7420657863656564732062604482015265616c616e636560d01b606482015260840161098a565b6001600160a01b03848116600081815260208181526040808320878703905593871680835291849020805487019055925185815290927fddf252ad1be2c89b69c2b068fc378daa952ba7f163c4a11628f55a4df523b3ef910160405180910390a36114f9565b6005546001600160a01b03163314610ae85760405162461bcd60e51b815260206004820181905260248201527f4f776e61626c653a2063616c6c6572206973206e6f7420746865206f776e6572604482015260640161098a565b61170561188d565b6005805460ff60a01b191690557f5db9ee0a495bf2e6ff9c91a7834c1ba4fdd244a5e8aa4e537bd38aeae4b073aa335b6040516001600160a01b03909116815260200160405180910390a1565b600580546001600160a01b038381166001600160a01b0319831681179093556040519116919082907f8be0079c531659141344cd1fd0a4f28419497f9722a3daafe3b4186f6b6457e090600090a35050565b600554600160a01b900460ff1615610ae85760405162461bcd60e51b815260206004820152601060248201526f14185d5cd8589b194e881c185d5cd95960821b604482015260640161098a565b6002600654036118435760405162461bcd60e51b815260206004820152601f60248201527f5265656e7472616e637947756172643a207265656e7472616e742063616c6c00604482015260640161098a565b6002600655565b6118526117a4565b6005805460ff60a01b1916600160a01b1790557f62e78cea01bee320cd4e420270b5ea74000d11b0c9f74754ebdbfc544b05a2586117353390565b600554600160a01b900460ff16610ae85760405162461bcd60e51b815260206004820152601460248201527314185d5cd8589b194e881b9bdd081c185d5cd95960621b604482015260640161098a565b6000815180845260005b81811015611903576020818501810151868301820152016118e7565b506000602082860101526020601f19601f83011685010191505092915050565b60006101008083526119378184018c6118dd565b9050828103602084015261194b818b6118dd565b9050828103604084015261195f818a6118dd565b60608401989098525050608081019490945260a084019290925260c0830152151560e0909101529392505050565b6020815260006119a060208301846118dd565b9392505050565b80356001600160a01b03811681146119be57600080fd5b919050565b6000602082840312156119d557600080fd5b6119a0826119a7565b600080604083850312156119f157600080fd5b6119fa836119a7565b946020939093013593505050565b600080600060608486031215611a1d57600080fd5b611a26846119a7565b9250611a34602085016119a7565b9150604084013590509250925092565b600060208284031215611a5657600080fd5b5035919050565b60008060408385031215611a7057600080fd5b611a79836119a7565b915060208301358015158114611a8e57600080fd5b809150509250929050565b6020815260008251610100806020850152611ab86101208501836118dd565b91506020850151601f1980868503016040870152611ad684836118dd565b9350604087015191508086850301606087015250611af483826118dd565b92505060608501516080850152608085015160a085015260a085015160c085015260c085015160e085015260e0850151611b318286018215159052565b5090949350505050565b60008060408385031215611b4e57600080fd5b611b57836119a7565b9150611b65602084016119a7565b90509250929050565b600181811c90821680611b8257607f821691505b602082108103611ba257634e487b7160e01b600052602260045260246000fd5b50919050565b634e487b7160e01b600052601160045260246000fd5b8181038181111561090c5761090c611ba8565b634e487b7160e01b600052603260045260246000fd5b808202811582820484141761090c5761090c611ba8565b600082611c1b57634e487b7160e01b600052601260045260246000fd5b500490565b600060018201611c3257611c32611ba8565b5060010190565b8082018082111561090c5761090c611ba8565b600181815b80851115611c87578160001904821115611c6d57611c6d611ba8565b80851615611c7a57918102915b93841c9390800290611c51565b509250929050565b600082611c9e5750600161090c565b81611cab5750600061090c565b8160018114611cc15760028114611ccb57611ce7565b600191505061090c565b60ff841115611cdc57611cdc611ba8565b50506001821b61090c565b5060208310610133831016604e8410600b8410161715611d0a575081810a61090c565b611d148383611c4c565b8060001904821115611d2857611d28611ba8565b029392505050565b60006119a08383611c8f565b60408152600080845481600182811c915080831680611d5c57607f831692505b60208084108203611d7b57634e487b7160e01b86526022600452602486fd5b6040880184905260608801828015611d9a5760018114611db057611ddb565b60ff198716825285151560051b82019750611ddb565b60008c81526020902060005b87811015611dd557815484820152908601908401611dbc565b83019850505b5050969096019690965250909594505050505056fea26469706673582212207753dc96dfb95363a73d9eef581dd6deabd41640b327a89045d756f8c1f122ce64736f6c63430008130033a264697066735822122006443acd75918489a45893c5069bd52cbb3486e10d90e215b4b2616853935dc264736f6c63430008130033",
  "linkReferences": {},
  "deployedLinkReferences": {}
}